H30630291727CUOTA     61804032018            COLEGIO VECCHI                                                                                                                                             
D00000000000                      FG100117              15032018CUOTA                    MMMMMMATRICULA10000120000P                                                                          30630291727
D00000000000                      FG100117              15032018CUOTA                    MMMMMMATRICULA20000084000P                                                                          30630291727
D00000000000                      FG100117              15032018CUOTA                    MMMMMMATRICULA30000120000P                                                                          30630291727
D00000000000                      FG100117              15032018CUOTA                    MMMMMMATRICULA40000120000P                                                                          30630291727
D00000000000                      FG100117              15032018CUOTA                    MMMMMMATRICULA50000120000P                                                                          30630291727
D00000000000                      FG100117              15032018CUOTA                    MMMMMMATRICULA60000120000P                                                                          30630291727
D00000000000                      FG100117              15032018CUOTA                    MMMMMMATRICULA70000120000P                                                                          30630291727
D00000000000                      FG100117              15032018CUOTA                    MMMMMMATRICULA80000120000P                                                                          30630291727
D00000000000                      FG100117              15032018CUOTA                    MMMMMMATRICULA90000120000P                                                                          30630291727
D00000000000                      FG100117              15032018CUOTA                    MMMMMATRICULA100000120000P                                                                          30630291727
D00000000000                      FG100117              15032018CUOTA                    MMMMMATRICULA110000120000P                                                                          30630291727
D00000000000                      FG100117              15032018CUOTA                    MMMMMATRICULA120000120000P                                                                          30630291727
D00000000000                      FG100117              15032018CUOTA                    MMMMMATRICULA130000120000P                                                                          30630291727
D00000000000                      FG100117              15032018CUOTA                    MMMMMATRICULA140000120000P                                                                          30630291727
D00000000000                      FG100117              15032018CUOTA                    MMMMMATRICULA150000120000P                                                                          30630291727
D00000000000                      FG100117              15032018CUOTA                    MMMMMATRICULA160000084000P                                                                          30630291727
D00000000000                      FG100117              15032018CUOTA                    MMMMMATRICULA170000084000P                                                                          30630291727
D00000000000                      FG100117              15032018CUOTA                    MMMMMATRICULA180000120000P                                                                          30630291727
D00000000000                      FG100117              15032018CUOTA                    MMMMMATRICULA190000120000P                                                                          30630291727
D00000000000                      FG100117              15032018CUOTA                    MMMMMATRICULA200000120000P                                                                          30630291727
D00000000000                      FG100117              15032018CUOTA                    MMMMMATRICULA210000120000P                                                                          30630291727
D00000000000                      FG100117              15032018CUOTA                    MMMMMATRICULA220000120000P                                                                          30630291727
D00000000000                      FG100117              15032018CUOTA                    MMMMMATRICULA230000120000P                                                                          30630291727
D00000000000                      FG100117              15032018CUOTA                    MMMMMATRICULA240000120000P                                                                          30630291727
D00000000000                      FG100117              15032018CUOTA                    MMMMMATRICULA250000120000P                                                                          30630291727
D00000000000                      FG100117              15032018CUOTA                    MMMMMATRICULA260000084000P                                                                          30630291727
D00000000000                      FG100117              15032018CUOTA                    MMMMMATRICULA270000084000P                                                                          30630291727
D00000000000                      FG100117              15032018CUOTA                    MMMMMATRICULA280000084000P                                                                          30630291727
D00000000000                      FG100117              15032018CUOTA                    MMMMMATRICULA290000084000P                                                                          30630291727
D00000000000                      FG100117              15032018CUOTA                    MMMMMATRICULA300000084000P                                                                          30630291727
D00000000000                      FG100117              15032018CUOTA                    MMMMMATRICULA310000120000P                                                                          30630291727
D00000000000                      FG100117              15032018CUOTA                    MMMMMATRICULA320000120000P                                                                          30630291727
D00000000000                      FG100117              15032018CUOTA                    MMMMMATRICULA330000120000P                                                                          30630291727
D00000000000                      FG100117              15032018CUOTA                    MMMMMATRICULA340000120000P                                                                          30630291727
D00000000000                      FG100117              15032018CUOTA                    MMMMMATRICULA350000091000P                                                                          30630291727
D00000000000                      FG100117              15032018CUOTA                    MMMMMATRICULA360000120000P                                                                          30630291727
D00000000000                      FG100117              15032018CUOTA                    MMMMMATRICULA370000120000P                                                                          30630291727
D00000000000                      FG100117              15032018CUOTA                    MMMMMATRICULA380000120000P                                                                          30630291727
D00000000000                      FG100117              15032018CUOTA                    MMMMMATRICULA390000084000P                                                                          30630291727
D00000000000                      FG100117              15032018CUOTA                    MMMMMATRICULA400000120000P                                                                          30630291727
D00000000000                      FG100117              15032018CUOTA                    MMMMMATRICULA410000120000P                                                                          30630291727
D00000000000                      FG100117              15032018CUOTA                    MMMMMATRICULA420000120000P                                                                          30630291727
D00000000000                      FG100117              15032018CUOTA                    MMMMMATRICULA430000120000P                                                                          30630291727
D00000000000                      FG100117              15032018CUOTA                    MMMMMATRICULA440000120000P                                                                          30630291727
D00000000000                      FG100117              15032018CUOTA                    MMMMMATRICULA450000084000P                                                                          30630291727
D00000000000                      FG100117              15032018CUOTA                    MMMMMATRICULA460000120000P                                                                          30630291727
D00000000000                      FG100117              15032018CUOTA                    MMMMMATRICULA470000084000P                                                                          30630291727
D00000000000                      FG100117              15032018CUOTA                    MMMMMATRICULA480000120000P                                                                          30630291727
D00000000000                      FG100117              15032018CUOTA                    MMMMMATRICULA490000120000P                                                                          30630291727
D00000000000                      FG100117              15032018CUOTA                    MMMMMATRICULA500000084000P                                                                          30630291727
D00000000000                      FG100117              15032018CUOTA                    MMMMMATRICULA510000120000P                                                                          30630291727
D00000000000                      FG100117              15032018CUOTA                    MMMMMATRICULA520000084000P                                                                          30630291727
D00000000000                      FG100117              15032018CUOTA                    MMMMMATRICULA530000120000P                                                                          30630291727
D00000000000                      FG100117              15032018CUOTA                    MMMMMATRICULA540000120000P                                                                          30630291727
D00000000000                      FG100117              15032018CUOTA                    MMMMMATRICULA550000120000P                                                                          30630291727
D00000000000                      FG100117              15032018CUOTA                    MMMMMATRICULA560000120000P                                                                          30630291727
D00000000000                      FG100117              15032018CUOTA                    MMMMMATRICULA570000120000P                                                                          30630291727
D00000000000                      FG100117              15032018CUOTA                    MMMMMATRICULA580000084000P                                                                          30630291727
D00000000000                      FG100117              15032018CUOTA                    MMMMMATRICULA590000120000P                                                                          30630291727
D00000000000                      FG100117              15032018CUOTA                    MMMMMATRICULA600000084000P                                                                          30630291727
D00000000000                      FG100117              15032018CUOTA                    MMMMMATRICULA610000120000P                                                                          30630291727
D00000000000                      FG100117              15032018CUOTA                    MMMMMATRICULA620000120000P                                                                          30630291727
D00000000000                      FG100117              15032018CUOTA                    MMMMMATRICULA630000120000P                                                                          30630291727
D00000000000                      FG100117              15032018CUOTA                    MMMMMATRICULA640000120000P                                                                          30630291727
D00000000000                      FG100117              15032018CUOTA                    MMMMMATRICULA650000084000P                                                                          30630291727
D00000000000                      FG100117              15032018CUOTA                    MMMMMATRICULA660000120000P                                                                          30630291727
D00000000000                      FG100117              15032018CUOTA                    MMMMMATRICULA670000084000P                                                                          30630291727
D00000000000                      FG100117              15032018CUOTA                    MMMMMATRICULA680000120000P                                                                          30630291727
D00000000000                      FG100117              15032018CUOTA                    MMMMMATRICULA690000120000P                                                                          30630291727
D00000000000                      FG100117              15032018CUOTA                    MMMMMATRICULA700000120000P                                                                          30630291727
D00000000000                      FG100117              15032018CUOTA                    MMMMMATRICULA710000120000P                                                                          30630291727
D00000000000                      FG100117              15032018CUOTA                    MMMMMATRICULA720000120000P                                                                          30630291727
D00000000000                      FG100117              15032018CUOTA                    MMMMMATRICULA730000120000P                                                                          30630291727
D00000000000                      FG100117              15032018CUOTA                    MMMMMATRICULA740000120000P                                                                          30630291727
D00000000000                      FG100117              15032018CUOTA                    MMMMMATRICULA750000120000P                                                                          30630291727
D00000000000                      FG100117              15032018CUOTA                    MMMMMATRICULA760000120000P                                                                          30630291727
D00000000000                      FG100117              15032018CUOTA                    MMMMMATRICULA770000120000P                                                                          30630291727
D00000000000                      FG100117              15032018CUOTA                    MMMMMATRICULA780000091000P                                                                          30630291727
D00000000000                      FG100117              15032018CUOTA                    MMMMMATRICULA790000084000P                                                                          30630291727
D00000000000                      FG100117              15032018CUOTA                    MMMMMATRICULA800000084000P                                                                          30630291727
D00000000000                      FG100117              15032018CUOTA                    MMMMMATRICULA810000120000P                                                                          30630291727
D00000000000                      FG100117              15032018CUOTA                    MMMMMATRICULA820000120000P                                                                          30630291727
D00000000000                      FG100117              15032018CUOTA                    MMMMMATRICULA830000120000P                                                                          30630291727
D00000000000                      FG100117              15032018CUOTA                    MMMMMATRICULA840000120000P                                                                          30630291727
D00000000000                      FG100117              15032018CUOTA                    MMMMMATRICULA850000120000P                                                                          30630291727
D00000000000                      FG100117              15032018CUOTA                    MMMMMATRICULA860000120000P                                                                          30630291727
D00000000000                      FG100117              15032018CUOTA                    MMMMMATRICULA870000120000P                                                                          30630291727
D00000000000                      FG100117              15032018CUOTA                    MMMMMATRICULA880000120000P                                                                          30630291727
D00000000000                      FG100117              15032018CUOTA                    MMMMMATRICULA890000120000P                                                                          30630291727
D00000000000                      FG100117              15032018CUOTA                    MMMMMATRICULA900000084000P                                                                          30630291727
D00000000000                      FG100117              15032018CUOTA                    MMMMMATRICULA910000120000P                                                                          30630291727
D00000000000                      FG100117              15032018CUOTA                    MMMMMATRICULA920000120000P                                                                          30630291727
D00000000000                      FG100117              15032018CUOTA                    MMMMMATRICULA930000084000P                                                                          30630291727
D00000000000                      FG100117              15032018CUOTA                    MMMMMATRICULA940000120000P                                                                          30630291727
D00000000000                      FG100117              15032018CUOTA                    MMMMMATRICULA950000120000P                                                                          30630291727
D00000000000                      FG100117              15032018CUOTA                    MMMMMATRICULA960000120000P                                                                          30630291727
D00000000000                      FG100117              15032018CUOTA                    MMMMMATRICULA970000120000P                                                                          30630291727
D00000000000                      FG100117              15032018CUOTA                    MMMMMATRICULA980000120000P                                                                          30630291727
D00000000000                      FG100117              15032018CUOTA                    MMMMMATRICULA990000120000P                                                                          30630291727
D00000000000                      FG100117              15032018CUOTA                    MMMMATRICULA1000000120000P                                                                          30630291727
D00000000000                      FG100117              15032018CUOTA                    MMMMATRICULA1010000120000P                                                                          30630291727
D00000000000                      FG100117              15032018CUOTA                    MMMMATRICULA1020000120000P                                                                          30630291727
D00000000000                      FG100117              15032018CUOTA                    MMMMATRICULA1030000084000P                                                                          30630291727
D00000000000                      FG100117              15032018CUOTA                    MMMMATRICULA1040000120000P                                                                          30630291727
D00000000000                      FG100117              15032018CUOTA                    MMMMATRICULA1050000120000P                                                                          30630291727
D00000000000                      FG100117              15032018CUOTA                    MMMMATRICULA1060000120000P                                                                          30630291727
D00000000000                      FG100117              15032018CUOTA                    MMMMATRICULA1070000120000P                                                                          30630291727
D00000000000                      FG100117              15032018CUOTA                    MMMMATRICULA1080000120000P                                                                          30630291727
D00000000000                      FG100117              15032018CUOTA                    MMMMATRICULA1090000120000P                                                                          30630291727
D00000000000                      FG100117              15032018CUOTA                    MMMMATRICULA1100000084000P                                                                          30630291727
D00000000000                      FG100117              15032018CUOTA                    MMMMATRICULA1110000084000P                                                                          30630291727
D00000000000                      FG100117              15032018CUOTA                    MMMMATRICULA1120000084000P                                                                          30630291727
D00000000000                      FG100117              15032018CUOTA                    MMMMATRICULA1130000120000P                                                                          30630291727
D00000000000                      FG100117              15032018CUOTA                    MMMMATRICULA1140000120000P                                                                          30630291727
D00000000000                      FG100117              15032018CUOTA                    MMMMATRICULA1150000120000P                                                                          30630291727
D00000000000                      FG100117              15032018CUOTA                    MMMMATRICULA1160000120000P                                                                          30630291727
D00000000000                      FG100117              15032018CUOTA                    MMMMATRICULA1170000120000P                                                                          30630291727
D00000000000                      FG100117              15032018CUOTA                    MMMMATRICULA1180000120000P                                                                          30630291727
D00000000000                      FG100117              15032018CUOTA                    MMMMATRICULA1190000048000P                                                                          30630291727
D00000000000                      FG100117              15032018CUOTA                    MMMMATRICULA1200000120000P                                                                          30630291727
D00000000000                      FG100117              15032018CUOTA                    MMMMATRICULA1210000084000P                                                                          30630291727
D00000000000                      FG100117              15032018CUOTA                    MMMMATRICULA1220000120000P                                                                          30630291727
D00000000000                      FG100117              15032018CUOTA                    MMMMATRICULA1230000120000P                                                                          30630291727
D00000000000                      FG100117              15032018CUOTA                    MMMMATRICULA1240000084000P                                                                          30630291727
D00000000000                      FG100117              15032018CUOTA                    MMMMATRICULA1250000120000P                                                                          30630291727
D00000000000                      FG100117              15032018CUOTA                    MMMMATRICULA1260000120000P                                                                          30630291727
D00000000000                      FG100117              15032018CUOTA                    MMMMATRICULA1270000084000P                                                                          30630291727
D00000000000                      FG100117              15032018CUOTA                    MMMMATRICULA1280000120000P                                                                          30630291727
D00000000000                      FG100117              15032018CUOTA                    MMMMATRICULA1290000120000P                                                                          30630291727
D00000000000                      FG100117              15032018CUOTA                    MMMMATRICULA1300000063700P                                                                          30630291727
D00000000000                      FG100117              15032018CUOTA                    MMMMATRICULA1310000120000P                                                                          30630291727
D00000000000                      FG100117              15032018CUOTA                    MMMMATRICULA1320000120000P                                                                          30630291727
D00000000000                      FG100117              15032018CUOTA                    MMMMATRICULA1330000120000P                                                                          30630291727
D00000000000                      FG100117              15032018CUOTA                    MMMMATRICULA1340000120000P                                                                          30630291727
D00000000000                      FG100117              15032018CUOTA                    MMMMATRICULA1350000120000P                                                                          30630291727
D00000000000                      FG100117              15032018CUOTA                    MMMMATRICULA1360000084000P                                                                          30630291727
D00000000000                      FG100117              15032018CUOTA                    MMMMATRICULA1370000084000P                                                                          30630291727
D00000000000                      FG100117              15032018CUOTA                    MMMMATRICULA1380000120000P                                                                          30630291727
D00000000000                      FG100117              15032018CUOTA                    MMMMATRICULA1390000084000P                                                                          30630291727
D00000000000                      FG100117              15032018CUOTA                    MMMMATRICULA1400000120000P                                                                          30630291727
D00000000000                      FG100117              15032018CUOTA                    MMMMATRICULA1410000084000P                                                                          30630291727
D00000000000                      FG100117              15032018CUOTA                    MMMMATRICULA1420000120000P                                                                          30630291727
D00000000000                      FG100117              15032018CUOTA                    MMMMATRICULA1430000120000P                                                                          30630291727
D00000000000                      FG100117              15032018CUOTA                    MMMMATRICULA1440000048000P                                                                          30630291727
D00000000000                      FG100117              15032018CUOTA                    MMMMATRICULA1450000120000P                                                                          30630291727
D00000000000                      FG100117              15032018CUOTA                    MMMMATRICULA1460000120000P                                                                          30630291727
D00000000000                      FG100117              15032018CUOTA                    MMMMATRICULA1470000120000P                                                                          30630291727
D00000000000                      FG100117              15032018CUOTA                    MMMMATRICULA1480000120000P                                                                          30630291727
D00000000000                      FG100117              15032018CUOTA                    MMMMATRICULA1490000120000P                                                                          30630291727
D00000000000                      FG100117              15032018CUOTA                    MMMMATRICULA1500000120000P                                                                          30630291727
D00000000000                      FG100117              15032018CUOTA                    MMMMATRICULA1510000091000P                                                                          30630291727
D00000000000                      FG100117              15032018CUOTA                    MMMMATRICULA1520000120000P                                                                          30630291727
D00000000000                      FG100117              15032018CUOTA                    MMMMATRICULA1530000120000P                                                                          30630291727
D00000000000                      FG100117              15032018CUOTA                    MMMMATRICULA1540000120000P                                                                          30630291727
D00000000000                      FG100117              15032018CUOTA                    MMMMATRICULA1550000084000P                                                                          30630291727
D00000000000                      FG100117              15032018CUOTA                    MMMMATRICULA1560000120000P                                                                          30630291727
D00000000000                      FG100117              15032018CUOTA                    MMMMATRICULA1570000048000P                                                                          30630291727
D00000000000                      FG100117              15032018CUOTA                    MMMMATRICULA1580000120000P                                                                          30630291727
D00000000000                      FG100117              15032018CUOTA                    MMMMATRICULA1590000120000P                                                                          30630291727
D00000000000                      FG100117              15032018CUOTA                    MMMMATRICULA1600000084000P                                                                          30630291727
D00000000000                      FG100117              15032018CUOTA                    MMMMATRICULA1610000120000P                                                                          30630291727
D00000000000                      FG100117              15032018CUOTA                    MMMMATRICULA1620000084000P                                                                          30630291727
D00000000000                      FG100117              15032018CUOTA                    MMMMATRICULA1630000120000P                                                                          30630291727
D00000000000                      FG100117              15032018CUOTA                    MMMMATRICULA1640000120000P                                                                          30630291727
D00000000000                      FG100117              15032018CUOTA                    MMMMATRICULA1650000120000P                                                                          30630291727
D00000000000                      FG100117              15032018CUOTA                    MMMMATRICULA1660000120000P                                                                          30630291727
D00000000000                      FG100117              15032018CUOTA                    MMMMATRICULA1670000120000P                                                                          30630291727
D00000000000                      FG100117              15032018CUOTA                    MMMMATRICULA1680000120000P                                                                          30630291727
D00000000000                      FG100117              15032018CUOTA                    MMMMATRICULA1690000120000P                                                                          30630291727
D00000000000                      FG100117              15032018CUOTA                    MMMMATRICULA1700000120000P                                                                          30630291727
D00000000000                      FG100117              15032018CUOTA                    MMMMATRICULA1710000120000P                                                                          30630291727
D00000000000                      FG100117              15032018CUOTA                    MMMMATRICULA1720000084000P                                                                          30630291727
D00000000000                      FG100117              15032018CUOTA                    MMMMATRICULA1730000084000P                                                                          30630291727
D00000000000                      FG100117              15032018CUOTA                    MMMMATRICULA1740000120000P                                                                          30630291727
D00000000000                      FG100117              15032018CUOTA                    MMMMATRICULA1750000084000P                                                                          30630291727
D00000000000                      FG100117              15032018CUOTA                    MMMMATRICULA1760000120000P                                                                          30630291727
D00000000000                      FG100117              15032018CUOTA                    MMMMATRICULA1770000091000P                                                                          30630291727
D00000000000                      FG100117              15032018CUOTA                    MMMMATRICULA1780000084000P                                                                          30630291727
D00000000000                      FG100117              15032018CUOTA                    MMMMATRICULA1790000120000P                                                                          30630291727
D00000000000                      FG100117              15032018CUOTA                    MMMMATRICULA1800000120000P                                                                          30630291727
D00000000000                      FG100117              15032018CUOTA                    MMMMATRICULA1810000120000P                                                                          30630291727
D00000000000                      FG100117              15032018CUOTA                    MMMMATRICULA1820000120000P                                                                          30630291727
D00000000000                      FG100117              15032018CUOTA                    MMMMATRICULA1830000120000P                                                                          30630291727
D00000000000                      FG100117              15032018CUOTA                    MMMMATRICULA1840000084000P                                                                          30630291727
D00000000000                      FG100117              15032018CUOTA                    MMMMATRICULA1850000120000P                                                                          30630291727
D00000000000                      FG100117              15032018CUOTA                    MMMMATRICULA1860000120000P                                                                          30630291727
D00000000000                      FG100117              15032018CUOTA                    MMMMATRICULA1870000084000P                                                                          30630291727
D00000000000                      FG100117              15032018CUOTA                    MMMMATRICULA1880000120000P                                                                          30630291727
D00000000000                      FG100117              15032018CUOTA                    MMMMATRICULA1890000084000P                                                                          30630291727
D00000000000                      FG100117              15032018CUOTA                    MMMMATRICULA1900000120000P                                                                          30630291727
D00000000000                      FG100117              15032018CUOTA                    MMMMATRICULA1910000120000P                                                                          30630291727
D00000000000                      FG100117              15032018CUOTA                    MMMMATRICULA1920000120000P                                                                          30630291727
D00000000000                      FG100117              15032018CUOTA                    MMMMATRICULA1930000048000P                                                                          30630291727
D00000000000                      FG100117              15032018CUOTA                    MMMMATRICULA1940000120000P                                                                          30630291727
D00000000000                      FG100117              15032018CUOTA                    MMMMATRICULA1950000120000P                                                                          30630291727
D00000000000                      FG100117              15032018CUOTA                    MMMMATRICULA1960000084000P                                                                          30630291727
D00000000000                      FG100117              15032018CUOTA                    MMMMATRICULA1970000120000P                                                                          30630291727
D00000000000                      FG100117              15032018CUOTA                    MMMMATRICULA1980000120000P                                                                          30630291727
D00000000000                      FG100117              15032018CUOTA                    MMMMATRICULA1990000120000P                                                                          30630291727
D00000000000                      FG100117              15032018CUOTA                    MMMMATRICULA2000000120000P                                                                          30630291727
D00000000000                      FG100117              15032018CUOTA                    MMMMATRICULA2010000120000P                                                                          30630291727
D00000000000                      FG100117              15032018CUOTA                    MMMMATRICULA2020000120000P                                                                          30630291727
D00000000000                      FG100117              15032018CUOTA                    MMMMATRICULA2030000120000P                                                                          30630291727
D00000000000                      FG100117              15032018CUOTA                    MMMMATRICULA2040000120000P                                                                          30630291727
D00000000000                      FG100117              15032018CUOTA                    MMMMATRICULA2050000120000P                                                                          30630291727
D00000000000                      FG100117              15032018CUOTA                    MMMMATRICULA2060000120000P                                                                          30630291727
D00000000000                      FG100117              15032018CUOTA                    MMMMATRICULA2070000120000P                                                                          30630291727
D00000000000                      FG100117              15032018CUOTA                    MMMMATRICULA2080000084000P                                                                          30630291727
D00000000000                      FG100117              15032018CUOTA                    MMMMATRICULA2090000084000P                                                                          30630291727
D00000000000                      FG100117              15032018CUOTA                    MMMMATRICULA2100000120000P                                                                          30630291727
D00000000000                      FG100117              15032018CUOTA                    MMMMATRICULA2110000120000P                                                                          30630291727
D00000000000                      FG100117              15032018CUOTA                    MMMMATRICULA2120000120000P                                                                          30630291727
D00000000000                      FG100117              15032018CUOTA                    MMMMATRICULA2130000120000P                                                                          30630291727
D00000000000                      FG100117              15032018CUOTA                    MMMMATRICULA2140000120000P                                                                          30630291727
D00000000000                      FG100117              15032018CUOTA                    MMMMATRICULA2150000048000P                                                                          30630291727
D00000000000                      FG100117              15032018CUOTA                    MMMMATRICULA2160000120000P                                                                          30630291727
D00000000000                      FG100117              15032018CUOTA                    MMMMATRICULA2170000120000P                                                                          30630291727
D00000000000                      FG100117              15032018CUOTA                    MMMMATRICULA2180000084000P                                                                          30630291727
D00000000000                      FG100117              15032018CUOTA                    MMMMATRICULA2190000120000P                                                                          30630291727
D00000000000                      FG100117              15032018CUOTA                    MMMMATRICULA2200000120000P                                                                          30630291727
D00000000000                      FG100117              15032018CUOTA                    MMMMATRICULA2210000120000P                                                                          30630291727
D00000000000                      FG100117              15032018CUOTA                    MMMMATRICULA2220000084000P                                                                          30630291727
D00000000000                      FG100117              15032018CUOTA                    MMMMATRICULA2230000120000P                                                                          30630291727
D00000000000                      FG100117              15032018CUOTA                    MMMMATRICULA2240000120000P                                                                          30630291727
D00000000000                      FG100117              15032018CUOTA                    MMMMATRICULA2250000120000P                                                                          30630291727
D00000000000                      FG100117              15032018CUOTA                    MMMMATRICULA2260000084000P                                                                          30630291727
D00000000000                      FG100117              15032018CUOTA                    MMMMATRICULA2270000120000P                                                                          30630291727
D00000000000                      FG100117              15032018CUOTA                    MMMMATRICULA2280000063700P                                                                          30630291727
D00000000000                      FG100117              15032018CUOTA                    MMMMATRICULA2290000120000P                                                                          30630291727
D00000000000                      FG100117              15032018CUOTA                    MMMMATRICULA2300000120000P                                                                          30630291727
D00000000000                      FG100117              15032018CUOTA                    MMMMATRICULA2310000120000P                                                                          30630291727
D00000000000                      FG100117              15032018CUOTA                    MMMMATRICULA2320000063700P                                                                          30630291727
D00000000000                      FG100117              15032018CUOTA                    MMMMATRICULA2330000084000P                                                                          30630291727
D00000000000                      FG100117              15032018CUOTA                    MMMMATRICULA2340000120000P                                                                          30630291727
D00000000000                      FG100117              15032018CUOTA                    MMMMATRICULA2350000120000P                                                                          30630291727
D00000000000                      FG100117              15032018CUOTA                    MMMMATRICULA2360000120000P                                                                          30630291727
D00000000000                      FG100117              15032018CUOTA                    MMMMATRICULA2370000084000P                                                                          30630291727
D00000000000                      FG100117              15032018CUOTA                    MMMMATRICULA2380000120000P                                                                          30630291727
D00000000000                      FG100117              15032018CUOTA                    MMMMATRICULA2390000120000P                                                                          30630291727
D00000000000                      FG100117              15032018CUOTA                    MMMMATRICULA2400000120000P                                                                          30630291727
D00000000000                      FG100117              15032018CUOTA                    MMMMATRICULA2410000120000P                                                                          30630291727
D00000000000                      FG100117              15032018CUOTA                    MMMMATRICULA2420000120000P                                                                          30630291727
D00000000000                      FG100117              15032018CUOTA                    MMMMATRICULA2430000084000P                                                                          30630291727
D00000000000                      FG100117              15032018CUOTA                    MMMMATRICULA2440000091000P                                                                          30630291727
D00000000000                      FG100117              15032018CUOTA                    MMMMATRICULA2450000084000P                                                                          30630291727
D00000000000                      FG100117              15032018CUOTA                    MMMMATRICULA2460000120000P                                                                          30630291727
D00000000000                      FG100117              15032018CUOTA                    MMMMATRICULA2470000120000P                                                                          30630291727
D00000000000                      FG100117              15032018CUOTA                    MMMMATRICULA2480000120000P                                                                          30630291727
D00000000000                      FG100117              15032018CUOTA                    MMMMATRICULA2490000120000P                                                                          30630291727
D00000000000                      FG100117              15032018CUOTA                    MMMMATRICULA2500000120000P                                                                          30630291727
D00000000000                      FG100117              15032018CUOTA                    MMMMATRICULA2510000120000P                                                                          30630291727
D00000000000                      FG100117              15032018CUOTA                    MMMMATRICULA2520000120000P                                                                          30630291727
D00000000000                      FG100117              15032018CUOTA                    MMMMATRICULA2530000120000P                                                                          30630291727
D00000000000                      FG100117              15032018CUOTA                    MMMMATRICULA2540000120000P                                                                          30630291727
D00000000000                      FG100117              15032018CUOTA                    MMMMATRICULA2550000084000P                                                                          30630291727
D00000000000                      FG100117              15032018CUOTA                    MMMMATRICULA2560000084000P                                                                          30630291727
D00000000000                      FG100117              15032018CUOTA                    MMMMATRICULA2570000120000P                                                                          30630291727
D00000000000                      FG100117              15032018CUOTA                    MMMMATRICULA2580000120000P                                                                          30630291727
D00000000000                      FG100117              15032018CUOTA                    MMMMATRICULA2590000120000P                                                                          30630291727
D00000000000                      FG100117              15032018CUOTA                    MMMMATRICULA2600000091000P                                                                          30630291727
D00000000000                      FG100117              15032018CUOTA                    MMMMATRICULA2610000084000P                                                                          30630291727
D00000000000                      FG100117              15032018CUOTA                    MMMMATRICULA2620000084000P                                                                          30630291727
D00000000000                      FG100117              15032018CUOTA                    MMMMATRICULA2630000120000P                                                                          30630291727
D00000000000                      FG100117              15032018CUOTA                    MMMMATRICULA2640000120000P                                                                          30630291727
D00000000000                      FG100117              15032018CUOTA                    MMMMATRICULA2650000120000P                                                                          30630291727
D00000000000                      FG100117              15032018CUOTA                    MMMMATRICULA2660000120000P                                                                          30630291727
D00000000000                      FG100117              15032018CUOTA                    MMMMATRICULA2670000120000P                                                                          30630291727
D00000000000                      FG100117              15032018CUOTA                    MMMMATRICULA2680000120000P                                                                          30630291727
D00000000000                      FG100117              15032018CUOTA                    MMMMATRICULA2690000120000P                                                                          30630291727
D00000000000                      FG100117              15032018CUOTA                    MMMMATRICULA2700000084000P                                                                          30630291727
D00000000000                      FG100117              15032018CUOTA                    MMMMATRICULA2710000120000P                                                                          30630291727
D00000000000                      FG100117              15032018CUOTA                    MMMMATRICULA2720000120000P                                                                          30630291727
D00000000000                      FG100117              15032018CUOTA                    MMMMATRICULA2730000084000P                                                                          30630291727
D00000000000                      FG100117              15032018CUOTA                    MMMMATRICULA2740000120000P                                                                          30630291727
D00000000000                      FG100117              15032018CUOTA                    MMMMATRICULA2750000120000P                                                                          30630291727
D00000000000                      FG100117              15032018CUOTA                    MMMMATRICULA2760000120000P                                                                          30630291727
D00000000000                      FG100117              15032018CUOTA                    MMMMATRICULA2770000120000P                                                                          30630291727
D00000000000                      FG100117              15032018CUOTA                    MMMMATRICULA2780000120000P                                                                          30630291727
D00000000000                      FG100117              15032018CUOTA                    MMMMATRICULA2790000120000P                                                                          30630291727
D00000000000                      FG100117              15032018CUOTA                    MMMMATRICULA2800000084000P                                                                          30630291727
D00000000000                      FG100117              15032018CUOTA                    MMMMATRICULA2810000120000P                                                                          30630291727
D00000000000                      FG100117              15032018CUOTA                    MMMMATRICULA2820000120000P                                                                          30630291727
D00000000000                      FG100117              15032018CUOTA                    MMMMATRICULA2830000120000P                                                                          30630291727
D00000000000                      FG100117              15032018CUOTA                    MMMMATRICULA2840000120000P                                                                          30630291727
D00000000000                      FG100117              15032018CUOTA                    MMMMATRICULA2850000120000P                                                                          30630291727
D00000000000                      FG100117              15032018CUOTA                    MMMMATRICULA2860000084000P                                                                          30630291727
D00000000000                      FG100117              15032018CUOTA                    MMMMATRICULA2870000120000P                                                                          30630291727
D00000000000                      FG100117              15032018CUOTA                    MMMMATRICULA2880000120000P                                                                          30630291727
D00000000000                      FG100117              15032018CUOTA                    MMMMATRICULA2890000120000P                                                                          30630291727
D00000000000                      FG100117              15032018CUOTA                    MMMMATRICULA2900000120000P                                                                          30630291727
D00000000000                      FG100117              15032018CUOTA                    MMMMATRICULA2910000084000P                                                                          30630291727
D00000000000                      FG100117              15032018CUOTA                    MMMMATRICULA2920000120000P                                                                          30630291727
D00000000000                      FG100117              15032018CUOTA                    MMMMATRICULA2930000120000P                                                                          30630291727
D00000000000                      FG100117              15032018CUOTA                    MMMMATRICULA2940000084000P                                                                          30630291727
D00000000000                      FG100117              15032018CUOTA                    MMMMATRICULA2950000120000P                                                                          30630291727
D00000000000                      FG100117              15032018CUOTA                    MMMMATRICULA2960000120000P                                                                          30630291727
D00000000000                      FG100117              15032018CUOTA                    MMMMATRICULA2970000084000P                                                                          30630291727
D00000000000                      FG100117              15032018CUOTA                    MMMMATRICULA2980000120000P                                                                          30630291727
D00000000000                      FG100117              15032018CUOTA                    MMMMATRICULA2990000120000P                                                                          30630291727
D00000000000                      FG100117              15032018CUOTA                    MMMMATRICULA3000000120000P                                                                          30630291727
D00000000000                      FG100117              15032018CUOTA                    MMMMATRICULA3010000084000P                                                                          30630291727
D00000000000                      FG100117              15032018CUOTA                    MMMMATRICULA3020000120000P                                                                          30630291727
D00000000000                      FG100117              15032018CUOTA                    MMMMATRICULA3030000084000P                                                                          30630291727
D00000000000                      FG100117              15032018CUOTA                    MMMMATRICULA3040000084000P                                                                          30630291727
D00000000000                      FG100117              15032018CUOTA                    MMMMATRICULA3050000120000P                                                                          30630291727
D00000000000                      FG100117              15032018CUOTA                    MMMMATRICULA3060000084000P                                                                          30630291727
D00000000000                      FG100117              15032018CUOTA                    MMMMATRICULA3070000084000P                                                                          30630291727
D00000000000                      FG100117              15032018CUOTA                    MMMMATRICULA3080000120000P                                                                          30630291727
D00000000000                      FG100117              15032018CUOTA                    MMMMATRICULA3090000084000P                                                                          30630291727
D00000000000                      FG100117              15032018CUOTA                    MMMMATRICULA3100000120000P                                                                          30630291727
D00000000000                      FG100117              15032018CUOTA                    MMMMATRICULA3110000120000P                                                                          30630291727
D00000000000                      FG100117              15032018CUOTA                    MMMMATRICULA3120000120000P                                                                          30630291727
D00000000000                      FG100117              15032018CUOTA                    MMMMATRICULA3130000120000P                                                                          30630291727
D00000000000                      FG100117              15032018CUOTA                    MMMMATRICULA3140000120000P                                                                          30630291727
D00000000000                      FG100117              15032018CUOTA                    MMMMATRICULA3150000120000P                                                                          30630291727
D00000000000                      FG100117              15032018CUOTA                    MMMMATRICULA3160000120000P                                                                          30630291727
D00000000000                      FG100117              15032018CUOTA                    MMMMATRICULA3170000120000P                                                                          30630291727
D00000000000                      FG100117              15032018CUOTA                    MMMMATRICULA3180000091000P                                                                          30630291727
D00000000000                      FG100117              15032018CUOTA                    MMMMATRICULA3190000120000P                                                                          30630291727
D00000000000                      FG100117              15032018CUOTA                    MMMMATRICULA3200000120000P                                                                          30630291727
D00000000000                      FG100117              15032018CUOTA                    MMMMATRICULA3210000084000P                                                                          30630291727
D00000000000                      FG100117              15032018CUOTA                    MMMMATRICULA3220000120000P                                                                          30630291727
D00000000000                      FG100117              15032018CUOTA                    MMMMATRICULA3230000120000P                                                                          30630291727
D00000000000                      FG100117              15032018CUOTA                    MMMMATRICULA3240000091000P                                                                          30630291727
D00000000000                      FG100117              15032018CUOTA                    MMMMATRICULA3250000120000P                                                                          30630291727
D00000000000                      FG100117              15032018CUOTA                    MMMMATRICULA3260000120000P                                                                          30630291727
D00000000000                      FG100117              15032018CUOTA                    MMMMATRICULA3270000084000P                                                                          30630291727
D00000000000                      FG100117              15032018CUOTA                    MMMMATRICULA3280000120000P                                                                          30630291727
D00000000000                      FG100117              15032018CUOTA                    MMMMATRICULA3290000120000P                                                                          30630291727
D00000000000                      FG100117              15032018CUOTA                    MMMMATRICULA3300000120000P                                                                          30630291727
D00000000000                      FG100117              15032018CUOTA                    MMMMATRICULA3310000084000P                                                                          30630291727
D00000000000                      FG100117              15032018CUOTA                    MMMMATRICULA3320000120000P                                                                          30630291727
D00000000000                      FG100117              15032018CUOTA                    MMMMATRICULA3330000084000P                                                                          30630291727
D00000000000                      FG100117              15032018CUOTA                    MMMMATRICULA3340000120000P                                                                          30630291727
D00000000000                      FG100117              15032018CUOTA                    MMMMATRICULA3350000120000P                                                                          30630291727
D00000000000                      FG100117              15032018CUOTA                    MMMMATRICULA3360000120000P                                                                          30630291727
D00000000000                      FG100117              15032018CUOTA                    MMMMATRICULA3370000048000P                                                                          30630291727
D00000000000                      FG100117              15032018CUOTA                    MMMMATRICULA3380000120000P                                                                          30630291727
D00000000000                      FG100117              15032018CUOTA                    MMMMATRICULA3390000084000P                                                                          30630291727
D00000000000                      FG100117              15032018CUOTA                    MMMMATRICULA3400000120000P                                                                          30630291727
D00000000000                      FG100117              15032018CUOTA                    MMMMATRICULA3410000120000P                                                                          30630291727
D00000000000                      FG100117              15032018CUOTA                    MMMMATRICULA3420000120000P                                                                          30630291727
D00000000000                      FG100117              15032018CUOTA                    MMMMATRICULA3430000120000P                                                                          30630291727
D00000000000                      FG100117              15032018CUOTA                    MMMMATRICULA3440000084000P                                                                          30630291727
D00000000000                      FG100117              15032018CUOTA                    MMMMATRICULA3450000120000P                                                                          30630291727
D00000000000                      FG100117              15032018CUOTA                    MMMMATRICULA3460000120000P                                                                          30630291727
D00000000000                      FG100117              15032018CUOTA                    MMMMATRICULA3470000084000P                                                                          30630291727
D00000000000                      FG100117              15032018CUOTA                    MMMMATRICULA3480000120000P                                                                          30630291727
D00000000000                      FG100117              15032018CUOTA                    MMMMATRICULA3490000120000P                                                                          30630291727
D00000000000                      FG100117              15032018CUOTA                    MMMMATRICULA3500000084000P                                                                          30630291727
D00000000000                      FG100117              15032018CUOTA                    MMMMATRICULA3510000084000P                                                                          30630291727
D00000000000                      FG100117              15032018CUOTA                    MMMMATRICULA3520000012000P                                                                          30630291727
D00000000000                      FG100117              15032018CUOTA                    MMMMATRICULA3530000084000P                                                                          30630291727
D00000000000                      FG100117              15032018CUOTA                    MMMMATRICULA3540000120000P                                                                          30630291727
D00000000000                      FG100117              15032018CUOTA                    MMMMATRICULA3550000120000P                                                                          30630291727
D00000000000                      FG100117              15032018CUOTA                    MMMMATRICULA3560000120000P                                                                          30630291727
D00000000000                      FG100117              15032018CUOTA                    MMMMATRICULA3570000120000P                                                                          30630291727
D00000000000                      FG100117              15032018CUOTA                    MMMMATRICULA3580000084000P                                                                          30630291727
D00000000000                      FG100117              15032018CUOTA                    MMMMATRICULA3590000120000P                                                                          30630291727
D00000000000                      FG100117              15032018CUOTA                    MMMMATRICULA3600000048000P                                                                          30630291727
D00000000000                      FG100117              15032018CUOTA                    MMMMATRICULA3610000120000P                                                                          30630291727
D00000000000                      FG100117              15032018CUOTA                    MMMMATRICULA3620000120000P                                                                          30630291727
D00000000000                      FG100117              15032018CUOTA                    MMMMATRICULA3630000120000P                                                                          30630291727
D00000000000                      FG100117              15032018CUOTA                    MMMMATRICULA3640000120000P                                                                          30630291727
D00000000000                      FG100117              15032018CUOTA                    MMMMATRICULA3650000120000P                                                                          30630291727
D00000000000                      FG100117              15032018CUOTA                    MMMMATRICULA3660000091000P                                                                          30630291727
D00000000000                      FG100117              15032018CUOTA                    MMMMATRICULA3670000120000P                                                                          30630291727
D00000000000                      FG100117              15032018CUOTA                    MMMMATRICULA3680000120000P                                                                          30630291727
D00000000000                      FG100117              15032018CUOTA                    MMMMATRICULA3690000120000P                                                                          30630291727
D00000000000                      FG100117              15032018CUOTA                    MMMMATRICULA3700000120000P                                                                          30630291727
D00000000000                      FG100117              15032018CUOTA                    MMMMATRICULA3710000120000P                                                                          30630291727
D00000000000                      FG100117              15032018CUOTA                    MMMMATRICULA3720000120000P                                                                          30630291727
D00000000000                      FG100117              15032018CUOTA                    MMMMATRICULA3730000048000P                                                                          30630291727
D00000000000                      FG100117              15032018CUOTA                    MMMMATRICULA3740000120000P                                                                          30630291727
D00000000000                      FG100117              15032018CUOTA                    MMMMATRICULA3750000084000P                                                                          30630291727
D00000000000                      FG100117              15032018CUOTA                    MMMMATRICULA3760000120000P                                                                          30630291727
D00000000000                      FG100117              15032018CUOTA                    MMMMATRICULA3770000120000P                                                                          30630291727
D00000000000                      FG100117              15032018CUOTA                    MMMMATRICULA3780000120000P                                                                          30630291727
D00000000000                      FG100117              15032018CUOTA                    MMMMATRICULA3790000120000P                                                                          30630291727
D00000000000                      FG100117              15032018CUOTA                    MMMMATRICULA3800000120000P                                                                          30630291727
D00000000000                      FG100117              15032018CUOTA                    MMMMATRICULA3810000120000P                                                                          30630291727
D00000000000                      FG100117              15032018CUOTA                    MMMMATRICULA3820000120000P                                                                          30630291727
D00000000000                      FG100117              15032018CUOTA                    MMMMATRICULA3830000120000P                                                                          30630291727
T0000383000000041930100                                                                                                                                                                                 
