H30630291727CUOTA     61807022018            COLEGIO VECCHI                                                                                                                                             
D000000000001111555522221111      FG100003              03032018CUOTA                    MMMMMMATRICULA10000095000P                                                                          30630291727
D000000000001111555522221111      FG100004              03032018CUOTA                    MMMMMMATRICULA10000066500P                                                                          30630291727
D000000000001111555522221111      FG100004              03032018CUOTA                    MMMMMMATRICULA20000066500P                                                                          30630291727
D000000000001111555522221111      FG100006              03032018CUOTA                    MMMMMMATRICULA10000095000P                                                                          30630291727
D000000000001111555522221111      FG100008              03032018CUOTA                    MMMMMMATRICULA10000095000P                                                                          30630291727
D000000000001111555522221111      FG100009              03032018CUOTA                    MMMMMMATRICULA10000095000P                                                                          30630291727
D000000000001111555522221111      FG100010              03032018CUOTA                    MMMMMMATRICULA10000066500P                                                                          30630291727
D000000000001111555522221111      FG100011              03032018CUOTA                    MMMMMMATRICULA10000095000P                                                                          30630291727
D000000000001111555522221111      FG100014              03032018CUOTA                    MMMMMMATRICULA10000095000P                                                                          30630291727
D000000000001111555522221111      FG100015              03032018CUOTA                    MMMMMMATRICULA10000100000P                                                                          30630291727
D000000000001111555522221111      FG100015              03032018CUOTA                    MMMMMMATRICULA20000066500P                                                                          30630291727
D000000000001111555522221111      FG100016              03032018CUOTA                    MMMMMMATRICULA10000038000P                                                                          30630291727
D000000000001111555522221111      FG100017              03032018CUOTA                    MMMMMMATRICULA10000095000P                                                                          30630291727
D000000000001111555522221111      FG100019              03032018CUOTA                    MMMMMMATRICULA10000095000P                                                                          30630291727
D000000000001111555522221111      FG100020              03032018CUOTA                    MMMMMMATRICULA10000095000P                                                                          30630291727
D000000000001111555522221111      FG100023              03032018CUOTA                    MMMMMMATRICULA10000095000P                                                                          30630291727
D000000000001111555522221111      FG100028              03032018CUOTA                    MMMMMMATRICULA10000095000P                                                                          30630291727
D000000000001111555522221111      FG100029              03032018CUOTA                    MMMMMMATRICULA10000095000P                                                                          30630291727
D000000000001111555522221111      FG100031              03032018CUOTA                    MMMMMMATRICULA10000095000P                                                                          30630291727
D000000000001111555522221111      FG100033              03032018CUOTA                    MMMMMMATRICULA10000095000P                                                                          30630291727
D000000000001111555522221111      FG100033              03032018CUOTA                    MMMMMMATRICULA20000070000P                                                                          30630291727
D000000000001111555522221111      FG100033              03032018CUOTA                    MMMMMMATRICULA30000066500P                                                                          30630291727
D000000000001111555522221111      FG100034              03032018CUOTA                    MMMMMMATRICULA10000100000P                                                                          30630291727
D000000000001111555522221111      FG100034              03032018CUOTA                    MMMMMMATRICULA20000070000P                                                                          30630291727
D000000000001111555522221111      FG100034              03032018CUOTA                    MMMMMMATRICULA30000066500P                                                                          30630291727
D000000000001111555522221111      FG100035              03032018CUOTA                    MMMMMMATRICULA10000095000P                                                                          30630291727
D000000000001111555522221111      FG100037              03032018CUOTA                    MMMMMMATRICULA10000095000P                                                                          30630291727
D000000000001111555522221111      FG100038              03032018CUOTA                    MMMMMMATRICULA10000095000P                                                                          30630291727
D000000000001111555522221111      FG100039              03032018CUOTA                    MMMMMMATRICULA10000095000P                                                                          30630291727
D000000000001111555522221111      FG100041              03032018CUOTA                    MMMMMMATRICULA10000095000P                                                                          30630291727
D000000000001111555522221111      FG100042              03032018CUOTA                    MMMMMMATRICULA10000095000P                                                                          30630291727
D000000000001111555522221111      FG100045              03032018CUOTA                    MMMMMMATRICULA10000066500P                                                                          30630291727
D000000000001111555522221111      FG100045              03032018CUOTA                    MMMMMMATRICULA20000066500P                                                                          30630291727
D000000000001111555522221111      FG100049              03032018CUOTA                    MMMMMMATRICULA10000100000P                                                                          30630291727
D000000000001111555522221111      FG100049              03032018CUOTA                    MMMMMMATRICULA20000095000P                                                                          30630291727
D000000000001111555522221111      FG100050              03032018CUOTA                    MMMMMMATRICULA10000066500P                                                                          30630291727
D000000000001111555522221111      FG100051              03032018CUOTA                    MMMMMMATRICULA10000070000P                                                                          30630291727
D000000000001111555522221111      FG100051              03032018CUOTA                    MMMMMMATRICULA20000066500P                                                                          30630291727
D000000000001111555522221111      FG100053              03032018CUOTA                    MMMMMMATRICULA10000095000P                                                                          30630291727
D000000000001111555522221111      FG100054              03032018CUOTA                    MMMMMMATRICULA10000095000P                                                                          30630291727
D000000000001111555522221111      FG100055              03032018CUOTA                    MMMMMMATRICULA10000095000P                                                                          30630291727
D000000000001111555522221111      FG100056              03032018CUOTA                    MMMMMMATRICULA10000095000P                                                                          30630291727
D000000000001111555522221111      FG100068              03032018CUOTA                    MMMMMMATRICULA10000070000P                                                                          30630291727
D000000000001111555522221111      FG100068              03032018CUOTA                    MMMMMMATRICULA20000066500P                                                                          30630291727
D000000000001111555522221111      FG100069              03032018CUOTA                    MMMMMMATRICULA10000100000P                                                                          30630291727
D000000000001111555522221111      FG100070              03032018CUOTA                    MMMMMMATRICULA10000095000P                                                                          30630291727
D000000000001111555522221111      FG100081              03032018CUOTA                    MMMMMMATRICULA10000100000P                                                                          30630291727
D000000000001111555522221111      FG100082              03032018CUOTA                    MMMMMMATRICULA10000100000P                                                                          30630291727
D000000000001111555522221111      FG100092              03032018CUOTA                    MMMMMMATRICULA10000100000P                                                                          30630291727
D000000000001111555522221111      FG100105              03032018CUOTA                    MMMMMMATRICULA10000070000P                                                                          30630291727
D000000000001111555522221111      FG100105              03032018CUOTA                    MMMMMMATRICULA20000066500P                                                                          30630291727
D000000000001111555522221111      FG100107              03032018CUOTA                    MMMMMMATRICULA10000100000P                                                                          30630291727
D000000000001111555522221111      FG100107              03032018CUOTA                    MMMMMMATRICULA20000070000P                                                                          30630291727
D000000000001111555522221111      FG100109              03032018CUOTA                    MMMMMMATRICULA10000100000P                                                                          30630291727
D000000000001111555522221111      FG100112              03032018CUOTA                    MMMMMMATRICULA10000100000P                                                                          30630291727
D000000000001111555522221111      FG100114              03032018CUOTA                    MMMMMMATRICULA10000100000P                                                                          30630291727
D000000000001111555522221111      FG100115              03032018CUOTA                    MMMMMMATRICULA10000100000P                                                                          30630291727
D000000000001111555522221111      FG100116              03032018CUOTA                    MMMMMMATRICULA10000100000P                                                                          30630291727
D000000000001111555522221111      FG100117              03032018CUOTA                    MMMMMMATRICULA10000070000P                                                                          30630291727
D000000000001111555522221111      FG100117              03032018CUOTA                    MMMMMMATRICULA20000070000P                                                                          30630291727
D000000000001111555522221111      FG100117              03032018CUOTA                    MMMMMMATRICULA30000070000P                                                                          30630291727
D000000000001111555522221111      FG100117              03032018CUOTA                    MMMMMMATRICULA40000070000P                                                                          30630291727
D000000000001111555522221111      FG100117              03032018CUOTA                    MMMMMMATRICULA50000070000P                                                                          30630291727
D000000000001111555522221111      FG100117              03032018CUOTA                    MMMMMMATRICULA60000100000P                                                                          30630291727
D000000000001111555522221111      FG100118              03032018CUOTA                    MMMMMMATRICULA10000100000P                                                                          30630291727
D000000000001111555522221111      FG100119              03032018CUOTA                    MMMMMMATRICULA10000100000P                                                                          30630291727
D000000000001111555522221111      FG100120              03032018CUOTA                    MMMMMMATRICULA10000100000P                                                                          30630291727
D000000000001111555522221111      FG100121              03032018CUOTA                    MMMMMMATRICULA10000070000P                                                                          30630291727
D000000000001111555522221111      FG100121              03032018CUOTA                    MMMMMMATRICULA20000100000P                                                                          30630291727
D000000000001111555522221111      FG100123              03032018CUOTA                    MMMMMMATRICULA10000100000P                                                                          30630291727
D000000000001111555522221111      FG100124              03032018CUOTA                    MMMMMMATRICULA10000100000P                                                                          30630291727
D000000000001111555522221111      FG100125              03032018CUOTA                    MMMMMMATRICULA10000070000P                                                                          30630291727
D000000000001111555522221111      FG100125              03032018CUOTA                    MMMMMMATRICULA20000066500P                                                                          30630291727
D000000000001111555522221111      FG100125              03032018CUOTA                    MMMMMMATRICULA30000100000P                                                                          30630291727
D000000000001111555522221111      FG100126              03032018CUOTA                    MMMMMMATRICULA10000100000P                                                                          30630291727
D000000000001111555522221111      FG100126              03032018CUOTA                    MMMMMMATRICULA20000070000P                                                                          30630291727
D000000000001111555522221111      FG100126              03032018CUOTA                    MMMMMMATRICULA30000066500P                                                                          30630291727
D000000000001111555522221111      FG100128              03032018CUOTA                    MMMMMMATRICULA10000100000P                                                                          30630291727
D000000000001111555522221111      FG100129              03032018CUOTA                    MMMMMMATRICULA10000070000P                                                                          30630291727
D000000000001111555522221111      FG100129              03032018CUOTA                    MMMMMMATRICULA20000100000P                                                                          30630291727
D000000000001111555522221111      FG100130              03032018CUOTA                    MMMMMMATRICULA10000100000P                                                                          30630291727
D000000000001111555522221111      FG100132              03032018CUOTA                    MMMMMMATRICULA10000070000P                                                                          30630291727
D000000000001111555522221111      FG100132              03032018CUOTA                    MMMMMMATRICULA20000066500P                                                                          30630291727
D000000000001111555522221111      FG100132              03032018CUOTA                    MMMMMMATRICULA30000100000P                                                                          30630291727
D000000000001111555522221111      FG100136              03032018CUOTA                    MMMMMMATRICULA10000100000P                                                                          30630291727
D000000000001111555522221111      FG100137              03032018CUOTA                    MMMMMMATRICULA10000100000P                                                                          30630291727
D000000000001111555522221111      FG100138              03032018CUOTA                    MMMMMMATRICULA10000100000P                                                                          30630291727
D000000000001111555522221111      FG100139              03032018CUOTA                    MMMMMMATRICULA10000100000P                                                                          30630291727
D000000000001111555522221111      FG100141              03032018CUOTA                    MMMMMMATRICULA10000070000P                                                                          30630291727
D000000000001111555522221111      FG100142              03032018CUOTA                    MMMMMMATRICULA10000100000P                                                                          30630291727
D000000000001111555522221111      FG100142              03032018CUOTA                    MMMMMMATRICULA20000066500P                                                                          30630291727
D000000000001111555522221111      FG100143              03032018CUOTA                    MMMMMMATRICULA10000100000P                                                                          30630291727
D000000000001111555522221111      FG100144              03032018CUOTA                    MMMMMMATRICULA10000100000P                                                                          30630291727
D000000000001111555522221111      FG100145              03032018CUOTA                    MMMMMMATRICULA10000100000P                                                                          30630291727
D000000000001111555522221111      FG100146              03032018CUOTA                    MMMMMMATRICULA10000070000P                                                                          30630291727
D000000000001111555522221111      FG100147              03032018CUOTA                    MMMMMMATRICULA10000070000P                                                                          30630291727
D000000000001111555522221111      FG100147              03032018CUOTA                    MMMMMMATRICULA20000100000P                                                                          30630291727
D000000000001111555522221111      FG100148              03032018CUOTA                    MMMMMMATRICULA10000070000P                                                                          30630291727
D000000000001111555522221111      FG100148              03032018CUOTA                    MMMMMMATRICULA20000070000P                                                                          30630291727
D000000000001111555522221111      FG100149              03032018CUOTA                    MMMMMMATRICULA10000100000P                                                                          30630291727
D000000000001111555522221111      FG100150              03032018CUOTA                    MMMMMMATRICULA10000100000P                                                                          30630291727
D000000000001111555522221111      FG100151              03032018CUOTA                    MMMMMMATRICULA10000100000P                                                                          30630291727
D000000000001111555522221111      FG100153              03032018CUOTA                    MMMMMMATRICULA10000100000P                                                                          30630291727
D000000000001111555522221111      FG100157              03032018CUOTA                    MMMMMMATRICULA10000066500P                                                                          30630291727
D000000000001111555522221111      FG100158              03032018CUOTA                    MMMMMMATRICULA10000070000P                                                                          30630291727
D000000000001111555522221111      FG100167              03032018CUOTA                    MMMMMMATRICULA10000070000P                                                                          30630291727
D000000000001111555522221111      FG100168              03032018CUOTA                    MMMMMMATRICULA10000100000P                                                                          30630291727
D000000000001111555522221111      FG100168              03032018CUOTA                    MMMMMMATRICULA20000070000P                                                                          30630291727
D000000000001111555522221111      FG100169              03032018CUOTA                    MMMMMMATRICULA10000040000P                                                                          30630291727
D000000000001111555522221111      FG100169              03032018CUOTA                    MMMMMMATRICULA20000038000P                                                                          30630291727
D000000000001111555522221111      FG100171              03032018CUOTA                    MMMMMMATRICULA10000070000P                                                                          30630291727
D000000000001111555522221111      FG100175              03032018CUOTA                    MMMMMMATRICULA10000040000P                                                                          30630291727
D000000000001111555522221111      FG100175              03032018CUOTA                    MMMMMMATRICULA20000038000P                                                                          30630291727
D000000000001111555522221111      FG100175              03032018CUOTA                    MMMMMMATRICULA30000100000P                                                                          30630291727
D000000000001111555522221111      FG100175              03032018CUOTA                    MMMMMMATRICULA40000070000P                                                                          30630291727
D000000000001111555522221111      FG100175              03032018CUOTA                    MMMMMMATRICULA50000040000P                                                                          30630291727
D000000000001111555522221111      FG100175              03032018CUOTA                    MMMMMMATRICULA60000038000P                                                                          30630291727
D000000000001111555522221111      FG100177              03032018CUOTA                    MMMMMMATRICULA10000100000P                                                                          30630291727
D000000000001111555522221111      FG100177              03032018CUOTA                    MMMMMMATRICULA20000066500P                                                                          30630291727
D000000000001111555522221111      FG100178              03032018CUOTA                    MMMMMMATRICULA10000095000P                                                                          30630291727
D000000000001111555522221111      FG100180              03032018CUOTA                    MMMMMMATRICULA10000095000P                                                                          30630291727
D000000000001111555522221111      FG100183              03032018CUOTA                    MMMMMMATRICULA10000095000P                                                                          30630291727
D000000000001111555522221111      FG100184              03032018CUOTA                    MMMMMMATRICULA10000066500P                                                                          30630291727
D000000000001111555522221111      FG100198              03032018CUOTA                    MMMMMMATRICULA10000100000P                                                                          30630291727
D000000000001111555522221111      FG100201              03032018CUOTA                    MMMMMMATRICULA10000070000P                                                                          30630291727
D000000000001111555522221111      FG100202              03032018CUOTA                    MMMMMMATRICULA10000100000P                                                                          30630291727
D000000000001111555522221111      FG100207              03032018CUOTA                    MMMMMMATRICULA10000070000P                                                                          30630291727
D000000000001111555522221111      FG100208              03032018CUOTA                    MMMMMMATRICULA10000070000P                                                                          30630291727
D000000000001111555522221111      FG100210              03032018CUOTA                    MMMMMMATRICULA10000100000P                                                                          30630291727
D000000000001111555522221111      FG100211              03032018CUOTA                    MMMMMMATRICULA10000070000P                                                                          30630291727
D000000000001111555522221111      FG100215              03032018CUOTA                    MMMMMMATRICULA10000070000P                                                                          30630291727
D000000000001111555522221111      FG100217              03032018CUOTA                    MMMMMMATRICULA10000070000P                                                                          30630291727
D000000000001111555522221111      FG100218              03032018CUOTA                    MMMMMMATRICULA10000100000P                                                                          30630291727
D000000000001111555522221111      FG100230              03032018CUOTA                    MMMMMMATRICULA10000100000P                                                                          30630291727
D000000000001111555522221111      FG100231              03032018CUOTA                    MMMMMMATRICULA10000070000P                                                                          30630291727
D000000000001111555522221111      FG100232              03032018CUOTA                    MMMMMMATRICULA10000070000P                                                                          30630291727
D000000000001111555522221111      FG100235              03032018CUOTA                    MMMMMMATRICULA10000059500P                                                                          30630291727
D000000000001111555522221111      FG100237              03032018CUOTA                    MMMMMMATRICULA10000100000P                                                                          30630291727
D000000000001111555522221111      FG100239              03032018CUOTA                    MMMMMMATRICULA10000070000P                                                                          30630291727
D000000000001111555522221111      FG100239              03032018CUOTA                    MMMMMMATRICULA20000100000P                                                                          30630291727
D000000000001111555522221111      FG100243              03032018CUOTA                    MMMMMMATRICULA10000095000P                                                                          30630291727
D000000000001111555522221111      FG100248              03032018CUOTA                    MMMMMMATRICULA10000095000P                                                                          30630291727
D000000000001111555522221111      FG100253              03032018CUOTA                    MMMMMMATRICULA10000095000P                                                                          30630291727
D000000000001111555522221111      FG100275              03032018CUOTA                    MMMMMMATRICULA10000100000P                                                                          30630291727
D000000000001111555522221111      FG100276              03032018CUOTA                    MMMMMMATRICULA10000100000P                                                                          30630291727
D000000000001111555522221111      FG100277              03032018CUOTA                    MMMMMMATRICULA10000085000P                                                                          30630291727
D000000000001111555522221111      FG100278              03032018CUOTA                    MMMMMMATRICULA10000100000P                                                                          30630291727
D000000000001111555522221111      FG100282              03032018CUOTA                    MMMMMMATRICULA10000070000P                                                                          30630291727
D000000000001111555522221111      FG100282              03032018CUOTA                    MMMMMMATRICULA20000100000P                                                                          30630291727
D000000000001111555522221111      FG100284              03032018CUOTA                    MMMMMMATRICULA10000100000P                                                                          30630291727
D000000000001111555522221111      FG100284              03032018CUOTA                    MMMMMMATRICULA20000070000P                                                                          30630291727
D000000000001111555522221111      FG100285              03032018CUOTA                    MMMMMMATRICULA10000100000P                                                                          30630291727
D000000000001111555522221111      FG100287              03032018CUOTA                    MMMMMMATRICULA10000100000P                                                                          30630291727
D000000000001111555522221111      FG100288              03032018CUOTA                    MMMMMMATRICULA10000100000P                                                                          30630291727
D000000000001111555522221111      FG100289              03032018CUOTA                    MMMMMMATRICULA10000085000P                                                                          30630291727
D000000000001111555522221111      FG100289              03032018CUOTA                    MMMMMMATRICULA20000090000P                                                                          30630291727
D000000000001111555522221111      FG100290              03032018CUOTA                    MMMMMMATRICULA10000070000P                                                                          30630291727
D000000000001111555522221111      FG100290              03032018CUOTA                    MMMMMMATRICULA20000100000P                                                                          30630291727
D000000000001111555522221111      FG100291              03032018CUOTA                    MMMMMMATRICULA10000100000P                                                                          30630291727
D000000000001111555522221111      FG100292              03032018CUOTA                    MMMMMMATRICULA10000100000P                                                                          30630291727
D000000000001111555522221111      FG100293              03032018CUOTA                    MMMMMMATRICULA10000095000P                                                                          30630291727
D000000000001111555522221111      FG100298              03032018CUOTA                    MMMMMMATRICULA10000100000P                                                                          30630291727
D000000000001111555522221111      FG100301              03032018CUOTA                    MMMMMMATRICULA10000059500P                                                                          30630291727
D000000000001111555522221111      FG100301              03032018CUOTA                    MMMMMMATRICULA20000085000P                                                                          30630291727
D000000000001111555522221111      FG100302              03032018CUOTA                    MMMMMMATRICULA10000070000P                                                                          30630291727
D000000000001111555522221111      FG100302              03032018CUOTA                    MMMMMMATRICULA20000066500P                                                                          30630291727
D000000000001111555522221111      FG100302              03032018CUOTA                    MMMMMMATRICULA30000100000P                                                                          30630291727
D000000000001111555522221111      FG100305              03032018CUOTA                    MMMMMMATRICULA10000100000P                                                                          30630291727
D000000000001111555522221111      FG100308              03032018CUOTA                    MMMMMMATRICULA10000095000P                                                                          30630291727
D000000000001111555522221111      FG100308              03032018CUOTA                    MMMMMMATRICULA20000100000P                                                                          30630291727
D000000000001111555522221111      FG100309              03032018CUOTA                    MMMMMMATRICULA10000095000P                                                                          30630291727
D000000000001111555522221111      FG100309              03032018CUOTA                    MMMMMMATRICULA20000100000P                                                                          30630291727
D000000000001111555522221111      FG100312              03032018CUOTA                    MMMMMMATRICULA10000100000P                                                                          30630291727
D000000000001111555522221111      FG100316              03032018CUOTA                    MMMMMMATRICULA10000100000P                                                                          30630291727
D000000000001111555522221111      FG100316              03032018CUOTA                    MMMMMMATRICULA20000066500P                                                                          30630291727
D000000000001111555522221111      FG100317              03032018CUOTA                    MMMMMMATRICULA10000070000P                                                                          30630291727
D000000000001111555522221111      FG100318              03032018CUOTA                    MMMMMMATRICULA10000100000P                                                                          30630291727
D000000000001111555522221111      FG100320              03032018CUOTA                    MMMMMMATRICULA10000070000P                                                                          30630291727
D000000000001111555522221111      FG100320              03032018CUOTA                    MMMMMMATRICULA20000100000P                                                                          30630291727
D000000000001111555522221111      FG100330              03032018CUOTA                    MMMMMMATRICULA10000095000P                                                                          30630291727
D000000000001111555522221111      FG100333              03032018CUOTA                    MMMMMMATRICULA10000095000P                                                                          30630291727
D000000000001111555522221111      FG100335              03032018CUOTA                    MMMMMMATRICULA10000100000P                                                                          30630291727
D000000000001111555522221111      FG100336              03032018CUOTA                    MMMMMMATRICULA10000100000P                                                                          30630291727
D000000000001111555522221111      FG100337              03032018CUOTA                    MMMMMMATRICULA10000100000P                                                                          30630291727
D000000000001111555522221111      FG100338              03032018CUOTA                    MMMMMMATRICULA10000100000P                                                                          30630291727
D000000000001111555522221111      FG100340              03032018CUOTA                    MMMMMMATRICULA10000095000P                                                                          30630291727
D000000000001111555522221111      FG100344              03032018CUOTA                    MMMMMMATRICULA10000095000P                                                                          30630291727
D000000000001111555522221111      FG100346              03032018CUOTA                    MMMMMMATRICULA10000100000P                                                                          30630291727
D000000000001111555522221111      FG100346              03032018CUOTA                    MMMMMMATRICULA20000066500P                                                                          30630291727
D000000000001111555522221111      FG100347              03032018CUOTA                    MMMMMMATRICULA10000095000P                                                                          30630291727
D000000000001111555522221111      FG100349              03032018CUOTA                    MMMMMMATRICULA10000095000P                                                                          30630291727
D000000000001111555522221111      FG100350              03032018CUOTA                    MMMMMMATRICULA10000095000P                                                                          30630291727
D000000000001111555522221111      FG100352              03032018CUOTA                    MMMMMMATRICULA10000066500P                                                                          30630291727
D000000000001111555522221111      FG100353              03032018CUOTA                    MMMMMMATRICULA10000095000P                                                                          30630291727
D000000000001111555522221111      FG100355              03032018CUOTA                    MMMMMMATRICULA10000095000P                                                                          30630291727
D000000000001111555522221111      FG100356              03032018CUOTA                    MMMMMMATRICULA10000090000P                                                                          30630291727
D000000000001111555522221111      FG100360              03032018CUOTA                    MMMMMMATRICULA10000095000P                                                                          30630291727
D000000000001111555522221111      FG100372              03032018CUOTA                    MMMMMMATRICULA10000095000P                                                                          30630291727
D000000000001111555522221111      FG100373              03032018CUOTA                    MMMMMMATRICULA10000100000P                                                                          30630291727
D000000000001111555522221111      FG100373              03032018CUOTA                    MMMMMMATRICULA20000095000P                                                                          30630291727
D000000000001111555522221111      FG100374              03032018CUOTA                    MMMMMMATRICULA10000070000P                                                                          30630291727
D000000000001111555522221111      FG100374              03032018CUOTA                    MMMMMMATRICULA20000066500P                                                                          30630291727
D000000000001111555522221111      FG100375              03032018CUOTA                    MMMMMMATRICULA10000095000P                                                                          30630291727
D000000000001111555522221111      FG100379              03032018CUOTA                    MMMMMMATRICULA10000070000P                                                                          30630291727
D000000000001111555522221111      FG100379              03032018CUOTA                    MMMMMMATRICULA20000066500P                                                                          30630291727
D000000000001111555522221111      FG100381              03032018CUOTA                    MMMMMMATRICULA10000095000P                                                                          30630291727
D000000000001111555522221111      FG100382              03032018CUOTA                    MMMMMMATRICULA10000066500P                                                                          30630291727
D000000000001111555522221111      FG100382              03032018CUOTA                    MMMMMMATRICULA20000100000P                                                                          30630291727
D000000000001111555522221111      FG100384              03032018CUOTA                    MMMMMMATRICULA10000070000P                                                                          30630291727
D000000000001111555522221111      FG100384              03032018CUOTA                    MMMMMMATRICULA20000100000P                                                                          30630291727
D000000000001111555522221111      FG100385              03032018CUOTA                    MMMMMMATRICULA10000066500P                                                                          30630291727
D000000000001111555522221111      FG100386              03032018CUOTA                    MMMMMMATRICULA10000095000P                                                                          30630291727
D000000000001111555522221111      FG100387              03032018CUOTA                    MMMMMMATRICULA10000095000P                                                                          30630291727
D000000000001111555522221111      FG100392              03032018CUOTA                    MMMMMMATRICULA10000095000P                                                                          30630291727
D000000000001111555522221111      FG100393              03032018CUOTA                    MMMMMMATRICULA10000100000P                                                                          30630291727
D000000000001111555522221111      FG100393              03032018CUOTA                    MMMMMMATRICULA20000095000P                                                                          30630291727
D000000000001111555522221111      FG100402              03032018CUOTA                    MMMMMMATRICULA10000040000P                                                                          30630291727
D000000000001111555522221111      FG100402              03032018CUOTA                    MMMMMMATRICULA20000100000P                                                                          30630291727
D000000000001111555522221111      FG100411              03032018CUOTA                    MMMMMMATRICULA10000070000P                                                                          30630291727
D000000000001111555522221111      FG100412              03032018CUOTA                    MMMMMMATRICULA10000070000P                                                                          30630291727
D000000000001111555522221111      FG100412              03032018CUOTA                    MMMMMMATRICULA20000066500P                                                                          30630291727
D000000000001111555522221111      FG100415              03032018CUOTA                    MMMMMMATRICULA10000100000P                                                                          30630291727
D000000000001111555522221111      FG100426              03032018CUOTA                    MMMMMMATRICULA10000070000P                                                                          30630291727
D000000000001111555522221111      FG100426              03032018CUOTA                    MMMMMMATRICULA20000100000P                                                                          30630291727
D000000000001111555522221111      FG100428              03032018CUOTA                    MMMMMMATRICULA10000070000P                                                                          30630291727
D000000000001111555522221111      FG100428              03032018CUOTA                    MMMMMMATRICULA20000100000P                                                                          30630291727
D000000000001111555522221111      FG100430              03032018CUOTA                    MMMMMMATRICULA10000066500P                                                                          30630291727
D000000000001111555522221111      FG100436              03032018CUOTA                    MMMMMMATRICULA10000100000P                                                                          30630291727
D000000000001111555522221111      FG100439              03032018CUOTA                    MMMMMMATRICULA10000100000P                                                                          30630291727
D000000000001111555522221111      FG100440              03032018CUOTA                    MMMMMMATRICULA10000100000P                                                                          30630291727
D000000000001111555522221111      FG100445              03032018CUOTA                    MMMMMMATRICULA10000100000P                                                                          30630291727
D000000000001111555522221111      FG100445              03032018CUOTA                    MMMMMMATRICULA20000095000P                                                                          30630291727
D000000000001111555522221111      FG100448              03032018CUOTA                    MMMMMMATRICULA10000100000P                                                                          30630291727
D000000000001111555522221111      FG100449              03032018CUOTA                    MMMMMMATRICULA10000100000P                                                                          30630291727
D000000000001111555522221111      FG100450              03032018CUOTA                    MMMMMMATRICULA10000100000P                                                                          30630291727
D000000000001111555522221111      FG100451              03032018CUOTA                    MMMMMMATRICULA10000100000P                                                                          30630291727
D000000000001111555522221111      FG100455              03032018CUOTA                    MMMMMMATRICULA10000100000P                                                                          30630291727
D000000000001111555522221111      FG100456              03032018CUOTA                    MMMMMMATRICULA10000100000P                                                                          30630291727
D000000000001111555522221111      FG100458              03032018CUOTA                    MMMMMMATRICULA10000100000P                                                                          30630291727
D000000000001111555522221111      FG100459              03032018CUOTA                    MMMMMMATRICULA10000100000P                                                                          30630291727
D000000000001111555522221111      FG100460              03032018CUOTA                    MMMMMMATRICULA10000100000P                                                                          30630291727
D000000000001111555522221111      FG100461              03032018CUOTA                    MMMMMMATRICULA10000070000P                                                                          30630291727
D000000000001111555522221111      FG100461              03032018CUOTA                    MMMMMMATRICULA20000100000P                                                                          30630291727
D000000000001111555522221111      FG100462              03032018CUOTA                    MMMMMMATRICULA10000100000P                                                                          30630291727
D000000000001111555522221111      FG100463              03032018CUOTA                    MMMMMMATRICULA10000100000P                                                                          30630291727
D000000000001111555522221111      FG100464              03032018CUOTA                    MMMMMMATRICULA10000100000P                                                                          30630291727
D000000000001111555522221111      FG100464              03032018CUOTA                    MMMMMMATRICULA20000066500P                                                                          30630291727
D000000000001111555522221111      FG100467              03032018CUOTA                    MMMMMMATRICULA10000070000P                                                                          30630291727
D000000000001111555522221111      FG100468              03032018CUOTA                    MMMMMMATRICULA10000100000P                                                                          30630291727
D000000000001111555522221111      FG100470              03032018CUOTA                    MMMMMMATRICULA10000100000P                                                                          30630291727
D000000000001111555522221111      FG100471              03032018CUOTA                    MMMMMMATRICULA10000100000P                                                                          30630291727
D000000000001111555522221111      FG100473              03032018CUOTA                    MMMMMMATRICULA10000070000P                                                                          30630291727
D000000000001111555522221111      FG100484              03032018CUOTA                    MMMMMMATRICULA10000066500P                                                                          30630291727
D000000000001111555522221111      FG100485              03032018CUOTA                    MMMMMMATRICULA10000095000P                                                                          30630291727
D000000000001111555522221111      FG100486              03032018CUOTA                    MMMMMMATRICULA10000100000P                                                                          30630291727
D000000000001111555522221111      FG100486              03032018CUOTA                    MMMMMMATRICULA20000070000P                                                                          30630291727
D000000000001111555522221111      FG100487              03032018CUOTA                    MMMMMMATRICULA10000100000P                                                                          30630291727
D000000000001111555522221111      FG100487              03032018CUOTA                    MMMMMMATRICULA20000070000P                                                                          30630291727
D000000000001111555522221111      FG100488              03032018CUOTA                    MMMMMMATRICULA10000100000P                                                                          30630291727
D000000000001111555522221111      FG100489              03032018CUOTA                    MMMMMMATRICULA10000070000P                                                                          30630291727
D000000000001111555522221111      FG100489              03032018CUOTA                    MMMMMMATRICULA20000100000P                                                                          30630291727
D000000000001111555522221111      FG100490              03032018CUOTA                    MMMMMMATRICULA10000070000P                                                                          30630291727
D000000000001111555522221111      FG100490              03032018CUOTA                    MMMMMMATRICULA20000066500P                                                                          30630291727
D000000000001111555522221111      FG100492              03032018CUOTA                    MMMMMMATRICULA10000070000P                                                                          30630291727
D000000000001111555522221111      FG100492              03032018CUOTA                    MMMMMMATRICULA20000100000P                                                                          30630291727
D000000000001111555522221111      FG100494              03032018CUOTA                    MMMMMMATRICULA10000070000P                                                                          30630291727
D000000000001111555522221111      FG100494              03032018CUOTA                    MMMMMMATRICULA20000100000P                                                                          30630291727
D000000000001111555522221111      FG100495              03032018CUOTA                    MMMMMMATRICULA10000100000P                                                                          30630291727
D000000000001111555522221111      FG100495              03032018CUOTA                    MMMMMMATRICULA20000070000P                                                                          30630291727
D000000000001111555522221111      FG100497              03032018CUOTA                    MMMMMMATRICULA10000100000P                                                                          30630291727
D000000000001111555522221111      FG100531              03032018CUOTA                    MMMMMMATRICULA10000100000P                                                                          30630291727
D000000000001111555522221111      FG100535              03032018CUOTA                    MMMMMMATRICULA10000095000P                                                                          30630291727
D000000000001111555522221111      FG100537              03032018CUOTA                    MMMMMMATRICULA10000070000P                                                                          30630291727
D000000000001111555522221111      FG100538              03032018CUOTA                    MMMMMMATRICULA10000100000P                                                                          30630291727
D000000000001111555522221111      FG100538              03032018CUOTA                    MMMMMMATRICULA20000070000P                                                                          30630291727
D000000000001111555522221111      FG100539              03032018CUOTA                    MMMMMMATRICULA10000100000P                                                                          30630291727
D000000000001111555522221111      FG100539              03032018CUOTA                    MMMMMMATRICULA20000095000P                                                                          30630291727
D000000000001111555522221111      FG100540              03032018CUOTA                    MMMMMMATRICULA10000066500P                                                                          30630291727
D000000000001111555522221111      FG100540              03032018CUOTA                    MMMMMMATRICULA20000095000P                                                                          30630291727
D000000000001111555522221111      FG100540              03032018CUOTA                    MMMMMMATRICULA30000070000P                                                                          30630291727
D000000000001111555522221111      FG100542              03032018CUOTA                    MMMMMMATRICULA10000100000P                                                                          30630291727
D000000000001111555522221111      FG100542              03032018CUOTA                    MMMMMMATRICULA20000070000P                                                                          30630291727
D000000000001111555522221111      FG100543              03032018CUOTA                    MMMMMMATRICULA10000100000P                                                                          30630291727
D000000000001111555522221111      FG100544              03032018CUOTA                    MMMMMMATRICULA10000095000P                                                                          30630291727
D000000000001111555522221111      FG100547              03032018CUOTA                    MMMMMMATRICULA10000070000P                                                                          30630291727
D000000000001111555522221111      FG100547              03032018CUOTA                    MMMMMMATRICULA20000100000P                                                                          30630291727
D000000000001111555522221111      FG100551              03032018CUOTA                    MMMMMMATRICULA10000100000P                                                                          30630291727
D000000000001111555522221111      FG100555              03032018CUOTA                    MMMMMMATRICULA10000095000P                                                                          30630291727
D000000000001111555522221111      FG100556              03032018CUOTA                    MMMMMMATRICULA10000100000P                                                                          30630291727
D000000000001111555522221111      FG100557              03032018CUOTA                    MMMMMMATRICULA10000085000P                                                                          30630291727
D000000000001111555522221111      FG100559              03032018CUOTA                    MMMMMMATRICULA10000070000P                                                                          30630291727
D000000000001111555522221111      FG100560              03032018CUOTA                    MMMMMMATRICULA10000095000P                                                                          30630291727
D000000000001111555522221111      FG100564              03032018CUOTA                    MMMMMMATRICULA10000100000P                                                                          30630291727
D000000000001111555522221111      FG100566              03032018CUOTA                    MMMMMMATRICULA10000100000P                                                                          30630291727
D000000000001111555522221111      FG100569              03032018CUOTA                    MMMMMMATRICULA10000100000P                                                                          30630291727
D000000000001111555522221111      FG100574              03032018CUOTA                    MMMMMMATRICULA10000070000P                                                                          30630291727
D000000000001111555522221111      FG100574              03032018CUOTA                    MMMMMMATRICULA20000100000P                                                                          30630291727
D000000000001111555522221111      FG100576              03032018CUOTA                    MMMMMMATRICULA10000085000P                                                                          30630291727
D000000000001111555522221111      FG100578              03032018CUOTA                    MMMMMMATRICULA10000100000P                                                                          30630291727
D000000000001111555522221111      FG100579              03032018CUOTA                    MMMMMMATRICULA10000034000P                                                                          30630291727
D000000000001111555522221111      FG100579              03032018CUOTA                    MMMMMMATRICULA20000036000P                                                                          30630291727
D000000000001111555522221111      FG100579              03032018CUOTA                    MMMMMMATRICULA30000059500P                                                                          30630291727
D000000000001111555522221111      FG100579              03032018CUOTA                    MMMMMMATRICULA40000085000P                                                                          30630291727
D000000000001111555522221111      FG100581              03032018CUOTA                    MMMMMMATRICULA10000100000P                                                                          30630291727
D000000000001111555522221111      FG100603              03032018CUOTA                    MMMMMMATRICULA10000100000P                                                                          30630291727
D000000000001111555522221111      FG100604              03032018CUOTA                    MMMMMMATRICULA10000100000P                                                                          30630291727
D000000000001111555522221111      FG100606              03032018CUOTA                    MMMMMMATRICULA10000100000P                                                                          30630291727
D000000000001111555522221111      FG100608              03032018CUOTA                    MMMMMMATRICULA10000095000P                                                                          30630291727
D000000000001111555522221111      FG100611              03032018CUOTA                    MMMMMMATRICULA10000100000P                                                                          30630291727
D000000000001111555522221111      FG100613              03032018CUOTA                    MMMMMMATRICULA10000095000P                                                                          30630291727
D000000000001111555522221111      FG100614              03032018CUOTA                    MMMMMMATRICULA10000100000P                                                                          30630291727
D000000000001111555522221111      FG100615              03032018CUOTA                    MMMMMMATRICULA10000095000P                                                                          30630291727
D000000000001111555522221111      FG100616              03032018CUOTA                    MMMMMMATRICULA10000095000P                                                                          30630291727
D000000000001111555522221111      FG100620              03032018CUOTA                    MMMMMMATRICULA10000100000P                                                                          30630291727
D000000000001111555522221111      FG100623              03032018CUOTA                    MMMMMMATRICULA10000070000P                                                                          30630291727
D000000000001111555522221111      FG100623              03032018CUOTA                    MMMMMMATRICULA20000066500P                                                                          30630291727
D000000000001111555522221111      FG100623              03032018CUOTA                    MMMMMMATRICULA30000095000P                                                                          30630291727
D000000000001111555522221111      FG100625              03032018CUOTA                    MMMMMMATRICULA10000100000P                                                                          30630291727
D000000000001111555522221111      FG100631              03032018CUOTA                    MMMMMMATRICULA10000070000P                                                                          30630291727
D000000000001111555522221111      FG100631              03032018CUOTA                    MMMMMMATRICULA20000100000P                                                                          30630291727
D000000000001111555522221111      FG100632              03032018CUOTA                    MMMMMMATRICULA10000100000P                                                                          30630291727
D000000000001111555522221111      FG100635              03032018CUOTA                    MMMMMMATRICULA10000095000P                                                                          30630291727
D000000000001111555522221111      FG100636              03032018CUOTA                    MMMMMMATRICULA10000100000P                                                                          30630291727
D000000000001111555522221111      FG100636              03032018CUOTA                    MMMMMMATRICULA20000070000P                                                                          30630291727
D000000000001111555522221111      FG100637              03032018CUOTA                    MMMMMMATRICULA10000100000P                                                                          30630291727
D000000000001111555522221111      FG100642              03032018CUOTA                    MMMMMMATRICULA10000070000P                                                                          30630291727
D000000000001111555522221111      FG100642              03032018CUOTA                    MMMMMMATRICULA20000066500P                                                                          30630291727
D000000000001111555522221111      FG100645              03032018CUOTA                    MMMMMMATRICULA10000100000P                                                                          30630291727
D000000000001111555522221111      FG100660              03032018CUOTA                    MMMMMMATRICULA10000100000P                                                                          30630291727
D000000000001111555522221111      FG100660              03032018CUOTA                    MMMMMMATRICULA20000095000P                                                                          30630291727
D000000000001111555522221111      FG100669              03032018CUOTA                    MMMMMMATRICULA10000100000P                                                                          30630291727
D000000000001111555522221111      FG100669              03032018CUOTA                    MMMMMMATRICULA20000095000P                                                                          30630291727
D000000000001111555522221111      FG100702              03032018CUOTA                    MMMMMMATRICULA10000100000P                                                                          30630291727
D000000000001111555522221111      FG100703              03032018CUOTA                    MMMMMMATRICULA10000100000P                                                                          30630291727
D000000000001111555522221111      FG100704              03032018CUOTA                    MMMMMMATRICULA10000100000P                                                                          30630291727
D000000000001111555522221111      FG100704              03032018CUOTA                    MMMMMMATRICULA20000070000P                                                                          30630291727
D000000000001111555522221111      FG100705              03032018CUOTA                    MMMMMMATRICULA10000070000P                                                                          30630291727
D000000000001111555522221111      FG100705              03032018CUOTA                    MMMMMMATRICULA20000100000P                                                                          30630291727
D000000000001111555522221111      FG100706              03032018CUOTA                    MMMMMMATRICULA10000100000P                                                                          30630291727
D000000000001111555522221111      FG100707              03032018CUOTA                    MMMMMMATRICULA10000100000P                                                                          30630291727
D000000000001111555522221111      FG100708              03032018CUOTA                    MMMMMMATRICULA10000100000P                                                                          30630291727
D000000000001111555522221111      FG100709              03032018CUOTA                    MMMMMMATRICULA10000100000P                                                                          30630291727
D000000000001111555522221111      FG100710              03032018CUOTA                    MMMMMMATRICULA10000100000P                                                                          30630291727
D000000000001111555522221111      FG100711              03032018CUOTA                    MMMMMMATRICULA10000100000P                                                                          30630291727
D000000000001111555522221111      FG100711              03032018CUOTA                    MMMMMMATRICULA20000070000P                                                                          30630291727
D000000000001111555522221111      FG100712              03032018CUOTA                    MMMMMMATRICULA10000100000P                                                                          30630291727
D000000000001111555522221111      FG100713              03032018CUOTA                    MMMMMMATRICULA10000100000P                                                                          30630291727
D000000000001111555522221111      FG100714              03032018CUOTA                    MMMMMMATRICULA10000100000P                                                                          30630291727
D000000000001111555522221111      FG100714              03032018CUOTA                    MMMMMMATRICULA20000040000P                                                                          30630291727
D000000000001111555522221111      FG100714              03032018CUOTA                    MMMMMMATRICULA30000070000P                                                                          30630291727
D000000000001111555522221111      FG100715              03032018CUOTA                    MMMMMMATRICULA10000070000P                                                                          30630291727
D000000000001111555522221111      FG100715              03032018CUOTA                    MMMMMMATRICULA20000100000P                                                                          30630291727
D000000000001111555522221111      FG100716              03032018CUOTA                    MMMMMMATRICULA10000100000P                                                                          30630291727
D000000000001111555522221111      FG100717              03032018CUOTA                    MMMMMMATRICULA10000100000P                                                                          30630291727
D000000000001111555522221111      FG100717              03032018CUOTA                    MMMMMMATRICULA20000070000P                                                                          30630291727
D000000000001111555522221111      FG100718              03032018CUOTA                    MMMMMMATRICULA10000100000P                                                                          30630291727
D000000000001111555522221111      FG100719              03032018CUOTA                    MMMMMMATRICULA10000070000P                                                                          30630291727
D000000000001111555522221111      FG100719              03032018CUOTA                    MMMMMMATRICULA20000100000P                                                                          30630291727
D000000000001111555522221111      FG100720              03032018CUOTA                    MMMMMMATRICULA10000100000P                                                                          30630291727
D000000000001111555522221111      FG100721              03032018CUOTA                    MMMMMMATRICULA10000070000P                                                                          30630291727
D000000000001111555522221111      FG100721              03032018CUOTA                    MMMMMMATRICULA20000100000P                                                                          30630291727
D000000000001111555522221111      FG100722              03032018CUOTA                    MMMMMMATRICULA10000100000P                                                                          30630291727
D000000000001111555522221111      FG100722              03032018CUOTA                    MMMMMMATRICULA20000070000P                                                                          30630291727
D000000000001111555522221111      FG100723              03032018CUOTA                    MMMMMMATRICULA10000100000P                                                                          30630291727
D000000000001111555522221111      FG100724              03032018CUOTA                    MMMMMMATRICULA10000100000P                                                                          30630291727
D000000000001111555522221111      FG100725              03032018CUOTA                    MMMMMMATRICULA10000100000P                                                                          30630291727
D000000000001111555522221111      FG100725              03032018CUOTA                    MMMMMMATRICULA20000070000P                                                                          30630291727
D000000000001111555522221111      FG100726              03032018CUOTA                    MMMMMMATRICULA10000100000P                                                                          30630291727
D000000000001111555522221111      FG100727              03032018CUOTA                    MMMMMMATRICULA10000100000P                                                                          30630291727
D000000000001111555522221111      FG100727              03032018CUOTA                    MMMMMMATRICULA20000070000P                                                                          30630291727
D000000000001111555522221111      FG100728              03032018CUOTA                    MMMMMMATRICULA10000100000P                                                                          30630291727
D000000000001111555522221111      FG100729              03032018CUOTA                    MMMMMMATRICULA10000100000P                                                                          30630291727
D000000000001111555522221111      FG100731              03032018CUOTA                    MMMMMMATRICULA10000100000P                                                                          30630291727
D000000000001111555522221111      FG100732              03032018CUOTA                    MMMMMMATRICULA10000095000P                                                                          30630291727
D000000000001111555522221111      FG100734              03032018CUOTA                    MMMMMMATRICULA10000095000P                                                                          30630291727
D000000000001111555522221111      FG100735              03032018CUOTA                    MMMMMMATRICULA10000070000P                                                                          30630291727
D000000000001111555522221111      FG100735              03032018CUOTA                    MMMMMMATRICULA20000066500P                                                                          30630291727
D000000000001111555522221111      FG100737              03032018CUOTA                    MMMMMMATRICULA10000095000P                                                                          30630291727
D000000000001111555522221111      FG100739              03032018CUOTA                    MMMMMMATRICULA10000095000P                                                                          30630291727
D000000000001111555522221111      FG100743              03032018CUOTA                    MMMMMMATRICULA10000095000P                                                                          30630291727
D000000000001111555522221111      FG100745              03032018CUOTA                    MMMMMMATRICULA10000095000P                                                                          30630291727
D000000000001111555522221111      FG100747              03032018CUOTA                    MMMMMMATRICULA10000100000P                                                                          30630291727
D000000000001111555522221111      FG100747              03032018CUOTA                    MMMMMMATRICULA20000095000P                                                                          30630291727
D000000000001111555522221111      FG100748              03032018CUOTA                    MMMMMMATRICULA10000100000P                                                                          30630291727
D000000000001111555522221111      FG100748              03032018CUOTA                    MMMMMMATRICULA20000095000P                                                                          30630291727
D000000000001111555522221111      FG100749              03032018CUOTA                    MMMMMMATRICULA10000095000P                                                                          30630291727
D000000000001111555522221111      FG100749              03032018CUOTA                    MMMMMMATRICULA20000100000P                                                                          30630291727
D000000000001111555522221111      FG100750              03032018CUOTA                    MMMMMMATRICULA10000100000P                                                                          30630291727
D000000000001111555522221111      FG100750              03032018CUOTA                    MMMMMMATRICULA20000095000P                                                                          30630291727
D000000000001111555522221111      FG100751              03032018CUOTA                    MMMMMMATRICULA10000059500P                                                                          30630291727
D000000000001111555522221111      FG100751              03032018CUOTA                    MMMMMMATRICULA20000063000P                                                                          30630291727
D000000000001111555522221111      FG100751              03032018CUOTA                    MMMMMMATRICULA30000085000P                                                                          30630291727
D000000000001111555522221111      FG100752              03032018CUOTA                    MMMMMMATRICULA10000100000P                                                                          30630291727
D000000000001111555522221111      FG100752              03032018CUOTA                    MMMMMMATRICULA20000095000P                                                                          30630291727
D000000000001111555522221111      FG100753              03032018CUOTA                    MMMMMMATRICULA10000100000P                                                                          30630291727
D000000000001111555522221111      FG100753              03032018CUOTA                    MMMMMMATRICULA20000095000P                                                                          30630291727
D000000000001111555522221111      FG100754              03032018CUOTA                    MMMMMMATRICULA10000100000P                                                                          30630291727
D000000000001111555522221111      FG100754              03032018CUOTA                    MMMMMMATRICULA20000095000P                                                                          30630291727
D000000000001111555522221111      FG100755              03032018CUOTA                    MMMMMMATRICULA10000100000P                                                                          30630291727
D000000000001111555522221111      FG100755              03032018CUOTA                    MMMMMMATRICULA20000095000P                                                                          30630291727
D000000000001111555522221111      FG100756              03032018CUOTA                    MMMMMMATRICULA10000100000P                                                                          30630291727
D000000000001111555522221111      FG100756              03032018CUOTA                    MMMMMMATRICULA20000095000P                                                                          30630291727
D000000000001111555522221111      FG100757              03032018CUOTA                    MMMMMMATRICULA10000100000P                                                                          30630291727
D000000000001111555522221111      FG100757              03032018CUOTA                    MMMMMMATRICULA20000095000P                                                                          30630291727
D000000000001111555522221111      FG100758              03032018CUOTA                    MMMMMMATRICULA10000100000P                                                                          30630291727
D000000000001111555522221111      FG100758              03032018CUOTA                    MMMMMMATRICULA20000095000P                                                                          30630291727
D000000000001111555522221111      FG100759              03032018CUOTA                    MMMMMMATRICULA10000100000P                                                                          30630291727
D000000000001111555522221111      FG100759              03032018CUOTA                    MMMMMMATRICULA20000095000P                                                                          30630291727
D000000000001111555522221111      FG100760              03032018CUOTA                    MMMMMMATRICULA10000100000P                                                                          30630291727
D000000000001111555522221111      FG100760              03032018CUOTA                    MMMMMMATRICULA20000070000P                                                                          30630291727
D000000000001111555522221111      FG100760              03032018CUOTA                    MMMMMMATRICULA30000066500P                                                                          30630291727
D000000000001111555522221111      FG100761              03032018CUOTA                    MMMMMMATRICULA10000100000P                                                                          30630291727
D000000000001111555522221111      FG100761              03032018CUOTA                    MMMMMMATRICULA20000095000P                                                                          30630291727
D000000000001111555522221111      FG100762              03032018CUOTA                    MMMMMMATRICULA10000095000P                                                                          30630291727
D000000000001111555522221111      FG100762              03032018CUOTA                    MMMMMMATRICULA20000100000P                                                                          30630291727
D000000000001111555522221111      FG100763              03032018CUOTA                    MMMMMMATRICULA10000095000P                                                                          30630291727
D000000000001111555522221111      FG100763              03032018CUOTA                    MMMMMMATRICULA20000100000P                                                                          30630291727
D000000000001111555522221111      FG100764              03032018CUOTA                    MMMMMMATRICULA10000100000P                                                                          30630291727
D000000000001111555522221111      FG100764              03032018CUOTA                    MMMMMMATRICULA20000095000P                                                                          30630291727
D000000000001111555522221111      FG100765              03032018CUOTA                    MMMMMMATRICULA10000100000P                                                                          30630291727
D000000000001111555522221111      FG100765              03032018CUOTA                    MMMMMMATRICULA20000095000P                                                                          30630291727
D000000000001111555522221111      FG100766              03032018CUOTA                    MMMMMMATRICULA10000100000P                                                                          30630291727
D000000000001111555522221111      FG100766              03032018CUOTA                    MMMMMMATRICULA20000095000P                                                                          30630291727
D000000000001111555522221111      FG100767              03032018CUOTA                    MMMMMMATRICULA10000100000P                                                                          30630291727
D000000000001111555522221111      FG100767              03032018CUOTA                    MMMMMMATRICULA20000095000P                                                                          30630291727
D000000000001111555522221111      FG100768              03032018CUOTA                    MMMMMMATRICULA10000100000P                                                                          30630291727
D000000000001111555522221111      FG100768              03032018CUOTA                    MMMMMMATRICULA20000095000P                                                                          30630291727
D000000000001111555522221111      FG100769              03032018CUOTA                    MMMMMMATRICULA10000100000P                                                                          30630291727
D000000000001111555522221111      FG100769              03032018CUOTA                    MMMMMMATRICULA20000095000P                                                                          30630291727
D000000000001111555522221111      FG100770              03032018CUOTA                    MMMMMMATRICULA10000100000P                                                                          30630291727
D000000000001111555522221111      FG100770              03032018CUOTA                    MMMMMMATRICULA20000095000P                                                                          30630291727
D000000000001111555522221111      FG100771              03032018CUOTA                    MMMMMMATRICULA10000100000P                                                                          30630291727
D000000000001111555522221111      FG100771              03032018CUOTA                    MMMMMMATRICULA20000095000P                                                                          30630291727
D000000000001111555522221111      FG100772              03032018CUOTA                    MMMMMMATRICULA10000100000P                                                                          30630291727
D000000000001111555522221111      FG100772              03032018CUOTA                    MMMMMMATRICULA20000095000P                                                                          30630291727
D000000000001111555522221111      FG100773              03032018CUOTA                    MMMMMMATRICULA10000100000P                                                                          30630291727
D000000000001111555522221111      FG100773              03032018CUOTA                    MMMMMMATRICULA20000095000P                                                                          30630291727
D000000000001111555522221111      FG100774              03032018CUOTA                    MMMMMMATRICULA10000100000P                                                                          30630291727
D000000000001111555522221111      FG100774              03032018CUOTA                    MMMMMMATRICULA20000095000P                                                                          30630291727
D000000000001111555522221111      FG100775              03032018CUOTA                    MMMMMMATRICULA10000100000P                                                                          30630291727
D000000000001111555522221111      FG100776              03032018CUOTA                    MMMMMMATRICULA10000100000P                                                                          30630291727
D000000000001111555522221111      FG100776              03032018CUOTA                    MMMMMMATRICULA20000070000P                                                                          30630291727
D000000000001111555522221111      FG100777              03032018CUOTA                    MMMMMMATRICULA10000100000P                                                                          30630291727
D000000000001111555522221111      FG100778              03032018CUOTA                    MMMMMMATRICULA10000100000P                                                                          30630291727
D000000000001111555522221111      FG100779              03032018CUOTA                    MMMMMMATRICULA10000100000P                                                                          30630291727
D000000000001111555522221111      FG100780              03032018CUOTA                    MMMMMMATRICULA10000100000P                                                                          30630291727
D000000000001111555522221111      FG100782              03032018CUOTA                    MMMMMMATRICULA10000070000P                                                                          30630291727
D000000000001111555522221111      FG100783              03032018CUOTA                    MMMMMMATRICULA10000070000P                                                                          30630291727
D000000000001111555522221111      FG100784              03032018CUOTA                    MMMMMMATRICULA10000100000P                                                                          30630291727
D000000000001111555522221111      FG100787              03032018CUOTA                    MMMMMMATRICULA10000100000P                                                                          30630291727
D000000000001111555522221111      FG100789              03032018CUOTA                    MMMMMMATRICULA10000100000P                                                                          30630291727
D000000000001111555522221111      FG100790              03032018CUOTA                    MMMMMMATRICULA10000085000P                                                                          30630291727
D000000000001111555522221111      FG100791              03032018CUOTA                    MMMMMMATRICULA10000100000P                                                                          30630291727
D000000000001111555522221111      FG100792              03032018CUOTA                    MMMMMMATRICULA10000100000P                                                                          30630291727
D000000000001111555522221111      FG100792              03032018CUOTA                    MMMMMMATRICULA20000095000P                                                                          30630291727
D000000000001111555522221111      FG100794              03032018CUOTA                    MMMMMMATRICULA10000100000P                                                                          30630291727
D000000000001111555522221111      FG100798              03032018CUOTA                    MMMMMMATRICULA10000100000P                                                                          30630291727
D000000000001111555522221111      FG100799              03032018CUOTA                    MMMMMMATRICULA10000100000P                                                                          30630291727
D000000000001111555522221111      FG100802              03032018CUOTA                    MMMMMMATRICULA10000100000P                                                                          30630291727
D000000000001111555522221111      FG100805              03032018CUOTA                    MMMMMMATRICULA10000095000P                                                                          30630291727
D000000000001111555522221111      FG100805              03032018CUOTA                    MMMMMMATRICULA20000100000P                                                                          30630291727
D000000000001111555522221111      FG100807              03032018CUOTA                    MMMMMMATRICULA10000100000P                                                                          30630291727
D000000000001111555522221111      FG100808              03032018CUOTA                    MMMMMMATRICULA10000100000P                                                                          30630291727
D000000000001111555522221111      FG100813              03032018CUOTA                    MMMMMMATRICULA10000095000P                                                                          30630291727
D000000000001111555522221111      FG100813              03032018CUOTA                    MMMMMMATRICULA20000100000P                                                                          30630291727
D000000000001111555522221111      FG100817              03032018CUOTA                    MMMMMMATRICULA10000095000P                                                                          30630291727
D000000000001111555522221111      FG100821              03032018CUOTA                    MMMMMMATRICULA10000100000P                                                                          30630291727
D000000000001111555522221111      FG100823              03032018CUOTA                    MMMMMMATRICULA10000100000P                                                                          30630291727
D000000000001111555522221111      FG100826              03032018CUOTA                    MMMMMMATRICULA10000100000P                                                                          30630291727
D000000000001111555522221111      FG100827              03032018CUOTA                    MMMMMMATRICULA10000100000P                                                                          30630291727
D000000000001111555522221111      FG100828              03032018CUOTA                    MMMMMMATRICULA10000070000P                                                                          30630291727
D000000000001111555522221111      FG100828              03032018CUOTA                    MMMMMMATRICULA20000100000P                                                                          30630291727
D000000000001111555522221111      FG100829              03032018CUOTA                    MMMMMMATRICULA10000100000P                                                                          30630291727
D000000000001111555522221111      FG100838              03032018CUOTA                    MMMMMMATRICULA10000085000P                                                                          30630291727
T0000474000000042023500                                                                                                                                                                                 
