H30630291727CUOTA     61820062017            COLEGIO                                                                                                                                                    
D000000000004508320012783693FG100001              20170607CUOTA                    MATRICULA1     0000105000P                                                                          30630291727
D000000000004508320016993769FG100003              20170607CUOTA                    MATRICULA1     0000105000P                                                                          30630291727
D000000000004508320013194676FG100004              20170607CUOTA                    MATRICULA1     0000105000P                                                                          30630291727
D000000000004508320013194676FG100004              20170607CUOTA                    MATRICULA2     0000105000P                                                                          30630291727
D000000000004508328001088487FG100005              20170607CUOTA                    MATRICULA1     0000105000P                                                                          30630291727
D000000000004508320007625677FG100006              20170607CUOTA                    MATRICULA1     0000105000P                                                                          30630291727
D000000000004508328000545297FG100007              20170607CUOTA                    MATRICULA1     0000091000P                                                                          30630291727
D000000000004508328000545297FG100007              20170607CUOTA                    MATRICULA2     0000105000P                                                                          30630291727
D000000000004508320009989089FG100008              20170607CUOTA                    MATRICULA1     0000105000P                                                                          30630291727
D000000000004697010000118041FG100010              20170607CUOTA                    MATRICULA1     0000091000P                                                                          30630291727
D000000000004697010000118041FG100010              20170607CUOTA                    MATRICULA2     0000105000P                                                                          30630291727
D000000000004509948000326783FG100011              20170607CUOTA                    MATRICULA1     0000105000P                                                                          30630291727
D000000000004508320004067642FG100014              20170607CUOTA                    MATRICULA1     0000105000P                                                                          30630291727
D000000000004508320010436104FG100016              20170607CUOTA                    MATRICULA1     0000091000P                                                                          30630291727
D000000000004508320010436104FG100016              20170607CUOTA                    MATRICULA2     0000105000P                                                                          30630291727
D000000000004508320010436104FG100016              20170607CUOTA                    MATRICULA3     0000105000P                                                                          30630291727
D000000000004984350002814003FG100018              20170607CUOTA                    MATRICULA1     0000105000P                                                                          30630291727
D000000000004508320010405836FG100020              20170607CUOTA                    MATRICULA1     0000105000P                                                                          30630291727
D000000000004509940003118606FG100021              20170607CUOTA                    MATRICULA1     0000091000P                                                                          30630291727
D000000000004509940003118606FG100021              20170607CUOTA                    MATRICULA2     0000105000P                                                                          30630291727
D000000000004509940001979579FG100022              20170607CUOTA                    MATRICULA1     0000105000P                                                                          30630291727
D000000000004508320005670303FG100023              20170607CUOTA                    MATRICULA1     0000105000P                                                                          30630291727
D000000000004508320011239028FG100024              20170607CUOTA                    MATRICULA1     0000105000P                                                                          30630291727
D000000000004508320011239028FG100024              20170607CUOTA                    MATRICULA2     0000105000P                                                                          30630291727
D000000000004508320003992410FG100028              20170607CUOTA                    MATRICULA1     0000105000P                                                                          30630291727
D000000000004697010000027770FG100030              20170607CUOTA                    MATRICULA1     0000105000P                                                                          30630291727
D000000000004509940003606279FG100031              20170607CUOTA                    MATRICULA1     0000105000P                                                                          30630291727
D000000000004508320009195430FG100032              20170607CUOTA                    MATRICULA1     0000105000P                                                                          30630291727
D000000000004508320016350226FG100037              20170607CUOTA                    MATRICULA1     0000105000P                                                                          30630291727
D000000000004508328000834378FG100040              20170607CUOTA                    MATRICULA1     0000105000P                                                                          30630291727
D000000000004509940003847444FG100041              20170607CUOTA                    MATRICULA1     0000105000P                                                                          30630291727
D000000000004508320016993751FG100043              20170607CUOTA                    MATRICULA1     0000105000P                                                                          30630291727
D000000000004508338000552771FG100044              20170607CUOTA                    MATRICULA1     0000105000P                                                                          30630291727
D000000000004697010000409044FG100045              20170607CUOTA                    MATRICULA1     0000105000P                                                                          30630291727
D000000000004697010000409044FG100045              20170607CUOTA                    MATRICULA2     0000105000P                                                                          30630291727
D000000000004697010000330612FG100046              20170607CUOTA                    MATRICULA1     0000091000P                                                                          30630291727
D000000000004508328000493506FG100048              20170607CUOTA                    MATRICULA1     0000105000P                                                                          30630291727
D000000000004508328000493506FG100048              20170607CUOTA                    MATRICULA2     0000105000P                                                                          30630291727
D000000000004508320008027782FG100050              20170607CUOTA                    MATRICULA1     0000105000P                                                                          30630291727
D000000000004508320008027782FG100050              20170607CUOTA                    MATRICULA2     0000105000P                                                                          30630291727
D000000000004509940004264169FG100051              20170607CUOTA                    MATRICULA1     0000105000P                                                                          30630291727
D000000000004509940004264169FG100051              20170607CUOTA                    MATRICULA2     0000105000P                                                                          30630291727
D000000000004508328000993588FG100055              20170607CUOTA                    MATRICULA1     0000105000P                                                                          30630291727
D000000000004509940004367939FG100056              20170607CUOTA                    MATRICULA1     0000105000P                                                                          30630291727
D000000000004508320010490754FG100062              20170607CUOTA                    MATRICULA1     0000105000P                                                                          30630291727
D000000000004508320008971682FG100065              20170607CUOTA                    MATRICULA1     0000105000P                                                                          30630291727
D000000000004697010000404201FG100069              20170607CUOTA                    MATRICULA1     0000091000P                                                                          30630291727
D000000000004509940003234098FG100070              20170607CUOTA                    MATRICULA1     0000105000P                                                                          30630291727
D000000000004508320005983094FG100071              20170607CUOTA                    MATRICULA1     0000105000P                                                                          30630291727
D000000000004508320005983094FG100071              20170607CUOTA                    MATRICULA2     0000105000P                                                                          30630291727
D000000000004509940003201667FG100075              20170607CUOTA                    MATRICULA1     0000105000P                                                                          30630291727
D000000000004509940003696486FG100077              20170607CUOTA                    MATRICULA1     0000105000P                                                                          30630291727
D000000000004508320008648082FG100078              20170607CUOTA                    MATRICULA1     0000105000P                                                                          30630291727
D000000000004508320015488605FG100079              20170607CUOTA                    MATRICULA1     0000105000P                                                                          30630291727
D000000000004508320015488605FG100079              20170607CUOTA                    MATRICULA2     0000105000P                                                                          30630291727
D000000000005305745792666969FG100080              20170607CUOTA                    MATRICULA1     0000105000P                                                                          30630291727
D000000000004660570012526286FG100082              20170607CUOTA                    MATRICULA1     0000105000P                                                                          30630291727
D000000000004660570012526286FG100082              20170607CUOTA                    MATRICULA2     0000091000P                                                                          30630291727
D000000000004697010000653211FG100085              20170607CUOTA                    MATRICULA1     0000105000P                                                                          30630291727
D000000000004508320015466239FG100086              20170607CUOTA                    MATRICULA1     0000105000P                                                                          30630291727
D000000000004508320010907633FG100088              20170607CUOTA                    MATRICULA1     0000105000P                                                                          30630291727
D000000000004509940002936974FG100090              20170607CUOTA                    MATRICULA1     0000105000P                                                                          30630291727
D000000000004508320009942815FG100091              20170607CUOTA                    MATRICULA1     0000105000P                                                                          30630291727
D000000000004509940004609181FG100093              20170607CUOTA                    MATRICULA1     0000105000P                                                                          30630291727
D000000000004697018000001729FG100094              20170607CUOTA                    MATRICULA1     0000105000P                                                                          30630291727
D000000000004697010000162601FG100101              20170607CUOTA                    MATRICULA1     0000105000P                                                                          30630291727
D000000000004509940003538621FG100102              20170607CUOTA                    MATRICULA1     0000105000P                                                                          30630291727
D000000000004508320010238138FG100104              20170607CUOTA                    MATRICULA1     0000105000P                                                                          30630291727
D000000000004697010000497452FG100105              20170607CUOTA                    MATRICULA1     0000105000P                                                                          30630291727
D000000000004697010000497452FG100105              20170607CUOTA                    MATRICULA2     0000105000P                                                                          30630291727
D000000000004508320009066797FG100106              20170607CUOTA                    MATRICULA1     0000105000P                                                                          30630291727
D000000000004509940004367814FG100107              20170607CUOTA                    MATRICULA1     0000091000P                                                                          30630291727
D000000000004509940004367814FG100107              20170607CUOTA                    MATRICULA2     0000091000P                                                                          30630291727
D000000000004508320016993959FG100109              20170607CUOTA                    MATRICULA1     0000091000P                                                                          30630291727
D000000000004508320016993959FG100109              20170607CUOTA                    MATRICULA2     0000105000P                                                                          30630291727
D000000000004508320008971625FG100112              20170607CUOTA                    MATRICULA1     0000091000P                                                                          30630291727
D000000000004508330005962212FG100116              20170607CUOTA                    MATRICULA1     0000091000P                                                                          30630291727
D000000000004509940003895831FG100117              20170607CUOTA                    MATRICULA1     0000091000P                                                                          30630291727
D000000000004508320009077679FG100118              20170607CUOTA                    MATRICULA1     0000091000P                                                                          30630291727
D000000000004508320010800531FG100119              20170607CUOTA                    MATRICULA1     0000091000P                                                                          30630291727
D000000000004508328000965032FG100120              20170607CUOTA                    MATRICULA1     0000091000P                                                                          30630291727
D000000000004508320009226037FG100121              20170607CUOTA                    MATRICULA1     0000091000P                                                                          30630291727
D000000000004508320009226037FG100121              20170607CUOTA                    MATRICULA2     0000091000P                                                                          30630291727
D000000000004508320016993611FG100123              20170607CUOTA                    MATRICULA1     0000091000P                                                                          30630291727
D000000000004508320009106148FG100124              20170607CUOTA                    MATRICULA1     0000091000P                                                                          30630291727
D000000000004304970012397419FG100129              20170607CUOTA                    MATRICULA1     0000091000P                                                                          30630291727
D000000000004304970012397419FG100129              20170607CUOTA                    MATRICULA2     0000091000P                                                                          30630291727
D000000000004509940002541576FG100130              20170607CUOTA                    MATRICULA1     0000091000P                                                                          30630291727
D000000000004508320011199289FG100132              20170607CUOTA                    MATRICULA1     0000105000P                                                                          30630291727
D000000000004508320011199289FG100132              20170607CUOTA                    MATRICULA2     0000091000P                                                                          30630291727
D000000000004508328001087109FG100133              20170607CUOTA                    MATRICULA1     0000105000P                                                                          30630291727
D000000000004508320015861918FG100134              20170607CUOTA                    MATRICULA1     0000105000P                                                                          30630291727
D000000000004697010000415686FG100136              20170607CUOTA                    MATRICULA1     0000105000P                                                                          30630291727
D000000000004697010000415686FG100136              20170607CUOTA                    MATRICULA2     0000091000P                                                                          30630291727
D000000000004508320017034332FG100137              20170607CUOTA                    MATRICULA1     0000091000P                                                                          30630291727
D000000000004509940002903768FG100138              20170607CUOTA                    MATRICULA1     0000091000P                                                                          30630291727
D000000000004508320015452130FG100143              20170607CUOTA                    MATRICULA1     0000091000P                                                                          30630291727
D000000000004508320017009532FG100145              20170607CUOTA                    MATRICULA1     0000091000P                                                                          30630291727
D000000000004509940003535718FG100146              20170607CUOTA                    MATRICULA1     0000091000P                                                                          30630291727
D000000000004509940003535718FG100146              20170607CUOTA                    MATRICULA2     0000091000P                                                                          30630291727
D000000000004555990015231650FG100147              20170607CUOTA                    MATRICULA1     0000091000P                                                                          30630291727
D000000000004555990015231650FG100147              20170607CUOTA                    MATRICULA2     0000091000P                                                                          30630291727
D000000000004555990015231650FG100147              20170607CUOTA                    MATRICULA3     0000091000P                                                                          30630291727
D000000000004555990000783400FG100148              20170607CUOTA                    MATRICULA1     0000091000P                                                                          30630291727
D000000000004555990000783400FG100148              20170607CUOTA                    MATRICULA2     0000091000P                                                                          30630291727
D000000000004508338000656911FG100149              20170607CUOTA                    MATRICULA1     0000091000P                                                                          30630291727
D000000000004508320011135721FG100150              20170607CUOTA                    MATRICULA1     0000091000P                                                                          30630291727
D000000000004509940004311226FG100151              20170607CUOTA                    MATRICULA1     0000091000P                                                                          30630291727
D000000000004508320014934872FG100153              20170607CUOTA                    MATRICULA1     0000091000P                                                                          30630291727
D000000000004508320014934872FG100153              20170607CUOTA                    MATRICULA2     0000091000P                                                                          30630291727
D000000000004508320009925638FG100155              20170607CUOTA                    MATRICULA1     0000091000P                                                                          30630291727
D000000000004050710068279038FG100160              20170607CUOTA                    MATRICULA1     0000091000P                                                                          30630291727
D000000000004509940004017765FG100161              20170607CUOTA                    MATRICULA1     0000091000P                                                                          30630291727
D000000000004508320014964416FG100163              20170607CUOTA                    MATRICULA1     0000091000P                                                                          30630291727
D000000000004508320014964416FG100163              20170607CUOTA                    MATRICULA2     0000091000P                                                                          30630291727
D000000000004508320017009540FG100164              20170607CUOTA                    MATRICULA1     0000091000P                                                                          30630291727
D000000000004508330005885686FG100166              20170607CUOTA                    MATRICULA1     0000091000P                                                                          30630291727
D000000000004508330005885686FG100166              20170607CUOTA                    MATRICULA2     0000091000P                                                                          30630291727
D000000000004509940004373143FG100167              20170607CUOTA                    MATRICULA1     0000091000P                                                                          30630291727
D000000000004509940004373143FG100167              20170607CUOTA                    MATRICULA2     0000091000P                                                                          30630291727
D000000000004508320012752284FG100168              20170607CUOTA                    MATRICULA1     0000091000P                                                                          30630291727
D000000000004508320012752284FG100168              20170607CUOTA                    MATRICULA2     0000091000P                                                                          30630291727
D000000000004508320012752284FG100168              20170607CUOTA                    MATRICULA3     0000091000P                                                                          30630291727
D000000000004509940004857913FG100169              20170607CUOTA                    MATRICULA1     0000091000P                                                                          30630291727
D000000000004509940004857913FG100169              20170607CUOTA                    MATRICULA2     0000105000P                                                                          30630291727
D000000000004509940004857913FG100169              20170607CUOTA                    MATRICULA3     0000091000P                                                                          30630291727
D000000000004508320016556194FG100170              20170607CUOTA                    MATRICULA1     0000091000P                                                                          30630291727
D000000000004508320013273074FG100171              20170607CUOTA                    MATRICULA1     0000091000P                                                                          30630291727
D000000000004508320013273074FG100171              20170607CUOTA                    MATRICULA2     0000091000P                                                                          30630291727
D000000000004508320006463385FG100172              20170607CUOTA                    MATRICULA1     0000091000P                                                                          30630291727
D000000000004508320017009524FG100173              20170607CUOTA                    MATRICULA1     0000091000P                                                                          30630291727
D000000000004697010000355155FG100174              20170607CUOTA                    MATRICULA1     0000091000P                                                                          30630291727
D000000000004508320010551936FG100175              20170607CUOTA                    MATRICULA1     0000091000P                                                                          30630291727
D000000000004508320010551936FG100175              20170607CUOTA                    MATRICULA2     0000105000P                                                                          30630291727
D000000000004508320010551936FG100175              20170607CUOTA                    MATRICULA3     0000091000P                                                                          30630291727
D000000000004508320010551936FG100175              20170607CUOTA                    MATRICULA4     0000105000P                                                                          30630291727
D000000000004509940004369075FG100177              20170607CUOTA                    MATRICULA1     0000105000P                                                                          30630291727
D000000000004509940004369075FG100177              20170607CUOTA                    MATRICULA2     0000091000P                                                                          30630291727
D000000000004508320017337461FG100178              20170607CUOTA                    MATRICULA1     0000105000P                                                                          30630291727
D000000000004508320011542843FG100180              20170607CUOTA                    MATRICULA1     0000105000P                                                                          30630291727
D000000000004508320004205143FG100181              20170607CUOTA                    MATRICULA1     0000105000P                                                                          30630291727
D000000000004508320016993868FG100183              20170607CUOTA                    MATRICULA1     0000105000P                                                                          30630291727
D000000000004509940004369034FG100184              20170607CUOTA                    MATRICULA1     0000105000P                                                                          30630291727
D000000000004509940004369034FG100184              20170607CUOTA                    MATRICULA2     0000105000P                                                                          30630291727
D000000000004697010000115625FG100186              20170607CUOTA                    MATRICULA1     0000105000P                                                                          30630291727
D000000000004697010000115625FG100186              20170607CUOTA                    MATRICULA2     0000105000P                                                                          30630291727
D000000000004697010000036110FG100190              20170607CUOTA                    MATRICULA1     0000105000P                                                                          30630291727
D000000000004697010000472711FG100191              20170607CUOTA                    MATRICULA1     0000105000P                                                                          30630291727
D000000000004509940004152588FG100193              20170607CUOTA                    MATRICULA1     0000105000P                                                                          30630291727
D000000000004508328000781819FG100198              20170607CUOTA                    MATRICULA1     0000091000P                                                                          30630291727
D000000000004508328000781819FG100198              20170607CUOTA                    MATRICULA2     0000091000P                                                                          30630291727
D000000000004508328000781819FG100198              20170607CUOTA                    MATRICULA3     0000091000P                                                                          30630291727
D000000000004508320014726377FG100199              20170607CUOTA                    MATRICULA1     0000091000P                                                                          30630291727
D000000000004508320013865705FG100200              20170607CUOTA                    MATRICULA1     0000091000P                                                                          30630291727
D000000000004508320016995459FG100201              20170607CUOTA                    MATRICULA1     0000091000P                                                                          30630291727
D000000000004508320016995459FG100201              20170607CUOTA                    MATRICULA2     0000091000P                                                                          30630291727
D000000000004508320008614001FG100203              20170607CUOTA                    MATRICULA1     0000091000P                                                                          30630291727
D000000000004697018000003873FG100204              20170607CUOTA                    MATRICULA1     0000091000P                                                                          30630291727
D000000000004697018000003873FG100204              20170607CUOTA                    MATRICULA2     0000091000P                                                                          30630291727
D000000000004509940002183833FG100206              20170607CUOTA                    MATRICULA1     0000091000P                                                                          30630291727
D000000000004508320017009599FG100207              20170607CUOTA                    MATRICULA1     0000091000P                                                                          30630291727
D000000000004508320017009599FG100207              20170607CUOTA                    MATRICULA2     0000091000P                                                                          30630291727
D000000000004508320008584337FG100208              20170607CUOTA                    MATRICULA1     0000091000P                                                                          30630291727
D000000000004508320008584337FG100208              20170607CUOTA                    MATRICULA2     0000091000P                                                                          30630291727
D000000000004508320005836086FG100209              20170607CUOTA                    MATRICULA1     0000091000P                                                                          30630291727
D000000000004508320005836086FG100209              20170607CUOTA                    MATRICULA2     0000091000P                                                                          30630291727
D000000000004508320017009482FG100211              20170607CUOTA                    MATRICULA1     0000091000P                                                                          30630291727
D000000000004508320017009482FG100211              20170607CUOTA                    MATRICULA2     0000091000P                                                                          30630291727
D000000000004304970011893475FG100216              20170607CUOTA                    MATRICULA1     0000091000P                                                                          30630291727
D000000000004508320014471297FG100217              20170607CUOTA                    MATRICULA1     0000091000P                                                                          30630291727
D000000000004508320014471297FG100217              20170607CUOTA                    MATRICULA2     0000091000P                                                                          30630291727
D000000000004304960040137986FG100223              20170607CUOTA                    MATRICULA1     0000091000P                                                                          30630291727
D000000000004050710081235207FG100224              20170607CUOTA                    MATRICULA1     0000091000P                                                                          30630291727
D000000000004508320013137519FG100231              20170607CUOTA                    MATRICULA1     0000091000P                                                                          30630291727
D000000000004508320013137519FG100231              20170607CUOTA                    MATRICULA2     0000091000P                                                                          30630291727
D000000000004697010000452820FG100232              20170607CUOTA                    MATRICULA1     0000091000P                                                                          30630291727
D000000000004697010000452820FG100232              20170607CUOTA                    MATRICULA2     0000091000P                                                                          30630291727
D000000000004508320007344014FG100234              20170607CUOTA                    MATRICULA1     0000091000P                                                                          30630291727
D000000000004508320010572171FG100235              20170607CUOTA                    MATRICULA1     0000065000P                                                                          30630291727
D000000000004508320010572171FG100235              20170607CUOTA                    MATRICULA2     0000065000P                                                                          30630291727
D000000000004508330004950739FG100240              20170607CUOTA                    MATRICULA1     0000105000P                                                                          30630291727
D000000000004508320004014438FG100243              20170607CUOTA                    MATRICULA1     0000105000P                                                                          30630291727
D000000000004508320004014438FG100243              20170607CUOTA                    MATRICULA2     0000105000P                                                                          30630291727
D000000000004508320017239501FG100247              20170607CUOTA                    MATRICULA1     0000105000P                                                                          30630291727
D000000000004508320017239501FG100247              20170607CUOTA                    MATRICULA2     0000105000P                                                                          30630291727
D000000000004029182696034003FG100250              20170607CUOTA                    MATRICULA1     0000105000P                                                                          30630291727
D000000000004509940003930919FG100252              20170607CUOTA                    MATRICULA1     0000105000P                                                                          30630291727
D000000000004508328000822779FG100254              20170607CUOTA                    MATRICULA1     0000105000P                                                                          30630291727
D000000000004697010000562446FG100255              20170607CUOTA                    MATRICULA1     0000105000P                                                                          30630291727
D000000000004697010000562446FG100255              20170607CUOTA                    MATRICULA2     0000105000P                                                                          30630291727
D000000000004508320013904447FG100258              20170607CUOTA                    MATRICULA1     0000105000P                                                                          30630291727
D000000000004508320013904447FG100258              20170607CUOTA                    MATRICULA2     0000105000P                                                                          30630291727
D000000000004697010000286558FG100261              20170607CUOTA                    MATRICULA1     0000105000P                                                                          30630291727
D000000000004029181043052056FG100264              20170607CUOTA                    MATRICULA1     0000105000P                                                                          30630291727
D000000000004509940003144966FG100265              20170607CUOTA                    MATRICULA1     0000105000P                                                                          30630291727
D000000000004508320010276807FG100266              20170607CUOTA                    MATRICULA1     0000105000P                                                                          30630291727
D000000000004508320006463658FG100267              20170607CUOTA                    MATRICULA1     0000105000P                                                                          30630291727
D000000000004508320016852023FG100268              20170607CUOTA                    MATRICULA1     0000105000P                                                                          30630291727
D000000000004508320012906476FG100271              20170607CUOTA                    MATRICULA1     0000105000P                                                                          30630291727
D000000000004697018000013393FG100273              20170607CUOTA                    MATRICULA1     0000105000P                                                                          30630291727
D000000000004697018000013393FG100273              20170607CUOTA                    MATRICULA2     0000105000P                                                                          30630291727
D000000000004508320011838431FG100275              20170607CUOTA                    MATRICULA1     0000091000P                                                                          30630291727
D000000000004508320011838431FG100275              20170607CUOTA                    MATRICULA2     0000105000P                                                                          30630291727
D000000000004508320008648124FG100277              20170607CUOTA                    MATRICULA1     0000065000P                                                                          30630291727
D000000000004508320004369485FG100278              20170607CUOTA                    MATRICULA1     0000105000P                                                                          30630291727
D000000000004508320004369485FG100278              20170607CUOTA                    MATRICULA2     0000091000P                                                                          30630291727
D000000000004508320016993579FG100282              20170607CUOTA                    MATRICULA1     0000091000P                                                                          30630291727
D000000000004508320016993579FG100282              20170607CUOTA                    MATRICULA2     0000091000P                                                                          30630291727
D000000000004508320016993835FG100283              20170607CUOTA                    MATRICULA1     0000105000P                                                                          30630291727
D000000000004509940004030347FG100285              20170607CUOTA                    MATRICULA1     0000091000P                                                                          30630291727
D000000000004508320009360216FG100290              20170607CUOTA                    MATRICULA1     0000091000P                                                                          30630291727
D000000000004508320009360216FG100290              20170607CUOTA                    MATRICULA2     0000091000P                                                                          30630291727
D000000000004509940004174061FG100291              20170607CUOTA                    MATRICULA1     0000091000P                                                                          30630291727
D000000000004029181967045003FG100292              20170607CUOTA                    MATRICULA1     0000091000P                                                                          30630291727
D000000000004508320005670717FG100293              20170607CUOTA                    MATRICULA1     0000105000P                                                                          30630291727
D000000000004509940002550130FG100295              20170607CUOTA                    MATRICULA1     0000105000P                                                                          30630291727
D000000000004508328000986707FG100300              20170607CUOTA                    MATRICULA1     0000105000P                                                                          30630291727
D000000000004508328000872139FG100301              20170607CUOTA                    MATRICULA1     0000065000P                                                                          30630291727
D000000000004508328000872139FG100301              20170607CUOTA                    MATRICULA2     0000065000P                                                                          30630291727
D000000000004508320017422669FG100305              20170607CUOTA                    MATRICULA1     0000091000P                                                                          30630291727
D000000000004508320009019978FG100306              20170607CUOTA                    MATRICULA1     0000091000P                                                                          30630291727
D000000000004508320016995400FG100309              20170607CUOTA                    MATRICULA1     0000105000P                                                                          30630291727
D000000000004508320013461604FG100312              20170607CUOTA                    MATRICULA1     0000091000P                                                                          30630291727
D000000000004697010000194281FG100316              20170607CUOTA                    MATRICULA1     0000091000P                                                                          30630291727
D000000000004697010000194281FG100316              20170607CUOTA                    MATRICULA2     0000105000P                                                                          30630291727
D000000000004508320011265452FG100317              20170607CUOTA                    MATRICULA1     0000091000P                                                                          30630291727
D000000000004508320011265452FG100317              20170607CUOTA                    MATRICULA2     0000091000P                                                                          30630291727
D000000000004508320013313144FG100318              20170607CUOTA                    MATRICULA1     0000091000P                                                                          30630291727
D000000000004508320005788733FG100324              20170607CUOTA                    MATRICULA1     0000105000P                                                                          30630291727
D000000000004508320008974900FG100331              20170607CUOTA                    MATRICULA1     0000105000P                                                                          30630291727
D000000000004508320016995418FG100334              20170607CUOTA                    MATRICULA1     0000105000P                                                                          30630291727
D000000000004508320015383582FG100335              20170607CUOTA                    MATRICULA1     0000091000P                                                                          30630291727
D000000000004508320014735089FG100337              20170607CUOTA                    MATRICULA1     0000091000P                                                                          30630291727
D000000000004050710093762198FG100338              20170607CUOTA                    MATRICULA1     0000091000P                                                                          30630291727
D000000000004508320005790499FG100339              20170607CUOTA                    MATRICULA1     0000105000P                                                                          30630291727
D000000000004753930000074095FG100344              20170607CUOTA                    MATRICULA1     0000105000P                                                                          30630291727
D000000000004508320016995434FG100347              20170607CUOTA                    MATRICULA1     0000105000P                                                                          30630291727
D000000000004508320016993736FG100349              20170607CUOTA                    MATRICULA1     0000105000P                                                                          30630291727
D000000000004508320013508768FG100351              20170607CUOTA                    MATRICULA1     0000105000P                                                                          30630291727
D000000000004508320013508768FG100351              20170607CUOTA                    MATRICULA2     0000091000P                                                                          30630291727
D000000000004508330006180178FG100352              20170607CUOTA                    MATRICULA1     0000105000P                                                                          30630291727
D000000000004508330006180178FG100352              20170607CUOTA                    MATRICULA2     0000091000P                                                                          30630291727
D000000000004508328000915953FG100369              20170607CUOTA                    MATRICULA1     0000105000P                                                                          30630291727
D000000000004508320003375434FG100370              20170607CUOTA                    MATRICULA1     0000105000P                                                                          30630291727
D000000000004509940004367731FG100372              20170607CUOTA                    MATRICULA1     0000105000P                                                                          30630291727
D000000000004508320007819114FG100376              20170607CUOTA                    MATRICULA1     0000105000P                                                                          30630291727
D000000000004508320014413828FG100385              20170607CUOTA                    MATRICULA1     0000105000P                                                                          30630291727
D000000000004508320014413828FG100385              20170607CUOTA                    MATRICULA2     0000105000P                                                                          30630291727
D000000000004508320017228041FG100386              20170607CUOTA                    MATRICULA1     0000105000P                                                                          30630291727
D000000000004508320010841170FG100391              20170607CUOTA                    MATRICULA1     0000105000P                                                                          30630291727
D000000000004508320007782015FG100392              20170607CUOTA                    MATRICULA1     0000105000P                                                                          30630291727
D000000000004508320007954283FG100393              20170607CUOTA                    MATRICULA1     0000105000P                                                                          30630291727
D000000000004508438001238881FG100400              20170607CUOTA                    MATRICULA1     0000105000P                                                                          30630291727
D000000000004509940001834865FG100405              20170607CUOTA                    MATRICULA1     0000105000P                                                                          30630291727
D000000000004508320016993892FG100406              20170607CUOTA                    MATRICULA1     0000105000P                                                                          30630291727
D000000000004508320016993892FG100406              20170607CUOTA                    MATRICULA2     0000105000P                                                                          30630291727
D000000000004508320016993892FG100406              20170607CUOTA                    MATRICULA3     0000105000P                                                                          30630291727
D000000000004508320014006994FG100409              20170607CUOTA                    MATRICULA1     0000105000P                                                                          30630291727
D000000000004508320009321291FG100410              20170607CUOTA                    MATRICULA1     0000105000P                                                                          30630291727
D000000000004508320008597131FG100413              20170607CUOTA                    MATRICULA1     0000091000P                                                                          30630291727
D000000000005443124994363655FG100416              20170607CUOTA                    MATRICULA1     0000091000P                                                                          30630291727
D000000000004508320017289027FG100418              20170607CUOTA                    MATRICULA1     0000091000P                                                                          30630291727
D000000000004508320016571847FG100419              20170607CUOTA                    MATRICULA1     0000091000P                                                                          30630291727
D000000000004697010000494640FG100420              20170607CUOTA                    MATRICULA1     0000091000P                                                                          30630291727
D000000000004508320014506027FG100421              20170607CUOTA                    MATRICULA1     0000091000P                                                                          30630291727
D000000000004508328001219405FG100423              20170607CUOTA                    MATRICULA1     0000091000P                                                                          30630291727
D000000000004508320010939966FG100424              20170607CUOTA                    MATRICULA1     0000091000P                                                                          30630291727
D000000000004509940004367806FG100426              20170607CUOTA                    MATRICULA1     0000091000P                                                                          30630291727
D000000000004509940004367806FG100426              20170607CUOTA                    MATRICULA2     0000091000P                                                                          30630291727
D000000000004508320008031271FG100430              20170607CUOTA                    MATRICULA1     0000091000P                                                                          30630291727
D000000000004508320008031271FG100430              20170607CUOTA                    MATRICULA2     0000105000P                                                                          30630291727
D000000000004508320017135766FG100437              20170607CUOTA                    MATRICULA1     0000091000P                                                                          30630291727
D000000000004508320017135766FG100437              20170607CUOTA                    MATRICULA2     0000091000P                                                                          30630291727
D000000000004508328000531065FG100443              20170607CUOTA                    MATRICULA1     0000091000P                                                                          30630291727
D000000000004508328000531065FG100443              20170607CUOTA                    MATRICULA2     0000091000P                                                                          30630291727
D000000000004508330005309232FG100445              20170607CUOTA                    MATRICULA1     0000105000P                                                                          30630291727
D000000000005305743661919262FG100447              20170607CUOTA                    MATRICULA1     0000105000P                                                                          30630291727
D000000000004508320013849188FG100448              20170607CUOTA                    MATRICULA1     0000091000P                                                                          30630291727
D000000000004508320012842747FG100450              20170607CUOTA                    MATRICULA1     0000091000P                                                                          30630291727
D000000000004984350001026807FG100451              20170607CUOTA                    MATRICULA1     0000091000P                                                                          30630291727
D000000000004509940003041220FG100456              20170607CUOTA                    MATRICULA1     0000091000P                                                                          30630291727
D000000000004508320008967219FG100458              20170607CUOTA                    MATRICULA1     0000091000P                                                                          30630291727
D000000000004029181109767068FG100459              20170607CUOTA                    MATRICULA1     0000091000P                                                                          30630291727
D000000000004509940004367855FG100461              20170607CUOTA                    MATRICULA1     0000091000P                                                                          30630291727
D000000000004509940004367855FG100461              20170607CUOTA                    MATRICULA2     0000091000P                                                                          30630291727
D000000000004509940003702193FG100462              20170607CUOTA                    MATRICULA1     0000091000P                                                                          30630291727
D000000000004508320004204971FG100464              20170607CUOTA                    MATRICULA1     0000105000P                                                                          30630291727
D000000000004508320004204971FG100464              20170607CUOTA                    MATRICULA2     0000091000P                                                                          30630291727
D000000000004509950145847913FG100465              20170607CUOTA                    MATRICULA1     0000091000P                                                                          30630291727
D000000000004508320014142252FG100468              20170607CUOTA                    MATRICULA1     0000091000P                                                                          30630291727
D000000000004509940004367822FG100474              20170607CUOTA                    MATRICULA1     0000105000P                                                                          30630291727
D000000000004508320016993728FG100480              20170607CUOTA                    MATRICULA1     0000105000P                                                                          30630291727
D000000000004508320016993728FG100480              20170607CUOTA                    MATRICULA2     0000091000P                                                                          30630291727
D000000000004509940004640509FG100482              20170607CUOTA                    MATRICULA1     0000105000P                                                                          30630291727
D000000000004509940004640509FG100482              20170607CUOTA                    MATRICULA2     0000105000P                                                                          30630291727
D000000000004508320007820526FG100483              20170607CUOTA                    MATRICULA1     0000105000P                                                                          30630291727
D000000000004509940004159369FG100484              20170607CUOTA                    MATRICULA1     0000105000P                                                                          30630291727
D000000000004509940004159369FG100484              20170607CUOTA                    MATRICULA2     0000105000P                                                                          30630291727
D000000000004509948000205185FG100485              20170607CUOTA                    MATRICULA1     0000105000P                                                                          30630291727
D000000000004509940003056202FG100486              20170607CUOTA                    MATRICULA1     0000091000P                                                                          30630291727
D000000000004509940003056202FG100486              20170607CUOTA                    MATRICULA2     0000091000P                                                                          30630291727
D000000000004697010000652809FG100492              20170607CUOTA                    MATRICULA1     0000091000P                                                                          30630291727
D000000000004697010000652809FG100492              20170607CUOTA                    MATRICULA2     0000091000P                                                                          30630291727
D000000000004508320010940089FG100494              20170607CUOTA                    MATRICULA1     0000091000P                                                                          30630291727
D000000000004508320010940089FG100494              20170607CUOTA                    MATRICULA2     0000091000P                                                                          30630291727
D000000000004509940003702565FG100495              20170607CUOTA                    MATRICULA1     0000091000P                                                                          30630291727
D000000000004509940003702565FG100495              20170607CUOTA                    MATRICULA2     0000091000P                                                                          30630291727
D000000000004508320007633234FG100497              20170607CUOTA                    MATRICULA1     0000105000P                                                                          30630291727
D000000000004508320007633234FG100497              20170607CUOTA                    MATRICULA2     0000091000P                                                                          30630291727
D000000000004338220000159441FG100500              20170607CUOTA                    MATRICULA1     0000105000P                                                                          30630291727
D000000000004509790056710779FG100501              20170607CUOTA                    MATRICULA1     0000105000P                                                                          30630291727
D000000000004509940004467788FG100502              20170607CUOTA                    MATRICULA1     0000105000P                                                                          30630291727
D000000000004508320016019110FG100503              20170607CUOTA                    MATRICULA1     0000105000P                                                                          30630291727
D000000000004508320015866131FG100505              20170607CUOTA                    MATRICULA1     0000105000P                                                                          30630291727
D000000000004508320003532950FG100508              20170607CUOTA                    MATRICULA1     0000105000P                                                                          30630291727
D000000000004509940001184311FG100515              20170607CUOTA                    MATRICULA1     0000105000P                                                                          30630291727
D000000000004509940004248790FG100516              20170607CUOTA                    MATRICULA1     0000105000P                                                                          30630291727
D000000000004508320004201381FG100525              20170607CUOTA                    MATRICULA1     0000105000P                                                                          30630291727
D000000000004508320008435902FG100526              20170607CUOTA                    MATRICULA1     0000105000P                                                                          30630291727
D000000000004508328001213978FG100538              20170607CUOTA                    MATRICULA1     0000091000P                                                                          30630291727
D000000000004508328001213978FG100538              20170607CUOTA                    MATRICULA2     0000091000P                                                                          30630291727
D000000000004509940003422958FG100542              20170607CUOTA                    MATRICULA1     0000091000P                                                                          30630291727
D000000000004509940003422958FG100542              20170607CUOTA                    MATRICULA2     0000091000P                                                                          30630291727
D000000000004508320005789046FG100544              20170607CUOTA                    MATRICULA1     0000105000P                                                                          30630291727
D000000000004546590908508834FG100545              20170607CUOTA                    MATRICULA1     0000105000P                                                                          30630291727
D000000000004508320009696833FG100551              20170607CUOTA                    MATRICULA1     0000091000P                                                                          30630291727
D000000000004508320017009557FG100552              20170607CUOTA                    MATRICULA1     0000091000P                                                                          30630291727
D000000000004508328000918411FG100557              20170607CUOTA                    MATRICULA1     0000065000P                                                                          30630291727
D000000000004508320007781256FG100559              20170607CUOTA                    MATRICULA1     0000091000P                                                                          30630291727
D000000000004508320007781256FG100559              20170607CUOTA                    MATRICULA2     0000091000P                                                                          30630291727
D000000000004550940002464720FG100563              20170607CUOTA                    MATRICULA1     0000105000P                                                                          30630291727
D000000000004509940002602519FG100565              20170607CUOTA                    MATRICULA1     0000105000P                                                                          30630291727
D000000000004508320016994007FG100566              20170607CUOTA                    MATRICULA1     0000105000P                                                                          30630291727
D000000000004508320016994007FG100566              20170607CUOTA                    MATRICULA2     0000091000P                                                                          30630291727
D000000000004697010000582725FG100570              20170607CUOTA                    MATRICULA1     0000105000P                                                                          30630291727
D000000000004508320008315104FG100571              20170607CUOTA                    MATRICULA1     0000091000P                                                                          30630291727
D000000000005305741570347484FG100574              20170607CUOTA                    MATRICULA1     0000091000P                                                                          30630291727
D000000000005305741570347484FG100574              20170607CUOTA                    MATRICULA2     0000091000P                                                                          30630291727
D000000000004508320013389979FG100577              20170607CUOTA                    MATRICULA1     0000105000P                                                                          30630291727
D000000000004508320016867252FG100581              20170607CUOTA                    MATRICULA1     0000091000P                                                                          30630291727
D000000000004508320006385828FG100582              20170607CUOTA                    MATRICULA1     0000105000P                                                                          30630291727
D000000000004508328000779615FG100584              20170607CUOTA                    MATRICULA1     0000105000P                                                                          30630291727
D000000000004508320016993884FG100587              20170607CUOTA                    MATRICULA1     0000105000P                                                                          30630291727
D000000000004508320009842452FG100592              20170607CUOTA                    MATRICULA1     0000105000P                                                                          30630291727
D000000000004508320009842452FG100592              20170607CUOTA                    MATRICULA2     0000105000P                                                                          30630291727
D000000000004509940004141003FG100595              20170607CUOTA                    MATRICULA1     0000105000P                                                                          30630291727
D000000000004509950106590213FG100598              20170607CUOTA                    MATRICULA1     0000105000P                                                                          30630291727
D000000000004508320013168753FG100599              20170607CUOTA                    MATRICULA1     0000105000P                                                                          30630291727
D000000000004508320009850075FG100600              20170607CUOTA                    MATRICULA1     0000105000P                                                                          30630291727
D000000000004509940004266859FG100602              20170607CUOTA                    MATRICULA1     0000105000P                                                                          30630291727
D000000000004509950093314866FG100605              20170607CUOTA                    MATRICULA1     0000105000P                                                                          30630291727
D000000000004508320014449525FG100606              20170607CUOTA                    MATRICULA1     0000091000P                                                                          30630291727
D000000000004508320016177165FG100611              20170607CUOTA                    MATRICULA1     0000091000P                                                                          30630291727
D000000000004508320010995794FG100612              20170607CUOTA                    MATRICULA1     0000105000P                                                                          30630291727
D000000000004509940003820623FG100613              20170607CUOTA                    MATRICULA1     0000105000P                                                                          30630291727
D000000000004793750005350692FG100614              20170607CUOTA                    MATRICULA1     0000091000P                                                                          30630291727
D000000000004753930000030576FG100620              20170607CUOTA                    MATRICULA1     0000091000P                                                                          30630291727
D000000000004753930000030576FG100620              20170607CUOTA                    MATRICULA2     0000105000P                                                                          30630291727
D000000000004508320005668182FG100626              20170607CUOTA                    MATRICULA1     0000105000P                                                                          30630291727
D000000000004508320009367831FG100629              20170607CUOTA                    MATRICULA1     0000105000P                                                                          30630291727
D000000000004508320017645913FG100631              20170607CUOTA                    MATRICULA1     0000091000P                                                                          30630291727
D000000000004508320017645913FG100631              20170607CUOTA                    MATRICULA2     0000091000P                                                                          30630291727
D000000000004508320017310740FG100634              20170607CUOTA                    MATRICULA1     0000105000P                                                                          30630291727
D000000000004541480001173824FG100635              20170607CUOTA                    MATRICULA1     0000105000P                                                                          30630291727
D000000000004508320017009458FG100636              20170607CUOTA                    MATRICULA1     0000091000P                                                                          30630291727
D000000000004508320017009458FG100636              20170607CUOTA                    MATRICULA2     0000091000P                                                                          30630291727
D000000000004508320015261648FG100637              20170607CUOTA                    MATRICULA1     0000091000P                                                                          30630291727
D000000000004508320013957528FG100641              20170607CUOTA                    MATRICULA1     0000105000P                                                                          30630291727
D000000000004508320013957528FG100641              20170607CUOTA                    MATRICULA2     0000105000P                                                                          30630291727
D000000000004509940004928151FG100645              20170607CUOTA                    MATRICULA1     0000091000P                                                                          30630291727
D000000000004249660000173918FG100647              20170607CUOTA                    MATRICULA1     0000105000P                                                                          30630291727
D000000000004249660000173918FG100647              20170607CUOTA                    MATRICULA2     0000105000P                                                                          30630291727
D000000000004508320016664204FG100651              20170607CUOTA                    MATRICULA1     0000105000P                                                                          30630291727
D000000000004508320007359863FG100656              20170607CUOTA                    MATRICULA1     0000105000P                                                                          30630291727
D000000000004509948000275691FG100662              20170607CUOTA                    MATRICULA1     0000105000P                                                                          30630291727
D000000000004508320012406592FG100690              20170607CUOTA                    MATRICULA1     0000105000P                                                                          30630291727
D000000000004512320012406592FG100694              20170607CUOTA                    MATRICULA1     0000105000P                                                                          30630291727
D000000000004050710062465476FG100709              20170607CUOTA                    MATRICULA1     0000091000P                                                                          30630291727
D000000000004509790140594130FG100712              20170607CUOTA                    MATRICULA1     0000091000P                                                                          30630291727
D000000000004509940003849838FG100740              20170607CUOTA                    MATRICULA1     0000105000P                                                                          30630291727
D000000000004793760001140823FG100744              20170607CUOTA                    MATRICULA1     0000105000P                                                                          30630291727
D000000000004793768000027768FG100746              20170607CUOTA                    MATRICULA1     0000105000P                                                                          30630291727
D000000000004793768000027768FG100746              20170607CUOTA                    MATRICULA2     0000105000P                                                                          30630291727
D000000000004509940004117581FG100747              20170607CUOTA                    MATRICULA1     0000105000P                                                                          30630291727
D000000000004029182458241309FG100748              20170607CUOTA                    MATRICULA1     0000105000P                                                                          30630291727
D000000000004508320018486747FG100751              20170607CUOTA                    MATRICULA1     0000075000P                                                                          30630291727
D000000000004508320018486747FG100751              20170607CUOTA                    MATRICULA2     0000065000P                                                                          30630291727
D000000000004509940004367794FG100752              20170607CUOTA                    MATRICULA1     0000105000P                                                                          30630291727
D000000000004793750004915453FG100758              20170607CUOTA                    MATRICULA1     0000105000P                                                                          30630291727
D000000000004304970009736140FG100759              20170607CUOTA                    MATRICULA1     0000105000P                                                                          30630291727
D000000000004050718004409809FG100760              20170607CUOTA                    MATRICULA1     0000091000P                                                                          30630291727
D000000000004050718004409809FG100760              20170607CUOTA                    MATRICULA2     0000105000P                                                                          30630291727
D000000000004555990010262411FG100772              20170607CUOTA                    MATRICULA1     0000105000P                                                                          30630291727
D000000000004508320016728215FG100774              20170607CUOTA                    MATRICULA1     0000105000P                                                                          30630291727
D000000000004029183020602002FG100791              20170607CUOTA                    MATRICULA1     0000091000P                                                                          30630291727
D000000000004509940002680390FG100806              20170607CUOTA                    MATRICULA1     0000105000P                                                                          30630291727
D000000000004508328001345366FG100807              20170607CUOTA                    MATRICULA1     0000091000P                                                                          30630291727
D000000000004508320018795634FG100808              20170607CUOTA                    MATRICULA1     0000091000P                                                                          30630291727
D000000000004304950000126566FG100810              20170607CUOTA                    MATRICULA1     0000105000P                                                                          30630291727
D000000000004508330005363833FG100811              20170607CUOTA                    MATRICULA1     0000105000P                                                                          30630291727
D000000000004508320003984755FG100815              20170607CUOTA                    MATRICULA1     0000105000P                                                                          30630291727
D000000000004793750004938422FG100817              20170607CUOTA                    MATRICULA1     0000105000P                                                                          30630291727
D000000000004509798005313041FG100818              20170607CUOTA                    MATRICULA1     0000105000P                                                                          30630291727
D000000000004029184850208290FG100823              20170607CUOTA                    MATRICULA1     0000091000P                                                                          30630291727
D000000000004509790058515606FG100825              20170607CUOTA                    MATRICULA1     0000091000P                                                                          30630291727
D000000000004304960035261577FG100831              20170607CUOTA                    MATRICULA1     0000105000P                                                                          30630291727
T0000406000000039758000                                                                                                                                                                                 
