H30630291727CUOTA     61807022018            COLEGIO VECCHI                                                                                                                                             
D000000000001111555522221111      FG100003              20180222CUOTA                    MMMMMMATRICULA10000095000P                                                                          30630291727
D000000000001111555522221111      FG100004              20180222CUOTA                    MMMMMMATRICULA10000066500P                                                                          30630291727
D000000000001111555522221111      FG100004              20180222CUOTA                    MMMMMMATRICULA20000066500P                                                                          30630291727
D000000000001111555522221111      FG100006              20180222CUOTA                    MMMMMMATRICULA10000095000P                                                                          30630291727
D000000000001111555522221111      FG100008              20180222CUOTA                    MMMMMMATRICULA10000095000P                                                                          30630291727
D000000000001111555522221111      FG100009              20180222CUOTA                    MMMMMMATRICULA10000095000P                                                                          30630291727
D000000000001111555522221111      FG100010              20180222CUOTA                    MMMMMMATRICULA10000066500P                                                                          30630291727
D000000000001111555522221111      FG100011              20180222CUOTA                    MMMMMMATRICULA10000095000P                                                                          30630291727
D000000000001111555522221111      FG100014              20180222CUOTA                    MMMMMMATRICULA10000095000P                                                                          30630291727
D000000000001111555522221111      FG100015              20180222CUOTA                    MMMMMMATRICULA10000100000P                                                                          30630291727
D000000000001111555522221111      FG100015              20180222CUOTA                    MMMMMMATRICULA20000066500P                                                                          30630291727
D000000000001111555522221111      FG100016              20180222CUOTA                    MMMMMMATRICULA10000038000P                                                                          30630291727
D000000000001111555522221111      FG100017              20180222CUOTA                    MMMMMMATRICULA10000095000P                                                                          30630291727
D000000000001111555522221111      FG100019              20180222CUOTA                    MMMMMMATRICULA10000095000P                                                                          30630291727
D000000000001111555522221111      FG100020              20180222CUOTA                    MMMMMMATRICULA10000095000P                                                                          30630291727
D000000000001111555522221111      FG100023              20180222CUOTA                    MMMMMMATRICULA10000095000P                                                                          30630291727
D000000000001111555522221111      FG100028              20180222CUOTA                    MMMMMMATRICULA10000095000P                                                                          30630291727
D000000000001111555522221111      FG100029              20180222CUOTA                    MMMMMMATRICULA10000095000P                                                                          30630291727
D000000000001111555522221111      FG100031              20180222CUOTA                    MMMMMMATRICULA10000095000P                                                                          30630291727
D000000000001111555522221111      FG100033              20180222CUOTA                    MMMMMMATRICULA10000095000P                                                                          30630291727
D000000000001111555522221111      FG100033              20180222CUOTA                    MMMMMMATRICULA20000070000P                                                                          30630291727
D000000000001111555522221111      FG100033              20180222CUOTA                    MMMMMMATRICULA30000066500P                                                                          30630291727
D000000000001111555522221111      FG100034              20180222CUOTA                    MMMMMMATRICULA10000100000P                                                                          30630291727
D000000000001111555522221111      FG100034              20180222CUOTA                    MMMMMMATRICULA20000070000P                                                                          30630291727
D000000000001111555522221111      FG100034              20180222CUOTA                    MMMMMMATRICULA30000066500P                                                                          30630291727
D000000000001111555522221111      FG100035              20180222CUOTA                    MMMMMMATRICULA10000095000P                                                                          30630291727
D000000000001111555522221111      FG100037              20180222CUOTA                    MMMMMMATRICULA10000095000P                                                                          30630291727
D000000000001111555522221111      FG100038              20180222CUOTA                    MMMMMMATRICULA10000095000P                                                                          30630291727
D000000000001111555522221111      FG100039              20180222CUOTA                    MMMMMMATRICULA10000095000P                                                                          30630291727
D000000000001111555522221111      FG100041              20180222CUOTA                    MMMMMMATRICULA10000095000P                                                                          30630291727
D000000000001111555522221111      FG100042              20180222CUOTA                    MMMMMMATRICULA10000095000P                                                                          30630291727
D000000000001111555522221111      FG100045              20180222CUOTA                    MMMMMMATRICULA10000066500P                                                                          30630291727
D000000000001111555522221111      FG100045              20180222CUOTA                    MMMMMMATRICULA20000066500P                                                                          30630291727
D000000000001111555522221111      FG100049              20180222CUOTA                    MMMMMMATRICULA10000100000P                                                                          30630291727
D000000000001111555522221111      FG100049              20180222CUOTA                    MMMMMMATRICULA20000095000P                                                                          30630291727
D000000000001111555522221111      FG100050              20180222CUOTA                    MMMMMMATRICULA10000066500P                                                                          30630291727
D000000000001111555522221111      FG100051              20180222CUOTA                    MMMMMMATRICULA10000070000P                                                                          30630291727
D000000000001111555522221111      FG100051              20180222CUOTA                    MMMMMMATRICULA20000066500P                                                                          30630291727
D000000000001111555522221111      FG100053              20180222CUOTA                    MMMMMMATRICULA10000095000P                                                                          30630291727
D000000000001111555522221111      FG100054              20180222CUOTA                    MMMMMMATRICULA10000095000P                                                                          30630291727
D000000000001111555522221111      FG100055              20180222CUOTA                    MMMMMMATRICULA10000095000P                                                                          30630291727
D000000000001111555522221111      FG100056              20180222CUOTA                    MMMMMMATRICULA10000095000P                                                                          30630291727
D000000000001111555522221111      FG100068              20180222CUOTA                    MMMMMMATRICULA10000066500P                                                                          30630291727
D000000000001111555522221111      FG100068              20180222CUOTA                    MMMMMMATRICULA20000070000P                                                                          30630291727
D000000000001111555522221111      FG100069              20180222CUOTA                    MMMMMMATRICULA10000100000P                                                                          30630291727
D000000000001111555522221111      FG100070              20180222CUOTA                    MMMMMMATRICULA10000095000P                                                                          30630291727
D000000000001111555522221111      FG100081              20180222CUOTA                    MMMMMMATRICULA10000100000P                                                                          30630291727
D000000000001111555522221111      FG100082              20180222CUOTA                    MMMMMMATRICULA10000100000P                                                                          30630291727
D000000000001111555522221111      FG100092              20180222CUOTA                    MMMMMMATRICULA10000100000P                                                                          30630291727
D000000000001111555522221111      FG100105              20180222CUOTA                    MMMMMMATRICULA10000070000P                                                                          30630291727
D000000000001111555522221111      FG100105              20180222CUOTA                    MMMMMMATRICULA20000066500P                                                                          30630291727
D000000000001111555522221111      FG100107              20180222CUOTA                    MMMMMMATRICULA10000070000P                                                                          30630291727
D000000000001111555522221111      FG100107              20180222CUOTA                    MMMMMMATRICULA20000100000P                                                                          30630291727
D000000000001111555522221111      FG100109              20180222CUOTA                    MMMMMMATRICULA10000100000P                                                                          30630291727
D000000000001111555522221111      FG100112              20180222CUOTA                    MMMMMMATRICULA10000100000P                                                                          30630291727
D000000000001111555522221111      FG100114              20180222CUOTA                    MMMMMMATRICULA10000100000P                                                                          30630291727
D000000000001111555522221111      FG100115              20180222CUOTA                    MMMMMMATRICULA10000100000P                                                                          30630291727
D000000000001111555522221111      FG100116              20180222CUOTA                    MMMMMMATRICULA10000100000P                                                                          30630291727
D000000000001111555522221111      FG100117              20180222CUOTA                    MMMMMMATRICULA10000070000P                                                                          30630291727
D000000000001111555522221111      FG100117              20180222CUOTA                    MMMMMMATRICULA20000100000P                                                                          30630291727
D000000000001111555522221111      FG100117              20180222CUOTA                    MMMMMMATRICULA30000070000P                                                                          30630291727
D000000000001111555522221111      FG100117              20180222CUOTA                    MMMMMMATRICULA40000070000P                                                                          30630291727
D000000000001111555522221111      FG100117              20180222CUOTA                    MMMMMMATRICULA50000070000P                                                                          30630291727
D000000000001111555522221111      FG100117              20180222CUOTA                    MMMMMMATRICULA60000070000P                                                                          30630291727
D000000000001111555522221111      FG100117              20180222CUOTA                    MMMMMMATRICULA70000100000P                                                                          30630291727
D000000000001111555522221111      FG100117              20180222CUOTA                    MMMMMMATRICULA80000070000P                                                                          30630291727
D000000000001111555522221111      FG100117              20180222CUOTA                    MMMMMMATRICULA90000070000P                                                                          30630291727
D000000000001111555522221111      FG100117              20180222CUOTA                    MMMMMATRICULA100000100000P                                                                          30630291727
D000000000001111555522221111      FG100118              20180222CUOTA                    MMMMMMATRICULA10000100000P                                                                          30630291727
D000000000001111555522221111      FG100119              20180222CUOTA                    MMMMMMATRICULA10000100000P                                                                          30630291727
D000000000001111555522221111      FG100120              20180222CUOTA                    MMMMMMATRICULA10000100000P                                                                          30630291727
D000000000001111555522221111      FG100121              20180222CUOTA                    MMMMMMATRICULA10000070000P                                                                          30630291727
D000000000001111555522221111      FG100121              20180222CUOTA                    MMMMMMATRICULA20000100000P                                                                          30630291727
D000000000001111555522221111      FG100123              20180222CUOTA                    MMMMMMATRICULA10000100000P                                                                          30630291727
D000000000001111555522221111      FG100124              20180222CUOTA                    MMMMMMATRICULA10000100000P                                                                          30630291727
D000000000001111555522221111      FG100125              20180222CUOTA                    MMMMMMATRICULA10000070000P                                                                          30630291727
D000000000001111555522221111      FG100125              20180222CUOTA                    MMMMMMATRICULA20000066500P                                                                          30630291727
D000000000001111555522221111      FG100125              20180222CUOTA                    MMMMMMATRICULA30000100000P                                                                          30630291727
D000000000001111555522221111      FG100126              20180222CUOTA                    MMMMMMATRICULA10000066500P                                                                          30630291727
D000000000001111555522221111      FG100126              20180222CUOTA                    MMMMMMATRICULA20000100000P                                                                          30630291727
D000000000001111555522221111      FG100126              20180222CUOTA                    MMMMMMATRICULA30000070000P                                                                          30630291727
D000000000001111555522221111      FG100128              20180222CUOTA                    MMMMMMATRICULA10000100000P                                                                          30630291727
D000000000001111555522221111      FG100129              20180222CUOTA                    MMMMMMATRICULA10000070000P                                                                          30630291727
D000000000001111555522221111      FG100129              20180222CUOTA                    MMMMMMATRICULA20000100000P                                                                          30630291727
D000000000001111555522221111      FG100130              20180222CUOTA                    MMMMMMATRICULA10000100000P                                                                          30630291727
D000000000001111555522221111      FG100132              20180222CUOTA                    MMMMMMATRICULA10000070000P                                                                          30630291727
D000000000001111555522221111      FG100132              20180222CUOTA                    MMMMMMATRICULA20000066500P                                                                          30630291727
D000000000001111555522221111      FG100132              20180222CUOTA                    MMMMMMATRICULA30000100000P                                                                          30630291727
D000000000001111555522221111      FG100136              20180222CUOTA                    MMMMMMATRICULA10000100000P                                                                          30630291727
D000000000001111555522221111      FG100137              20180222CUOTA                    MMMMMMATRICULA10000100000P                                                                          30630291727
D000000000001111555522221111      FG100138              20180222CUOTA                    MMMMMMATRICULA10000100000P                                                                          30630291727
D000000000001111555522221111      FG100139              20180222CUOTA                    MMMMMMATRICULA10000100000P                                                                          30630291727
D000000000001111555522221111      FG100141              20180222CUOTA                    MMMMMMATRICULA10000070000P                                                                          30630291727
D000000000001111555522221111      FG100142              20180222CUOTA                    MMMMMMATRICULA10000100000P                                                                          30630291727
D000000000001111555522221111      FG100142              20180222CUOTA                    MMMMMMATRICULA20000066500P                                                                          30630291727
D000000000001111555522221111      FG100143              20180222CUOTA                    MMMMMMATRICULA10000100000P                                                                          30630291727
D000000000001111555522221111      FG100144              20180222CUOTA                    MMMMMMATRICULA10000100000P                                                                          30630291727
D000000000001111555522221111      FG100145              20180222CUOTA                    MMMMMMATRICULA10000100000P                                                                          30630291727
D000000000001111555522221111      FG100146              20180222CUOTA                    MMMMMMATRICULA10000070000P                                                                          30630291727
D000000000001111555522221111      FG100147              20180222CUOTA                    MMMMMMATRICULA10000070000P                                                                          30630291727
D000000000001111555522221111      FG100147              20180222CUOTA                    MMMMMMATRICULA20000100000P                                                                          30630291727
D000000000001111555522221111      FG100148              20180222CUOTA                    MMMMMMATRICULA10000070000P                                                                          30630291727
D000000000001111555522221111      FG100148              20180222CUOTA                    MMMMMMATRICULA20000070000P                                                                          30630291727
D000000000001111555522221111      FG100149              20180222CUOTA                    MMMMMMATRICULA10000100000P                                                                          30630291727
D000000000001111555522221111      FG100150              20180222CUOTA                    MMMMMMATRICULA10000100000P                                                                          30630291727
D000000000001111555522221111      FG100151              20180222CUOTA                    MMMMMMATRICULA10000100000P                                                                          30630291727
D000000000001111555522221111      FG100153              20180222CUOTA                    MMMMMMATRICULA10000100000P                                                                          30630291727
D000000000001111555522221111      FG100157              20180222CUOTA                    MMMMMMATRICULA10000066500P                                                                          30630291727
D000000000001111555522221111      FG100158              20180222CUOTA                    MMMMMMATRICULA10000070000P                                                                          30630291727
D000000000001111555522221111      FG100167              20180222CUOTA                    MMMMMMATRICULA10000070000P                                                                          30630291727
D000000000001111555522221111      FG100168              20180222CUOTA                    MMMMMMATRICULA10000100000P                                                                          30630291727
D000000000001111555522221111      FG100168              20180222CUOTA                    MMMMMMATRICULA20000070000P                                                                          30630291727
D000000000001111555522221111      FG100169              20180222CUOTA                    MMMMMMATRICULA10000040000P                                                                          30630291727
D000000000001111555522221111      FG100169              20180222CUOTA                    MMMMMMATRICULA20000038000P                                                                          30630291727
D000000000001111555522221111      FG100171              20180222CUOTA                    MMMMMMATRICULA10000070000P                                                                          30630291727
D000000000001111555522221111      FG100175              20180222CUOTA                    MMMMMMATRICULA10000040000P                                                                          30630291727
D000000000001111555522221111      FG100175              20180222CUOTA                    MMMMMMATRICULA20000038000P                                                                          30630291727
D000000000001111555522221111      FG100175              20180222CUOTA                    MMMMMMATRICULA30000040000P                                                                          30630291727
D000000000001111555522221111      FG100175              20180222CUOTA                    MMMMMMATRICULA40000038000P                                                                          30630291727
D000000000001111555522221111      FG100175              20180222CUOTA                    MMMMMMATRICULA50000100000P                                                                          30630291727
D000000000001111555522221111      FG100175              20180222CUOTA                    MMMMMMATRICULA60000070000P                                                                          30630291727
D000000000001111555522221111      FG100177              20180222CUOTA                    MMMMMMATRICULA10000100000P                                                                          30630291727
D000000000001111555522221111      FG100177              20180222CUOTA                    MMMMMMATRICULA20000066500P                                                                          30630291727
D000000000001111555522221111      FG100178              20180222CUOTA                    MMMMMMATRICULA10000095000P                                                                          30630291727
D000000000001111555522221111      FG100180              20180222CUOTA                    MMMMMMATRICULA10000095000P                                                                          30630291727
D000000000001111555522221111      FG100183              20180222CUOTA                    MMMMMMATRICULA10000095000P                                                                          30630291727
D000000000001111555522221111      FG100184              20180222CUOTA                    MMMMMMATRICULA10000066500P                                                                          30630291727
D000000000001111555522221111      FG100198              20180222CUOTA                    MMMMMMATRICULA10000100000P                                                                          30630291727
D000000000001111555522221111      FG100201              20180222CUOTA                    MMMMMMATRICULA10000070000P                                                                          30630291727
D000000000001111555522221111      FG100202              20180222CUOTA                    MMMMMMATRICULA10000100000P                                                                          30630291727
D000000000001111555522221111      FG100207              20180222CUOTA                    MMMMMMATRICULA10000070000P                                                                          30630291727
D000000000001111555522221111      FG100208              20180222CUOTA                    MMMMMMATRICULA10000070000P                                                                          30630291727
D000000000001111555522221111      FG100210              20180222CUOTA                    MMMMMMATRICULA10000100000P                                                                          30630291727
D000000000001111555522221111      FG100211              20180222CUOTA                    MMMMMMATRICULA10000070000P                                                                          30630291727
D000000000001111555522221111      FG100215              20180222CUOTA                    MMMMMMATRICULA10000070000P                                                                          30630291727
D000000000001111555522221111      FG100217              20180222CUOTA                    MMMMMMATRICULA10000070000P                                                                          30630291727
D000000000001111555522221111      FG100218              20180222CUOTA                    MMMMMMATRICULA10000100000P                                                                          30630291727
D000000000001111555522221111      FG100230              20180222CUOTA                    MMMMMMATRICULA10000100000P                                                                          30630291727
D000000000001111555522221111      FG100231              20180222CUOTA                    MMMMMMATRICULA10000070000P                                                                          30630291727
D000000000001111555522221111      FG100232              20180222CUOTA                    MMMMMMATRICULA10000070000P                                                                          30630291727
D000000000001111555522221111      FG100235              20180222CUOTA                    MMMMMMATRICULA10000059500P                                                                          30630291727
D000000000001111555522221111      FG100237              20180222CUOTA                    MMMMMMATRICULA10000100000P                                                                          30630291727
D000000000001111555522221111      FG100239              20180222CUOTA                    MMMMMMATRICULA10000100000P                                                                          30630291727
D000000000001111555522221111      FG100239              20180222CUOTA                    MMMMMMATRICULA20000070000P                                                                          30630291727
D000000000001111555522221111      FG100243              20180222CUOTA                    MMMMMMATRICULA10000095000P                                                                          30630291727
D000000000001111555522221111      FG100248              20180222CUOTA                    MMMMMMATRICULA10000095000P                                                                          30630291727
D000000000001111555522221111      FG100253              20180222CUOTA                    MMMMMMATRICULA10000095000P                                                                          30630291727
D000000000001111555522221111      FG100275              20180222CUOTA                    MMMMMMATRICULA10000100000P                                                                          30630291727
D000000000001111555522221111      FG100276              20180222CUOTA                    MMMMMMATRICULA10000100000P                                                                          30630291727
D000000000001111555522221111      FG100277              20180222CUOTA                    MMMMMMATRICULA10000085000P                                                                          30630291727
D000000000001111555522221111      FG100278              20180222CUOTA                    MMMMMMATRICULA10000100000P                                                                          30630291727
D000000000001111555522221111      FG100282              20180222CUOTA                    MMMMMMATRICULA10000070000P                                                                          30630291727
D000000000001111555522221111      FG100282              20180222CUOTA                    MMMMMMATRICULA20000100000P                                                                          30630291727
D000000000001111555522221111      FG100284              20180222CUOTA                    MMMMMMATRICULA10000100000P                                                                          30630291727
D000000000001111555522221111      FG100284              20180222CUOTA                    MMMMMMATRICULA20000070000P                                                                          30630291727
D000000000001111555522221111      FG100285              20180222CUOTA                    MMMMMMATRICULA10000100000P                                                                          30630291727
D000000000001111555522221111      FG100287              20180222CUOTA                    MMMMMMATRICULA10000100000P                                                                          30630291727
D000000000001111555522221111      FG100288              20180222CUOTA                    MMMMMMATRICULA10000100000P                                                                          30630291727
D000000000001111555522221111      FG100289              20180222CUOTA                    MMMMMMATRICULA10000085000P                                                                          30630291727
D000000000001111555522221111      FG100289              20180222CUOTA                    MMMMMMATRICULA20000090000P                                                                          30630291727
D000000000001111555522221111      FG100290              20180222CUOTA                    MMMMMMATRICULA10000070000P                                                                          30630291727
D000000000001111555522221111      FG100290              20180222CUOTA                    MMMMMMATRICULA20000100000P                                                                          30630291727
D000000000001111555522221111      FG100291              20180222CUOTA                    MMMMMMATRICULA10000100000P                                                                          30630291727
D000000000001111555522221111      FG100292              20180222CUOTA                    MMMMMMATRICULA10000100000P                                                                          30630291727
D000000000001111555522221111      FG100293              20180222CUOTA                    MMMMMMATRICULA10000095000P                                                                          30630291727
D000000000001111555522221111      FG100298              20180222CUOTA                    MMMMMMATRICULA10000100000P                                                                          30630291727
D000000000001111555522221111      FG100301              20180222CUOTA                    MMMMMMATRICULA10000059500P                                                                          30630291727
D000000000001111555522221111      FG100301              20180222CUOTA                    MMMMMMATRICULA20000085000P                                                                          30630291727
D000000000001111555522221111      FG100302              20180222CUOTA                    MMMMMMATRICULA10000070000P                                                                          30630291727
D000000000001111555522221111      FG100302              20180222CUOTA                    MMMMMMATRICULA20000066500P                                                                          30630291727
D000000000001111555522221111      FG100302              20180222CUOTA                    MMMMMMATRICULA30000100000P                                                                          30630291727
D000000000001111555522221111      FG100305              20180222CUOTA                    MMMMMMATRICULA10000100000P                                                                          30630291727
D000000000001111555522221111      FG100308              20180222CUOTA                    MMMMMMATRICULA10000100000P                                                                          30630291727
D000000000001111555522221111      FG100308              20180222CUOTA                    MMMMMMATRICULA20000095000P                                                                          30630291727
D000000000001111555522221111      FG100309              20180222CUOTA                    MMMMMMATRICULA10000100000P                                                                          30630291727
D000000000001111555522221111      FG100309              20180222CUOTA                    MMMMMMATRICULA20000095000P                                                                          30630291727
D000000000001111555522221111      FG100312              20180222CUOTA                    MMMMMMATRICULA10000100000P                                                                          30630291727
D000000000001111555522221111      FG100316              20180222CUOTA                    MMMMMMATRICULA10000100000P                                                                          30630291727
D000000000001111555522221111      FG100316              20180222CUOTA                    MMMMMMATRICULA20000066500P                                                                          30630291727
D000000000001111555522221111      FG100317              20180222CUOTA                    MMMMMMATRICULA10000070000P                                                                          30630291727
D000000000001111555522221111      FG100318              20180222CUOTA                    MMMMMMATRICULA10000100000P                                                                          30630291727
D000000000001111555522221111      FG100320              20180222CUOTA                    MMMMMMATRICULA10000070000P                                                                          30630291727
D000000000001111555522221111      FG100320              20180222CUOTA                    MMMMMMATRICULA20000100000P                                                                          30630291727
D000000000001111555522221111      FG100330              20180222CUOTA                    MMMMMMATRICULA10000095000P                                                                          30630291727
D000000000001111555522221111      FG100333              20180222CUOTA                    MMMMMMATRICULA10000095000P                                                                          30630291727
D000000000001111555522221111      FG100335              20180222CUOTA                    MMMMMMATRICULA10000100000P                                                                          30630291727
D000000000001111555522221111      FG100336              20180222CUOTA                    MMMMMMATRICULA10000100000P                                                                          30630291727
D000000000001111555522221111      FG100337              20180222CUOTA                    MMMMMMATRICULA10000100000P                                                                          30630291727
D000000000001111555522221111      FG100338              20180222CUOTA                    MMMMMMATRICULA10000100000P                                                                          30630291727
D000000000001111555522221111      FG100340              20180222CUOTA                    MMMMMMATRICULA10000095000P                                                                          30630291727
D000000000001111555522221111      FG100344              20180222CUOTA                    MMMMMMATRICULA10000095000P                                                                          30630291727
D000000000001111555522221111      FG100346              20180222CUOTA                    MMMMMMATRICULA10000100000P                                                                          30630291727
D000000000001111555522221111      FG100346              20180222CUOTA                    MMMMMMATRICULA20000066500P                                                                          30630291727
D000000000001111555522221111      FG100347              20180222CUOTA                    MMMMMMATRICULA10000095000P                                                                          30630291727
D000000000001111555522221111      FG100349              20180222CUOTA                    MMMMMMATRICULA10000095000P                                                                          30630291727
D000000000001111555522221111      FG100350              20180222CUOTA                    MMMMMMATRICULA10000095000P                                                                          30630291727
D000000000001111555522221111      FG100352              20180222CUOTA                    MMMMMMATRICULA10000066500P                                                                          30630291727
D000000000001111555522221111      FG100353              20180222CUOTA                    MMMMMMATRICULA10000095000P                                                                          30630291727
D000000000001111555522221111      FG100355              20180222CUOTA                    MMMMMMATRICULA10000095000P                                                                          30630291727
D000000000001111555522221111      FG100356              20180222CUOTA                    MMMMMMATRICULA10000090000P                                                                          30630291727
D000000000001111555522221111      FG100360              20180222CUOTA                    MMMMMMATRICULA10000095000P                                                                          30630291727
D000000000001111555522221111      FG100372              20180222CUOTA                    MMMMMMATRICULA10000095000P                                                                          30630291727
D000000000001111555522221111      FG100373              20180222CUOTA                    MMMMMMATRICULA10000100000P                                                                          30630291727
D000000000001111555522221111      FG100373              20180222CUOTA                    MMMMMMATRICULA20000095000P                                                                          30630291727
D000000000001111555522221111      FG100374              20180222CUOTA                    MMMMMMATRICULA10000070000P                                                                          30630291727
D000000000001111555522221111      FG100374              20180222CUOTA                    MMMMMMATRICULA20000066500P                                                                          30630291727
D000000000001111555522221111      FG100375              20180222CUOTA                    MMMMMMATRICULA10000095000P                                                                          30630291727
D000000000001111555522221111      FG100379              20180222CUOTA                    MMMMMMATRICULA10000070000P                                                                          30630291727
D000000000001111555522221111      FG100379              20180222CUOTA                    MMMMMMATRICULA20000066500P                                                                          30630291727
D000000000001111555522221111      FG100381              20180222CUOTA                    MMMMMMATRICULA10000095000P                                                                          30630291727
D000000000001111555522221111      FG100382              20180222CUOTA                    MMMMMMATRICULA10000066500P                                                                          30630291727
D000000000001111555522221111      FG100382              20180222CUOTA                    MMMMMMATRICULA20000100000P                                                                          30630291727
D000000000001111555522221111      FG100384              20180222CUOTA                    MMMMMMATRICULA10000070000P                                                                          30630291727
D000000000001111555522221111      FG100384              20180222CUOTA                    MMMMMMATRICULA20000100000P                                                                          30630291727
D000000000001111555522221111      FG100385              20180222CUOTA                    MMMMMMATRICULA10000066500P                                                                          30630291727
D000000000001111555522221111      FG100386              20180222CUOTA                    MMMMMMATRICULA10000095000P                                                                          30630291727
D000000000001111555522221111      FG100387              20180222CUOTA                    MMMMMMATRICULA10000095000P                                                                          30630291727
D000000000001111555522221111      FG100392              20180222CUOTA                    MMMMMMATRICULA10000095000P                                                                          30630291727
D000000000001111555522221111      FG100393              20180222CUOTA                    MMMMMMATRICULA10000100000P                                                                          30630291727
D000000000001111555522221111      FG100393              20180222CUOTA                    MMMMMMATRICULA20000095000P                                                                          30630291727
D000000000001111555522221111      FG100402              20180222CUOTA                    MMMMMMATRICULA10000040000P                                                                          30630291727
D000000000001111555522221111      FG100402              20180222CUOTA                    MMMMMMATRICULA20000100000P                                                                          30630291727
D000000000001111555522221111      FG100411              20180222CUOTA                    MMMMMMATRICULA10000070000P                                                                          30630291727
D000000000001111555522221111      FG100412              20180222CUOTA                    MMMMMMATRICULA10000070000P                                                                          30630291727
D000000000001111555522221111      FG100412              20180222CUOTA                    MMMMMMATRICULA20000066500P                                                                          30630291727
D000000000001111555522221111      FG100415              20180222CUOTA                    MMMMMMATRICULA10000100000P                                                                          30630291727
D000000000001111555522221111      FG100426              20180222CUOTA                    MMMMMMATRICULA10000100000P                                                                          30630291727
D000000000001111555522221111      FG100426              20180222CUOTA                    MMMMMMATRICULA20000070000P                                                                          30630291727
D000000000001111555522221111      FG100428              20180222CUOTA                    MMMMMMATRICULA10000070000P                                                                          30630291727
D000000000001111555522221111      FG100428              20180222CUOTA                    MMMMMMATRICULA20000100000P                                                                          30630291727
D000000000001111555522221111      FG100430              20180222CUOTA                    MMMMMMATRICULA10000066500P                                                                          30630291727
D000000000001111555522221111      FG100436              20180222CUOTA                    MMMMMMATRICULA10000100000P                                                                          30630291727
D000000000001111555522221111      FG100439              20180222CUOTA                    MMMMMMATRICULA10000100000P                                                                          30630291727
D000000000001111555522221111      FG100440              20180222CUOTA                    MMMMMMATRICULA10000100000P                                                                          30630291727
D000000000001111555522221111      FG100445              20180222CUOTA                    MMMMMMATRICULA10000095000P                                                                          30630291727
D000000000001111555522221111      FG100445              20180222CUOTA                    MMMMMMATRICULA20000100000P                                                                          30630291727
D000000000001111555522221111      FG100448              20180222CUOTA                    MMMMMMATRICULA10000100000P                                                                          30630291727
D000000000001111555522221111      FG100449              20180222CUOTA                    MMMMMMATRICULA10000100000P                                                                          30630291727
D000000000001111555522221111      FG100450              20180222CUOTA                    MMMMMMATRICULA10000100000P                                                                          30630291727
D000000000001111555522221111      FG100451              20180222CUOTA                    MMMMMMATRICULA10000100000P                                                                          30630291727
D000000000001111555522221111      FG100455              20180222CUOTA                    MMMMMMATRICULA10000100000P                                                                          30630291727
D000000000001111555522221111      FG100456              20180222CUOTA                    MMMMMMATRICULA10000100000P                                                                          30630291727
D000000000001111555522221111      FG100458              20180222CUOTA                    MMMMMMATRICULA10000100000P                                                                          30630291727
D000000000001111555522221111      FG100459              20180222CUOTA                    MMMMMMATRICULA10000100000P                                                                          30630291727
D000000000001111555522221111      FG100460              20180222CUOTA                    MMMMMMATRICULA10000100000P                                                                          30630291727
D000000000001111555522221111      FG100461              20180222CUOTA                    MMMMMMATRICULA10000070000P                                                                          30630291727
D000000000001111555522221111      FG100461              20180222CUOTA                    MMMMMMATRICULA20000100000P                                                                          30630291727
D000000000001111555522221111      FG100462              20180222CUOTA                    MMMMMMATRICULA10000100000P                                                                          30630291727
D000000000001111555522221111      FG100463              20180222CUOTA                    MMMMMMATRICULA10000100000P                                                                          30630291727
D000000000001111555522221111      FG100464              20180222CUOTA                    MMMMMMATRICULA10000100000P                                                                          30630291727
D000000000001111555522221111      FG100464              20180222CUOTA                    MMMMMMATRICULA20000066500P                                                                          30630291727
D000000000001111555522221111      FG100467              20180222CUOTA                    MMMMMMATRICULA10000070000P                                                                          30630291727
D000000000001111555522221111      FG100468              20180222CUOTA                    MMMMMMATRICULA10000100000P                                                                          30630291727
D000000000001111555522221111      FG100470              20180222CUOTA                    MMMMMMATRICULA10000100000P                                                                          30630291727
D000000000001111555522221111      FG100471              20180222CUOTA                    MMMMMMATRICULA10000100000P                                                                          30630291727
D000000000001111555522221111      FG100473              20180222CUOTA                    MMMMMMATRICULA10000070000P                                                                          30630291727
D000000000001111555522221111      FG100484              20180222CUOTA                    MMMMMMATRICULA10000066500P                                                                          30630291727
D000000000001111555522221111      FG100485              20180222CUOTA                    MMMMMMATRICULA10000095000P                                                                          30630291727
D000000000001111555522221111      FG100486              20180222CUOTA                    MMMMMMATRICULA10000100000P                                                                          30630291727
D000000000001111555522221111      FG100486              20180222CUOTA                    MMMMMMATRICULA20000070000P                                                                          30630291727
D000000000001111555522221111      FG100487              20180222CUOTA                    MMMMMMATRICULA10000100000P                                                                          30630291727
D000000000001111555522221111      FG100487              20180222CUOTA                    MMMMMMATRICULA20000070000P                                                                          30630291727
D000000000001111555522221111      FG100488              20180222CUOTA                    MMMMMMATRICULA10000100000P                                                                          30630291727
D000000000001111555522221111      FG100489              20180222CUOTA                    MMMMMMATRICULA10000070000P                                                                          30630291727
D000000000001111555522221111      FG100489              20180222CUOTA                    MMMMMMATRICULA20000100000P                                                                          30630291727
D000000000001111555522221111      FG100490              20180222CUOTA                    MMMMMMATRICULA10000070000P                                                                          30630291727
D000000000001111555522221111      FG100490              20180222CUOTA                    MMMMMMATRICULA20000066500P                                                                          30630291727
D000000000001111555522221111      FG100492              20180222CUOTA                    MMMMMMATRICULA10000070000P                                                                          30630291727
D000000000001111555522221111      FG100492              20180222CUOTA                    MMMMMMATRICULA20000100000P                                                                          30630291727
D000000000001111555522221111      FG100494              20180222CUOTA                    MMMMMMATRICULA10000070000P                                                                          30630291727
D000000000001111555522221111      FG100494              20180222CUOTA                    MMMMMMATRICULA20000100000P                                                                          30630291727
D000000000001111555522221111      FG100495              20180222CUOTA                    MMMMMMATRICULA10000100000P                                                                          30630291727
D000000000001111555522221111      FG100495              20180222CUOTA                    MMMMMMATRICULA20000070000P                                                                          30630291727
D000000000001111555522221111      FG100497              20180222CUOTA                    MMMMMMATRICULA10000100000P                                                                          30630291727
D000000000001111555522221111      FG100531              20180222CUOTA                    MMMMMMATRICULA10000100000P                                                                          30630291727
D000000000001111555522221111      FG100535              20180222CUOTA                    MMMMMMATRICULA10000095000P                                                                          30630291727
D000000000001111555522221111      FG100537              20180222CUOTA                    MMMMMMATRICULA10000070000P                                                                          30630291727
D000000000001111555522221111      FG100538              20180222CUOTA                    MMMMMMATRICULA10000070000P                                                                          30630291727
D000000000001111555522221111      FG100538              20180222CUOTA                    MMMMMMATRICULA20000100000P                                                                          30630291727
D000000000001111555522221111      FG100539              20180222CUOTA                    MMMMMMATRICULA10000100000P                                                                          30630291727
D000000000001111555522221111      FG100539              20180222CUOTA                    MMMMMMATRICULA20000095000P                                                                          30630291727
D000000000001111555522221111      FG100540              20180222CUOTA                    MMMMMMATRICULA10000070000P                                                                          30630291727
D000000000001111555522221111      FG100540              20180222CUOTA                    MMMMMMATRICULA20000066500P                                                                          30630291727
D000000000001111555522221111      FG100540              20180222CUOTA                    MMMMMMATRICULA30000095000P                                                                          30630291727
D000000000001111555522221111      FG100542              20180222CUOTA                    MMMMMMATRICULA10000070000P                                                                          30630291727
D000000000001111555522221111      FG100542              20180222CUOTA                    MMMMMMATRICULA20000100000P                                                                          30630291727
D000000000001111555522221111      FG100543              20180222CUOTA                    MMMMMMATRICULA10000100000P                                                                          30630291727
D000000000001111555522221111      FG100544              20180222CUOTA                    MMMMMMATRICULA10000095000P                                                                          30630291727
D000000000001111555522221111      FG100547              20180222CUOTA                    MMMMMMATRICULA10000100000P                                                                          30630291727
D000000000001111555522221111      FG100547              20180222CUOTA                    MMMMMMATRICULA20000070000P                                                                          30630291727
D000000000001111555522221111      FG100551              20180222CUOTA                    MMMMMMATRICULA10000100000P                                                                          30630291727
D000000000001111555522221111      FG100555              20180222CUOTA                    MMMMMMATRICULA10000095000P                                                                          30630291727
D000000000001111555522221111      FG100556              20180222CUOTA                    MMMMMMATRICULA10000100000P                                                                          30630291727
D000000000001111555522221111      FG100557              20180222CUOTA                    MMMMMMATRICULA10000085000P                                                                          30630291727
D000000000001111555522221111      FG100559              20180222CUOTA                    MMMMMMATRICULA10000070000P                                                                          30630291727
D000000000001111555522221111      FG100560              20180222CUOTA                    MMMMMMATRICULA10000095000P                                                                          30630291727
D000000000001111555522221111      FG100564              20180222CUOTA                    MMMMMMATRICULA10000100000P                                                                          30630291727
D000000000001111555522221111      FG100566              20180222CUOTA                    MMMMMMATRICULA10000100000P                                                                          30630291727
D000000000001111555522221111      FG100569              20180222CUOTA                    MMMMMMATRICULA10000100000P                                                                          30630291727
D000000000001111555522221111      FG100574              20180222CUOTA                    MMMMMMATRICULA10000070000P                                                                          30630291727
D000000000001111555522221111      FG100574              20180222CUOTA                    MMMMMMATRICULA20000100000P                                                                          30630291727
D000000000001111555522221111      FG100576              20180222CUOTA                    MMMMMMATRICULA10000085000P                                                                          30630291727
D000000000001111555522221111      FG100578              20180222CUOTA                    MMMMMMATRICULA10000100000P                                                                          30630291727
D000000000001111555522221111      FG100579              20180222CUOTA                    MMMMMMATRICULA10000034000P                                                                          30630291727
D000000000001111555522221111      FG100579              20180222CUOTA                    MMMMMMATRICULA20000036000P                                                                          30630291727
D000000000001111555522221111      FG100579              20180222CUOTA                    MMMMMMATRICULA30000085000P                                                                          30630291727
D000000000001111555522221111      FG100579              20180222CUOTA                    MMMMMMATRICULA40000059500P                                                                          30630291727
D000000000001111555522221111      FG100581              20180222CUOTA                    MMMMMMATRICULA10000100000P                                                                          30630291727
D000000000001111555522221111      FG100603              20180222CUOTA                    MMMMMMATRICULA10000100000P                                                                          30630291727
D000000000001111555522221111      FG100604              20180222CUOTA                    MMMMMMATRICULA10000100000P                                                                          30630291727
D000000000001111555522221111      FG100606              20180222CUOTA                    MMMMMMATRICULA10000100000P                                                                          30630291727
D000000000001111555522221111      FG100608              20180222CUOTA                    MMMMMMATRICULA10000095000P                                                                          30630291727
D000000000001111555522221111      FG100611              20180222CUOTA                    MMMMMMATRICULA10000100000P                                                                          30630291727
D000000000001111555522221111      FG100613              20180222CUOTA                    MMMMMMATRICULA10000095000P                                                                          30630291727
D000000000001111555522221111      FG100614              20180222CUOTA                    MMMMMMATRICULA10000100000P                                                                          30630291727
D000000000001111555522221111      FG100615              20180222CUOTA                    MMMMMMATRICULA10000095000P                                                                          30630291727
D000000000001111555522221111      FG100616              20180222CUOTA                    MMMMMMATRICULA10000095000P                                                                          30630291727
D000000000001111555522221111      FG100620              20180222CUOTA                    MMMMMMATRICULA10000100000P                                                                          30630291727
D000000000001111555522221111      FG100623              20180222CUOTA                    MMMMMMATRICULA10000095000P                                                                          30630291727
D000000000001111555522221111      FG100623              20180222CUOTA                    MMMMMMATRICULA20000070000P                                                                          30630291727
D000000000001111555522221111      FG100623              20180222CUOTA                    MMMMMMATRICULA30000066500P                                                                          30630291727
D000000000001111555522221111      FG100625              20180222CUOTA                    MMMMMMATRICULA10000100000P                                                                          30630291727
D000000000001111555522221111      FG100631              20180222CUOTA                    MMMMMMATRICULA10000100000P                                                                          30630291727
D000000000001111555522221111      FG100631              20180222CUOTA                    MMMMMMATRICULA20000070000P                                                                          30630291727
D000000000001111555522221111      FG100632              20180222CUOTA                    MMMMMMATRICULA10000100000P                                                                          30630291727
D000000000001111555522221111      FG100635              20180222CUOTA                    MMMMMMATRICULA10000095000P                                                                          30630291727
D000000000001111555522221111      FG100636              20180222CUOTA                    MMMMMMATRICULA10000100000P                                                                          30630291727
D000000000001111555522221111      FG100636              20180222CUOTA                    MMMMMMATRICULA20000070000P                                                                          30630291727
D000000000001111555522221111      FG100637              20180222CUOTA                    MMMMMMATRICULA10000100000P                                                                          30630291727
D000000000001111555522221111      FG100642              20180222CUOTA                    MMMMMMATRICULA10000070000P                                                                          30630291727
D000000000001111555522221111      FG100642              20180222CUOTA                    MMMMMMATRICULA20000066500P                                                                          30630291727
D000000000001111555522221111      FG100645              20180222CUOTA                    MMMMMMATRICULA10000100000P                                                                          30630291727
D000000000001111555522221111      FG100660              20180222CUOTA                    MMMMMMATRICULA10000100000P                                                                          30630291727
D000000000001111555522221111      FG100660              20180222CUOTA                    MMMMMMATRICULA20000095000P                                                                          30630291727
D000000000001111555522221111      FG100669              20180222CUOTA                    MMMMMMATRICULA10000100000P                                                                          30630291727
D000000000001111555522221111      FG100669              20180222CUOTA                    MMMMMMATRICULA20000095000P                                                                          30630291727
D000000000001111555522221111      FG100702              20180222CUOTA                    MMMMMMATRICULA10000100000P                                                                          30630291727
D000000000001111555522221111      FG100703              20180222CUOTA                    MMMMMMATRICULA10000100000P                                                                          30630291727
D000000000001111555522221111      FG100704              20180222CUOTA                    MMMMMMATRICULA10000070000P                                                                          30630291727
D000000000001111555522221111      FG100704              20180222CUOTA                    MMMMMMATRICULA20000100000P                                                                          30630291727
D000000000001111555522221111      FG100705              20180222CUOTA                    MMMMMMATRICULA10000070000P                                                                          30630291727
D000000000001111555522221111      FG100705              20180222CUOTA                    MMMMMMATRICULA20000100000P                                                                          30630291727
D000000000001111555522221111      FG100706              20180222CUOTA                    MMMMMMATRICULA10000100000P                                                                          30630291727
D000000000001111555522221111      FG100707              20180222CUOTA                    MMMMMMATRICULA10000100000P                                                                          30630291727
D000000000001111555522221111      FG100708              20180222CUOTA                    MMMMMMATRICULA10000100000P                                                                          30630291727
D000000000001111555522221111      FG100709              20180222CUOTA                    MMMMMMATRICULA10000100000P                                                                          30630291727
D000000000001111555522221111      FG100710              20180222CUOTA                    MMMMMMATRICULA10000100000P                                                                          30630291727
D000000000001111555522221111      FG100711              20180222CUOTA                    MMMMMMATRICULA10000100000P                                                                          30630291727
D000000000001111555522221111      FG100711              20180222CUOTA                    MMMMMMATRICULA20000070000P                                                                          30630291727
D000000000001111555522221111      FG100712              20180222CUOTA                    MMMMMMATRICULA10000100000P                                                                          30630291727
D000000000001111555522221111      FG100713              20180222CUOTA                    MMMMMMATRICULA10000100000P                                                                          30630291727
D000000000001111555522221111      FG100714              20180222CUOTA                    MMMMMMATRICULA10000070000P                                                                          30630291727
D000000000001111555522221111      FG100714              20180222CUOTA                    MMMMMMATRICULA20000100000P                                                                          30630291727
D000000000001111555522221111      FG100714              20180222CUOTA                    MMMMMMATRICULA30000040000P                                                                          30630291727
D000000000001111555522221111      FG100715              20180222CUOTA                    MMMMMMATRICULA10000070000P                                                                          30630291727
D000000000001111555522221111      FG100715              20180222CUOTA                    MMMMMMATRICULA20000100000P                                                                          30630291727
D000000000001111555522221111      FG100716              20180222CUOTA                    MMMMMMATRICULA10000100000P                                                                          30630291727
D000000000001111555522221111      FG100717              20180222CUOTA                    MMMMMMATRICULA10000070000P                                                                          30630291727
D000000000001111555522221111      FG100717              20180222CUOTA                    MMMMMMATRICULA20000100000P                                                                          30630291727
D000000000001111555522221111      FG100718              20180222CUOTA                    MMMMMMATRICULA10000100000P                                                                          30630291727
D000000000001111555522221111      FG100719              20180222CUOTA                    MMMMMMATRICULA10000070000P                                                                          30630291727
D000000000001111555522221111      FG100719              20180222CUOTA                    MMMMMMATRICULA20000100000P                                                                          30630291727
D000000000001111555522221111      FG100720              20180222CUOTA                    MMMMMMATRICULA10000100000P                                                                          30630291727
D000000000001111555522221111      FG100721              20180222CUOTA                    MMMMMMATRICULA10000070000P                                                                          30630291727
D000000000001111555522221111      FG100721              20180222CUOTA                    MMMMMMATRICULA20000100000P                                                                          30630291727
D000000000001111555522221111      FG100722              20180222CUOTA                    MMMMMMATRICULA10000070000P                                                                          30630291727
D000000000001111555522221111      FG100722              20180222CUOTA                    MMMMMMATRICULA20000100000P                                                                          30630291727
D000000000001111555522221111      FG100723              20180222CUOTA                    MMMMMMATRICULA10000100000P                                                                          30630291727
D000000000001111555522221111      FG100724              20180222CUOTA                    MMMMMMATRICULA10000100000P                                                                          30630291727
D000000000001111555522221111      FG100725              20180222CUOTA                    MMMMMMATRICULA10000100000P                                                                          30630291727
D000000000001111555522221111      FG100725              20180222CUOTA                    MMMMMMATRICULA20000070000P                                                                          30630291727
D000000000001111555522221111      FG100726              20180222CUOTA                    MMMMMMATRICULA10000100000P                                                                          30630291727
D000000000001111555522221111      FG100727              20180222CUOTA                    MMMMMMATRICULA10000070000P                                                                          30630291727
D000000000001111555522221111      FG100727              20180222CUOTA                    MMMMMMATRICULA20000100000P                                                                          30630291727
D000000000001111555522221111      FG100728              20180222CUOTA                    MMMMMMATRICULA10000100000P                                                                          30630291727
D000000000001111555522221111      FG100729              20180222CUOTA                    MMMMMMATRICULA10000100000P                                                                          30630291727
D000000000001111555522221111      FG100731              20180222CUOTA                    MMMMMMATRICULA10000100000P                                                                          30630291727
D000000000001111555522221111      FG100732              20180222CUOTA                    MMMMMMATRICULA10000095000P                                                                          30630291727
D000000000001111555522221111      FG100734              20180222CUOTA                    MMMMMMATRICULA10000095000P                                                                          30630291727
D000000000001111555522221111      FG100735              20180222CUOTA                    MMMMMMATRICULA10000066500P                                                                          30630291727
D000000000001111555522221111      FG100735              20180222CUOTA                    MMMMMMATRICULA20000070000P                                                                          30630291727
D000000000001111555522221111      FG100737              20180222CUOTA                    MMMMMMATRICULA10000095000P                                                                          30630291727
D000000000001111555522221111      FG100739              20180222CUOTA                    MMMMMMATRICULA10000095000P                                                                          30630291727
D000000000001111555522221111      FG100743              20180222CUOTA                    MMMMMMATRICULA10000095000P                                                                          30630291727
D000000000001111555522221111      FG100745              20180222CUOTA                    MMMMMMATRICULA10000095000P                                                                          30630291727
D000000000001111555522221111      FG100747              20180222CUOTA                    MMMMMMATRICULA10000100000P                                                                          30630291727
D000000000001111555522221111      FG100747              20180222CUOTA                    MMMMMMATRICULA20000095000P                                                                          30630291727
D000000000001111555522221111      FG100748              20180222CUOTA                    MMMMMMATRICULA10000100000P                                                                          30630291727
D000000000001111555522221111      FG100748              20180222CUOTA                    MMMMMMATRICULA20000095000P                                                                          30630291727
D000000000001111555522221111      FG100749              20180222CUOTA                    MMMMMMATRICULA10000100000P                                                                          30630291727
D000000000001111555522221111      FG100749              20180222CUOTA                    MMMMMMATRICULA20000095000P                                                                          30630291727
D000000000001111555522221111      FG100750              20180222CUOTA                    MMMMMMATRICULA10000100000P                                                                          30630291727
D000000000001111555522221111      FG100750              20180222CUOTA                    MMMMMMATRICULA20000095000P                                                                          30630291727
D000000000001111555522221111      FG100751              20180222CUOTA                    MMMMMMATRICULA10000085000P                                                                          30630291727
D000000000001111555522221111      FG100751              20180222CUOTA                    MMMMMMATRICULA20000059500P                                                                          30630291727
D000000000001111555522221111      FG100751              20180222CUOTA                    MMMMMMATRICULA30000063000P                                                                          30630291727
D000000000001111555522221111      FG100752              20180222CUOTA                    MMMMMMATRICULA10000095000P                                                                          30630291727
D000000000001111555522221111      FG100752              20180222CUOTA                    MMMMMMATRICULA20000100000P                                                                          30630291727
D000000000001111555522221111      FG100753              20180222CUOTA                    MMMMMMATRICULA10000100000P                                                                          30630291727
D000000000001111555522221111      FG100753              20180222CUOTA                    MMMMMMATRICULA20000095000P                                                                          30630291727
D000000000001111555522221111      FG100754              20180222CUOTA                    MMMMMMATRICULA10000100000P                                                                          30630291727
D000000000001111555522221111      FG100754              20180222CUOTA                    MMMMMMATRICULA20000095000P                                                                          30630291727
D000000000001111555522221111      FG100755              20180222CUOTA                    MMMMMMATRICULA10000095000P                                                                          30630291727
D000000000001111555522221111      FG100755              20180222CUOTA                    MMMMMMATRICULA20000100000P                                                                          30630291727
D000000000001111555522221111      FG100756              20180222CUOTA                    MMMMMMATRICULA10000100000P                                                                          30630291727
D000000000001111555522221111      FG100756              20180222CUOTA                    MMMMMMATRICULA20000095000P                                                                          30630291727
D000000000001111555522221111      FG100757              20180222CUOTA                    MMMMMMATRICULA10000100000P                                                                          30630291727
D000000000001111555522221111      FG100757              20180222CUOTA                    MMMMMMATRICULA20000095000P                                                                          30630291727
D000000000001111555522221111      FG100758              20180222CUOTA                    MMMMMMATRICULA10000100000P                                                                          30630291727
D000000000001111555522221111      FG100758              20180222CUOTA                    MMMMMMATRICULA20000095000P                                                                          30630291727
D000000000001111555522221111      FG100759              20180222CUOTA                    MMMMMMATRICULA10000100000P                                                                          30630291727
D000000000001111555522221111      FG100759              20180222CUOTA                    MMMMMMATRICULA20000095000P                                                                          30630291727
D000000000001111555522221111      FG100760              20180222CUOTA                    MMMMMMATRICULA10000070000P                                                                          30630291727
D000000000001111555522221111      FG100760              20180222CUOTA                    MMMMMMATRICULA20000066500P                                                                          30630291727
D000000000001111555522221111      FG100760              20180222CUOTA                    MMMMMMATRICULA30000100000P                                                                          30630291727
D000000000001111555522221111      FG100761              20180222CUOTA                    MMMMMMATRICULA10000100000P                                                                          30630291727
D000000000001111555522221111      FG100761              20180222CUOTA                    MMMMMMATRICULA20000095000P                                                                          30630291727
D000000000001111555522221111      FG100762              20180222CUOTA                    MMMMMMATRICULA10000100000P                                                                          30630291727
D000000000001111555522221111      FG100762              20180222CUOTA                    MMMMMMATRICULA20000095000P                                                                          30630291727
D000000000001111555522221111      FG100763              20180222CUOTA                    MMMMMMATRICULA10000100000P                                                                          30630291727
D000000000001111555522221111      FG100763              20180222CUOTA                    MMMMMMATRICULA20000095000P                                                                          30630291727
D000000000001111555522221111      FG100764              20180222CUOTA                    MMMMMMATRICULA10000100000P                                                                          30630291727
D000000000001111555522221111      FG100764              20180222CUOTA                    MMMMMMATRICULA20000095000P                                                                          30630291727
D000000000001111555522221111      FG100765              20180222CUOTA                    MMMMMMATRICULA10000100000P                                                                          30630291727
D000000000001111555522221111      FG100765              20180222CUOTA                    MMMMMMATRICULA20000095000P                                                                          30630291727
D000000000001111555522221111      FG100766              20180222CUOTA                    MMMMMMATRICULA10000100000P                                                                          30630291727
D000000000001111555522221111      FG100766              20180222CUOTA                    MMMMMMATRICULA20000095000P                                                                          30630291727
D000000000001111555522221111      FG100767              20180222CUOTA                    MMMMMMATRICULA10000100000P                                                                          30630291727
D000000000001111555522221111      FG100767              20180222CUOTA                    MMMMMMATRICULA20000095000P                                                                          30630291727
D000000000001111555522221111      FG100768              20180222CUOTA                    MMMMMMATRICULA10000100000P                                                                          30630291727
D000000000001111555522221111      FG100768              20180222CUOTA                    MMMMMMATRICULA20000095000P                                                                          30630291727
D000000000001111555522221111      FG100769              20180222CUOTA                    MMMMMMATRICULA10000100000P                                                                          30630291727
D000000000001111555522221111      FG100769              20180222CUOTA                    MMMMMMATRICULA20000095000P                                                                          30630291727
D000000000001111555522221111      FG100770              20180222CUOTA                    MMMMMMATRICULA10000100000P                                                                          30630291727
D000000000001111555522221111      FG100770              20180222CUOTA                    MMMMMMATRICULA20000095000P                                                                          30630291727
D000000000001111555522221111      FG100771              20180222CUOTA                    MMMMMMATRICULA10000100000P                                                                          30630291727
D000000000001111555522221111      FG100771              20180222CUOTA                    MMMMMMATRICULA20000095000P                                                                          30630291727
D000000000001111555522221111      FG100772              20180222CUOTA                    MMMMMMATRICULA10000095000P                                                                          30630291727
D000000000001111555522221111      FG100772              20180222CUOTA                    MMMMMMATRICULA20000100000P                                                                          30630291727
D000000000001111555522221111      FG100773              20180222CUOTA                    MMMMMMATRICULA10000095000P                                                                          30630291727
D000000000001111555522221111      FG100773              20180222CUOTA                    MMMMMMATRICULA20000100000P                                                                          30630291727
D000000000001111555522221111      FG100774              20180222CUOTA                    MMMMMMATRICULA10000100000P                                                                          30630291727
D000000000001111555522221111      FG100774              20180222CUOTA                    MMMMMMATRICULA20000095000P                                                                          30630291727
D000000000001111555522221111      FG100775              20180222CUOTA                    MMMMMMATRICULA10000100000P                                                                          30630291727
D000000000001111555522221111      FG100776              20180222CUOTA                    MMMMMMATRICULA10000100000P                                                                          30630291727
D000000000001111555522221111      FG100776              20180222CUOTA                    MMMMMMATRICULA20000070000P                                                                          30630291727
D000000000001111555522221111      FG100777              20180222CUOTA                    MMMMMMATRICULA10000100000P                                                                          30630291727
D000000000001111555522221111      FG100778              20180222CUOTA                    MMMMMMATRICULA10000100000P                                                                          30630291727
D000000000001111555522221111      FG100779              20180222CUOTA                    MMMMMMATRICULA10000100000P                                                                          30630291727
D000000000001111555522221111      FG100780              20180222CUOTA                    MMMMMMATRICULA10000100000P                                                                          30630291727
D000000000001111555522221111      FG100782              20180222CUOTA                    MMMMMMATRICULA10000070000P                                                                          30630291727
D000000000001111555522221111      FG100783              20180222CUOTA                    MMMMMMATRICULA10000070000P                                                                          30630291727
D000000000001111555522221111      FG100784              20180222CUOTA                    MMMMMMATRICULA10000100000P                                                                          30630291727
D000000000001111555522221111      FG100787              20180222CUOTA                    MMMMMMATRICULA10000100000P                                                                          30630291727
D000000000001111555522221111      FG100789              20180222CUOTA                    MMMMMMATRICULA10000100000P                                                                          30630291727
D000000000001111555522221111      FG100790              20180222CUOTA                    MMMMMMATRICULA10000085000P                                                                          30630291727
D000000000001111555522221111      FG100791              20180222CUOTA                    MMMMMMATRICULA10000100000P                                                                          30630291727
D000000000001111555522221111      FG100792              20180222CUOTA                    MMMMMMATRICULA10000100000P                                                                          30630291727
D000000000001111555522221111      FG100792              20180222CUOTA                    MMMMMMATRICULA20000095000P                                                                          30630291727
D000000000001111555522221111      FG100794              20180222CUOTA                    MMMMMMATRICULA10000100000P                                                                          30630291727
D000000000001111555522221111      FG100798              20180222CUOTA                    MMMMMMATRICULA10000100000P                                                                          30630291727
D000000000001111555522221111      FG100799              20180222CUOTA                    MMMMMMATRICULA10000100000P                                                                          30630291727
D000000000001111555522221111      FG100802              20180222CUOTA                    MMMMMMATRICULA10000100000P                                                                          30630291727
D000000000001111555522221111      FG100805              20180222CUOTA                    MMMMMMATRICULA10000100000P                                                                          30630291727
D000000000001111555522221111      FG100805              20180222CUOTA                    MMMMMMATRICULA20000095000P                                                                          30630291727
D000000000001111555522221111      FG100807              20180222CUOTA                    MMMMMMATRICULA10000100000P                                                                          30630291727
D000000000001111555522221111      FG100808              20180222CUOTA                    MMMMMMATRICULA10000100000P                                                                          30630291727
D000000000001111555522221111      FG100813              20180222CUOTA                    MMMMMMATRICULA10000100000P                                                                          30630291727
D000000000001111555522221111      FG100813              20180222CUOTA                    MMMMMMATRICULA20000095000P                                                                          30630291727
D000000000001111555522221111      FG100817              20180222CUOTA                    MMMMMMATRICULA10000095000P                                                                          30630291727
D000000000001111555522221111      FG100821              20180222CUOTA                    MMMMMMATRICULA10000100000P                                                                          30630291727
D000000000001111555522221111      FG100823              20180222CUOTA                    MMMMMMATRICULA10000100000P                                                                          30630291727
D000000000001111555522221111      FG100826              20180222CUOTA                    MMMMMMATRICULA10000100000P                                                                          30630291727
D000000000001111555522221111      FG100827              20180222CUOTA                    MMMMMMATRICULA10000100000P                                                                          30630291727
D000000000001111555522221111      FG100828              20180222CUOTA                    MMMMMMATRICULA10000070000P                                                                          30630291727
D000000000001111555522221111      FG100828              20180222CUOTA                    MMMMMMATRICULA20000100000P                                                                          30630291727
D000000000001111555522221111      FG100829              20180222CUOTA                    MMMMMMATRICULA10000100000P                                                                          30630291727
D000000000001111555522221111      FG100838              20180222CUOTA                    MMMMMMATRICULA10000085000P                                                                          30630291727
T0000478000000042363500                                                                                                                                                                                 
