H30630291727CUOTA     61822022018            COLEGIO VECCHI                                                                                                                                             
D00000000000                      FG100001              10032018CUOTA                    MMMMMMATRICULA10000145000P                                                                          30630291727
D00000000000                      FG100002              10032018CUOTA                    MMMMMMATRICULA10000145000P                                                                          30630291727
D00000000000                      FG100003              10032018CUOTA                    MMMMMMATRICULA10000145000P                                                                          30630291727
D00000000000                      FG100004              10032018CUOTA                    MMMMMMATRICULA10000101500P                                                                          30630291727
D00000000000                      FG100004              10032018CUOTA                    MMMMMMATRICULA20000101500P                                                                          30630291727
D00000000000                      FG100005              10032018CUOTA                    MMMMMMATRICULA10000145000P                                                                          30630291727
D00000000000                      FG100006              10032018CUOTA                    MMMMMMATRICULA10000145000P                                                                          30630291727
D00000000000                      FG100007              10032018CUOTA                    MMMMMMATRICULA10000101500P                                                                          30630291727
D00000000000                      FG100007              10032018CUOTA                    MMMMMMATRICULA20000120000P                                                                          30630291727
D00000000000                      FG100008              10032018CUOTA                    MMMMMMATRICULA10000145000P                                                                          30630291727
D00000000000                      FG100009              10032018CUOTA                    MMMMMMATRICULA10000145000P                                                                          30630291727
D00000000000                      FG100010              10032018CUOTA                    MMMMMMATRICULA10000120000P                                                                          30630291727
D00000000000                      FG100010              10032018CUOTA                    MMMMMMATRICULA20000101500P                                                                          30630291727
D00000000000                      FG100011              10032018CUOTA                    MMMMMMATRICULA10000145000P                                                                          30630291727
D00000000000                      FG100014              10032018CUOTA                    MMMMMMATRICULA10000145000P                                                                          30630291727
D00000000000                      FG100015              10032018CUOTA                    MMMMMMATRICULA10000101500P                                                                          30630291727
D00000000000                      FG100015              10032018CUOTA                    MMMMMMATRICULA20000120000P                                                                          30630291727
D00000000000                      FG100016              10032018CUOTA                    MMMMMMATRICULA10000058000P                                                                          30630291727
D00000000000                      FG100016              10032018CUOTA                    MMMMMMATRICULA20000120000P                                                                          30630291727
D00000000000                      FG100016              10032018CUOTA                    MMMMMMATRICULA30000101500P                                                                          30630291727
D00000000000                      FG100017              10032018CUOTA                    MMMMMMATRICULA10000145000P                                                                          30630291727
D00000000000                      FG100018              10032018CUOTA                    MMMMMMATRICULA10000145000P                                                                          30630291727
D00000000000                      FG100019              10032018CUOTA                    MMMMMMATRICULA10000145000P                                                                          30630291727
D00000000000                      FG100020              10032018CUOTA                    MMMMMMATRICULA10000145000P                                                                          30630291727
D00000000000                      FG100021              10032018CUOTA                    MMMMMMATRICULA10000120000P                                                                          30630291727
D00000000000                      FG100021              10032018CUOTA                    MMMMMMATRICULA20000101500P                                                                          30630291727
D00000000000                      FG100022              10032018CUOTA                    MMMMMMATRICULA10000145000P                                                                          30630291727
D00000000000                      FG100023              10032018CUOTA                    MMMMMMATRICULA10000145000P                                                                          30630291727
D00000000000                      FG100024              10032018CUOTA                    MMMMMMATRICULA10000101500P                                                                          30630291727
D00000000000                      FG100024              10032018CUOTA                    MMMMMMATRICULA20000101500P                                                                          30630291727
D00000000000                      FG100027              10032018CUOTA                    MMMMMMATRICULA10000101500P                                                                          30630291727
D00000000000                      FG100027              10032018CUOTA                    MMMMMMATRICULA20000120000P                                                                          30630291727
D00000000000                      FG100028              10032018CUOTA                    MMMMMMATRICULA10000145000P                                                                          30630291727
D00000000000                      FG100029              10032018CUOTA                    MMMMMMATRICULA10000145000P                                                                          30630291727
D00000000000                      FG100030              10032018CUOTA                    MMMMMMATRICULA10000145000P                                                                          30630291727
D00000000000                      FG100031              10032018CUOTA                    MMMMMMATRICULA10000145000P                                                                          30630291727
D00000000000                      FG100032              10032018CUOTA                    MMMMMMATRICULA10000145000P                                                                          30630291727
D00000000000                      FG100033              10032018CUOTA                    MMMMMMATRICULA10000101500P                                                                          30630291727
D00000000000                      FG100033              10032018CUOTA                    MMMMMMATRICULA20000145000P                                                                          30630291727
D00000000000                      FG100034              10032018CUOTA                    MMMMMMATRICULA10000101500P                                                                          30630291727
D00000000000                      FG100034              10032018CUOTA                    MMMMMMATRICULA20000120000P                                                                          30630291727
D00000000000                      FG100034              10032018CUOTA                    MMMMMMATRICULA30000058000P                                                                          30630291727
D00000000000                      FG100035              10032018CUOTA                    MMMMMMATRICULA10000145000P                                                                          30630291727
D00000000000                      FG100036              10032018CUOTA                    MMMMMMATRICULA10000145000P                                                                          30630291727
D00000000000                      FG100037              10032018CUOTA                    MMMMMMATRICULA10000145000P                                                                          30630291727
D00000000000                      FG100038              10032018CUOTA                    MMMMMMATRICULA10000145000P                                                                          30630291727
D00000000000                      FG100039              10032018CUOTA                    MMMMMMATRICULA10000145000P                                                                          30630291727
D00000000000                      FG100040              10032018CUOTA                    MMMMMMATRICULA10000145000P                                                                          30630291727
D00000000000                      FG100041              10032018CUOTA                    MMMMMMATRICULA10000145000P                                                                          30630291727
D00000000000                      FG100042              10032018CUOTA                    MMMMMMATRICULA10000145000P                                                                          30630291727
D00000000000                      FG100043              10032018CUOTA                    MMMMMMATRICULA10000145000P                                                                          30630291727
D00000000000                      FG100044              10032018CUOTA                    MMMMMMATRICULA10000145000P                                                                          30630291727
D00000000000                      FG100045              10032018CUOTA                    MMMMMMATRICULA10000101500P                                                                          30630291727
D00000000000                      FG100045              10032018CUOTA                    MMMMMMATRICULA20000101500P                                                                          30630291727
D00000000000                      FG100046              10032018CUOTA                    MMMMMMATRICULA10000120000P                                                                          30630291727
D00000000000                      FG100047              10032018CUOTA                    MMMMMMATRICULA10000145000P                                                                          30630291727
D00000000000                      FG100048              10032018CUOTA                    MMMMMMATRICULA10000101500P                                                                          30630291727
D00000000000                      FG100048              10032018CUOTA                    MMMMMMATRICULA20000101500P                                                                          30630291727
D00000000000                      FG100049              10032018CUOTA                    MMMMMMATRICULA10000145000P                                                                          30630291727
D00000000000                      FG100050              10032018CUOTA                    MMMMMMATRICULA10000101500P                                                                          30630291727
D00000000000                      FG100050              10032018CUOTA                    MMMMMMATRICULA20000145000P                                                                          30630291727
D00000000000                      FG100051              10032018CUOTA                    MMMMMMATRICULA10000145000P                                                                          30630291727
D00000000000                      FG100051              10032018CUOTA                    MMMMMMATRICULA20000101500P                                                                          30630291727
D00000000000                      FG100052              10032018CUOTA                    MMMMMMATRICULA10000145000P                                                                          30630291727
D00000000000                      FG100053              10032018CUOTA                    MMMMMMATRICULA10000145000P                                                                          30630291727
D00000000000                      FG100054              10032018CUOTA                    MMMMMMATRICULA10000145000P                                                                          30630291727
D00000000000                      FG100055              10032018CUOTA                    MMMMMMATRICULA10000145000P                                                                          30630291727
D00000000000                      FG100056              10032018CUOTA                    MMMMMMATRICULA10000145000P                                                                          30630291727
D00000000000                      FG100062              10032018CUOTA                    MMMMMMATRICULA10000145000P                                                                          30630291727
D00000000000                      FG100065              10032018CUOTA                    MMMMMMATRICULA10000145000P                                                                          30630291727
D00000000000                      FG100068              10032018CUOTA                    MMMMMMATRICULA10000101500P                                                                          30630291727
D00000000000                      FG100068              10032018CUOTA                    MMMMMMATRICULA20000145000P                                                                          30630291727
D00000000000                      FG100069              10032018CUOTA                    MMMMMMATRICULA10000120000P                                                                          30630291727
D00000000000                      FG100070              10032018CUOTA                    MMMMMMATRICULA10000145000P                                                                          30630291727
D00000000000                      FG100071              10032018CUOTA                    MMMMMMATRICULA10000101500P                                                                          30630291727
D00000000000                      FG100071              10032018CUOTA                    MMMMMMATRICULA20000145000P                                                                          30630291727
D00000000000                      FG100072              10032018CUOTA                    MMMMMMATRICULA10000145000P                                                                          30630291727
D00000000000                      FG100073              10032018CUOTA                    MMMMMMATRICULA10000145000P                                                                          30630291727
D00000000000                      FG100074              10032018CUOTA                    MMMMMMATRICULA10000145000P                                                                          30630291727
D00000000000                      FG100074              10032018CUOTA                    MMMMMMATRICULA20000101500P                                                                          30630291727
D00000000000                      FG100075              10032018CUOTA                    MMMMMMATRICULA10000145000P                                                                          30630291727
D00000000000                      FG100076              10032018CUOTA                    MMMMMMATRICULA10000145000P                                                                          30630291727
D00000000000                      FG100077              10032018CUOTA                    MMMMMMATRICULA10000145000P                                                                          30630291727
D00000000000                      FG100078              10032018CUOTA                    MMMMMMATRICULA10000145000P                                                                          30630291727
D00000000000                      FG100079              10032018CUOTA                    MMMMMMATRICULA10000101500P                                                                          30630291727
D00000000000                      FG100079              10032018CUOTA                    MMMMMMATRICULA20000145000P                                                                          30630291727
D00000000000                      FG100080              10032018CUOTA                    MMMMMMATRICULA10000145000P                                                                          30630291727
D00000000000                      FG100081              10032018CUOTA                    MMMMMMATRICULA10000101500P                                                                          30630291727
D00000000000                      FG100081              10032018CUOTA                    MMMMMMATRICULA20000120000P                                                                          30630291727
D00000000000                      FG100082              10032018CUOTA                    MMMMMMATRICULA10000101500P                                                                          30630291727
D00000000000                      FG100082              10032018CUOTA                    MMMMMMATRICULA20000120000P                                                                          30630291727
D00000000000                      FG100083              10032018CUOTA                    MMMMMMATRICULA10000145000P                                                                          30630291727
D00000000000                      FG100084              10032018CUOTA                    MMMMMMATRICULA10000145000P                                                                          30630291727
D00000000000                      FG100085              10032018CUOTA                    MMMMMMATRICULA10000145000P                                                                          30630291727
D00000000000                      FG100086              10032018CUOTA                    MMMMMMATRICULA10000145000P                                                                          30630291727
D00000000000                      FG100087              10032018CUOTA                    MMMMMMATRICULA10000145000P                                                                          30630291727
D00000000000                      FG100088              10032018CUOTA                    MMMMMMATRICULA10000145000P                                                                          30630291727
D00000000000                      FG100089              10032018CUOTA                    MMMMMMATRICULA10000145000P                                                                          30630291727
D00000000000                      FG100090              10032018CUOTA                    MMMMMMATRICULA10000145000P                                                                          30630291727
D00000000000                      FG100091              10032018CUOTA                    MMMMMMATRICULA10000145000P                                                                          30630291727
D00000000000                      FG100092              10032018CUOTA                    MMMMMMATRICULA10000101500P                                                                          30630291727
D00000000000                      FG100092              10032018CUOTA                    MMMMMMATRICULA20000120000P                                                                          30630291727
D00000000000                      FG100093              10032018CUOTA                    MMMMMMATRICULA10000145000P                                                                          30630291727
D00000000000                      FG100094              10032018CUOTA                    MMMMMMATRICULA10000145000P                                                                          30630291727
D00000000000                      FG100095              10032018CUOTA                    MMMMMMATRICULA10000145000P                                                                          30630291727
D00000000000                      FG100096              10032018CUOTA                    MMMMMMATRICULA10000101500P                                                                          30630291727
D00000000000                      FG100096              10032018CUOTA                    MMMMMMATRICULA20000120000P                                                                          30630291727
D00000000000                      FG100097              10032018CUOTA                    MMMMMMATRICULA10000105000P                                                                          30630291727
D00000000000                      FG100098              10032018CUOTA                    MMMMMMATRICULA10000145000P                                                                          30630291727
D00000000000                      FG100099              10032018CUOTA                    MMMMMMATRICULA10000145000P                                                                          30630291727
D00000000000                      FG100099              10032018CUOTA                    MMMMMMATRICULA20000101500P                                                                          30630291727
D00000000000                      FG100101              10032018CUOTA                    MMMMMMATRICULA10000145000P                                                                          30630291727
D00000000000                      FG100102              10032018CUOTA                    MMMMMMATRICULA10000145000P                                                                          30630291727
D00000000000                      FG100103              10032018CUOTA                    MMMMMMATRICULA10000145000P                                                                          30630291727
D00000000000                      FG100104              10032018CUOTA                    MMMMMMATRICULA10000145000P                                                                          30630291727
D00000000000                      FG100105              10032018CUOTA                    MMMMMMATRICULA10000101500P                                                                          30630291727
D00000000000                      FG100105              10032018CUOTA                    MMMMMMATRICULA20000145000P                                                                          30630291727
D00000000000                      FG100106              10032018CUOTA                    MMMMMMATRICULA10000145000P                                                                          30630291727
D00000000000                      FG100107              10032018CUOTA                    MMMMMMATRICULA10000120000P                                                                          30630291727
D00000000000                      FG100107              10032018CUOTA                    MMMMMMATRICULA20000084000P                                                                          30630291727
D00000000000                      FG100108              10032018CUOTA                    MMMMMMATRICULA10000145000P                                                                          30630291727
D00000000000                      FG100109              10032018CUOTA                    MMMMMMATRICULA10000101500P                                                                          30630291727
D00000000000                      FG100109              10032018CUOTA                    MMMMMMATRICULA20000120000P                                                                          30630291727
D00000000000                      FG100112              10032018CUOTA                    MMMMMMATRICULA10000120000P                                                                          30630291727
D00000000000                      FG100113              10032018CUOTA                    MMMMMMATRICULA10000145000P                                                                          30630291727
D00000000000                      FG100114              10032018CUOTA                    MMMMMMATRICULA10000120000P                                                                          30630291727
D00000000000                      FG100115              10032018CUOTA                    MMMMMMATRICULA10000120000P                                                                          30630291727
D00000000000                      FG100116              10032018CUOTA                    MMMMMMATRICULA10000120000P                                                                          30630291727
D00000000000                      FG100117              10032018CUOTA                    MMMMMMATRICULA10000084000P                                                                          30630291727
D00000000000                      FG100117              10032018CUOTA                    MMMMMMATRICULA20000120000P                                                                          30630291727
D00000000000                      FG100118              10032018CUOTA                    MMMMMMATRICULA10000120000P                                                                          30630291727
D00000000000                      FG100119              10032018CUOTA                    MMMMMMATRICULA10000120000P                                                                          30630291727
D00000000000                      FG100120              10032018CUOTA                    MMMMMMATRICULA10000120000P                                                                          30630291727
D00000000000                      FG100121              10032018CUOTA                    MMMMMMATRICULA10000120000P                                                                          30630291727
D00000000000                      FG100121              10032018CUOTA                    MMMMMMATRICULA20000084000P                                                                          30630291727
D00000000000                      FG100123              10032018CUOTA                    MMMMMMATRICULA10000120000P                                                                          30630291727
D00000000000                      FG100124              10032018CUOTA                    MMMMMMATRICULA10000120000P                                                                          30630291727
D00000000000                      FG100125              10032018CUOTA                    MMMMMMATRICULA10000120000P                                                                          30630291727
D00000000000                      FG100125              10032018CUOTA                    MMMMMMATRICULA20000101500P                                                                          30630291727
D00000000000                      FG100126              10032018CUOTA                    MMMMMMATRICULA10000101500P                                                                          30630291727
D00000000000                      FG100126              10032018CUOTA                    MMMMMMATRICULA20000120000P                                                                          30630291727
D00000000000                      FG100128              10032018CUOTA                    MMMMMMATRICULA10000101500P                                                                          30630291727
D00000000000                      FG100128              10032018CUOTA                    MMMMMMATRICULA20000120000P                                                                          30630291727
D00000000000                      FG100129              10032018CUOTA                    MMMMMMATRICULA10000120000P                                                                          30630291727
D00000000000                      FG100129              10032018CUOTA                    MMMMMMATRICULA20000084000P                                                                          30630291727
D00000000000                      FG100130              10032018CUOTA                    MMMMMMATRICULA10000120000P                                                                          30630291727
D00000000000                      FG100132              10032018CUOTA                    MMMMMMATRICULA10000120000P                                                                          30630291727
D00000000000                      FG100132              10032018CUOTA                    MMMMMMATRICULA20000101500P                                                                          30630291727
D00000000000                      FG100133              10032018CUOTA                    MMMMMMATRICULA10000145000P                                                                          30630291727
D00000000000                      FG100134              10032018CUOTA                    MMMMMMATRICULA10000145000P                                                                          30630291727
D00000000000                      FG100136              10032018CUOTA                    MMMMMMATRICULA10000101500P                                                                          30630291727
D00000000000                      FG100136              10032018CUOTA                    MMMMMMATRICULA20000120000P                                                                          30630291727
D00000000000                      FG100137              10032018CUOTA                    MMMMMMATRICULA10000120000P                                                                          30630291727
D00000000000                      FG100138              10032018CUOTA                    MMMMMMATRICULA10000120000P                                                                          30630291727
D00000000000                      FG100139              10032018CUOTA                    MMMMMMATRICULA10000084000P                                                                          30630291727
D00000000000                      FG100139              10032018CUOTA                    MMMMMMATRICULA20000120000P                                                                          30630291727
D00000000000                      FG100141              10032018CUOTA                    MMMMMMATRICULA10000120000P                                                                          30630291727
D00000000000                      FG100141              10032018CUOTA                    MMMMMMATRICULA20000084000P                                                                          30630291727
D00000000000                      FG100142              10032018CUOTA                    MMMMMMATRICULA10000120000P                                                                          30630291727
D00000000000                      FG100142              10032018CUOTA                    MMMMMMATRICULA20000101500P                                                                          30630291727
D00000000000                      FG100143              10032018CUOTA                    MMMMMMATRICULA10000120000P                                                                          30630291727
D00000000000                      FG100144              10032018CUOTA                    MMMMMMATRICULA10000120000P                                                                          30630291727
D00000000000                      FG100145              10032018CUOTA                    MMMMMMATRICULA10000120000P                                                                          30630291727
D00000000000                      FG100146              10032018CUOTA                    MMMMMMATRICULA10000084000P                                                                          30630291727
D00000000000                      FG100146              10032018CUOTA                    MMMMMMATRICULA20000120000P                                                                          30630291727
D00000000000                      FG100147              10032018CUOTA                    MMMMMMATRICULA10000048000P                                                                          30630291727
D00000000000                      FG100147              10032018CUOTA                    MMMMMMATRICULA20000120000P                                                                          30630291727
D00000000000                      FG100147              10032018CUOTA                    MMMMMMATRICULA30000084000P                                                                          30630291727
D00000000000                      FG100148              10032018CUOTA                    MMMMMMATRICULA10000084000P                                                                          30630291727
D00000000000                      FG100148              10032018CUOTA                    MMMMMMATRICULA20000084000P                                                                          30630291727
D00000000000                      FG100149              10032018CUOTA                    MMMMMMATRICULA10000120000P                                                                          30630291727
D00000000000                      FG100150              10032018CUOTA                    MMMMMMATRICULA10000120000P                                                                          30630291727
D00000000000                      FG100151              10032018CUOTA                    MMMMMMATRICULA10000120000P                                                                          30630291727
D00000000000                      FG100153              10032018CUOTA                    MMMMMMATRICULA10000120000P                                                                          30630291727
D00000000000                      FG100153              10032018CUOTA                    MMMMMMATRICULA20000084000P                                                                          30630291727
D00000000000                      FG100155              10032018CUOTA                    MMMMMMATRICULA10000120000P                                                                          30630291727
D00000000000                      FG100156              10032018CUOTA                    MMMMMMATRICULA10000120000P                                                                          30630291727
D00000000000                      FG100157              10032018CUOTA                    MMMMMMATRICULA10000120000P                                                                          30630291727
D00000000000                      FG100157              10032018CUOTA                    MMMMMMATRICULA20000101500P                                                                          30630291727
D00000000000                      FG100158              10032018CUOTA                    MMMMMMATRICULA10000084000P                                                                          30630291727
D00000000000                      FG100158              10032018CUOTA                    MMMMMMATRICULA20000120000P                                                                          30630291727
D00000000000                      FG100159              10032018CUOTA                    MMMMMMATRICULA10000012000P                                                                          30630291727
D00000000000                      FG100159              10032018CUOTA                    MMMMMMATRICULA20000120000P                                                                          30630291727
D00000000000                      FG100160              10032018CUOTA                    MMMMMMATRICULA10000120000P                                                                          30630291727
D00000000000                      FG100161              10032018CUOTA                    MMMMMMATRICULA10000120000P                                                                          30630291727
D00000000000                      FG100163              10032018CUOTA                    MMMMMMATRICULA10000084000P                                                                          30630291727
D00000000000                      FG100163              10032018CUOTA                    MMMMMMATRICULA20000120000P                                                                          30630291727
D00000000000                      FG100164              10032018CUOTA                    MMMMMMATRICULA10000120000P                                                                          30630291727
D00000000000                      FG100165              10032018CUOTA                    MMMMMMATRICULA10000084000P                                                                          30630291727
D00000000000                      FG100165              10032018CUOTA                    MMMMMMATRICULA20000120000P                                                                          30630291727
D00000000000                      FG100166              10032018CUOTA                    MMMMMMATRICULA10000084000P                                                                          30630291727
D00000000000                      FG100166              10032018CUOTA                    MMMMMMATRICULA20000120000P                                                                          30630291727
D00000000000                      FG100167              10032018CUOTA                    MMMMMMATRICULA10000120000P                                                                          30630291727
D00000000000                      FG100167              10032018CUOTA                    MMMMMMATRICULA20000084000P                                                                          30630291727
D00000000000                      FG100168              10032018CUOTA                    MMMMMMATRICULA10000120000P                                                                          30630291727
D00000000000                      FG100168              10032018CUOTA                    MMMMMMATRICULA20000084000P                                                                          30630291727
D00000000000                      FG100168              10032018CUOTA                    MMMMMMATRICULA30000048000P                                                                          30630291727
D00000000000                      FG100169              10032018CUOTA                    MMMMMMATRICULA10000084000P                                                                          30630291727
D00000000000                      FG100169              10032018CUOTA                    MMMMMMATRICULA20000058000P                                                                          30630291727
D00000000000                      FG100169              10032018CUOTA                    MMMMMMATRICULA30000120000P                                                                          30630291727
D00000000000                      FG100170              10032018CUOTA                    MMMMMMATRICULA10000120000P                                                                          30630291727
D00000000000                      FG100171              10032018CUOTA                    MMMMMMATRICULA10000084000P                                                                          30630291727
D00000000000                      FG100171              10032018CUOTA                    MMMMMMATRICULA20000120000P                                                                          30630291727
D00000000000                      FG100172              10032018CUOTA                    MMMMMMATRICULA10000120000P                                                                          30630291727
D00000000000                      FG100173              10032018CUOTA                    MMMMMMATRICULA10000120000P                                                                          30630291727
D00000000000                      FG100174              10032018CUOTA                    MMMMMMATRICULA10000120000P                                                                          30630291727
D00000000000                      FG100175              10032018CUOTA                    MMMMMMATRICULA10000058000P                                                                          30630291727
D00000000000                      FG100175              10032018CUOTA                    MMMMMMATRICULA20000084000P                                                                          30630291727
D00000000000                      FG100175              10032018CUOTA                    MMMMMMATRICULA30000058000P                                                                          30630291727
D00000000000                      FG100175              10032018CUOTA                    MMMMMMATRICULA40000120000P                                                                          30630291727
D00000000000                      FG100177              10032018CUOTA                    MMMMMMATRICULA10000120000P                                                                          30630291727
D00000000000                      FG100177              10032018CUOTA                    MMMMMMATRICULA20000101500P                                                                          30630291727
D00000000000                      FG100178              10032018CUOTA                    MMMMMMATRICULA10000145000P                                                                          30630291727
D00000000000                      FG100180              10032018CUOTA                    MMMMMMATRICULA10000145000P                                                                          30630291727
D00000000000                      FG100181              10032018CUOTA                    MMMMMMATRICULA10000145000P                                                                          30630291727
D00000000000                      FG100183              10032018CUOTA                    MMMMMMATRICULA10000145000P                                                                          30630291727
D00000000000                      FG100184              10032018CUOTA                    MMMMMMATRICULA10000145000P                                                                          30630291727
D00000000000                      FG100184              10032018CUOTA                    MMMMMMATRICULA20000101500P                                                                          30630291727
D00000000000                      FG100185              10032018CUOTA                    MMMMMMATRICULA10000145000P                                                                          30630291727
D00000000000                      FG100186              10032018CUOTA                    MMMMMMATRICULA10000101500P                                                                          30630291727
D00000000000                      FG100186              10032018CUOTA                    MMMMMMATRICULA20000145000P                                                                          30630291727
D00000000000                      FG100188              10032018CUOTA                    MMMMMMATRICULA10000145000P                                                                          30630291727
D00000000000                      FG100189              10032018CUOTA                    MMMMMMATRICULA10000145000P                                                                          30630291727
D00000000000                      FG100190              10032018CUOTA                    MMMMMMATRICULA10000145000P                                                                          30630291727
D00000000000                      FG100191              10032018CUOTA                    MMMMMMATRICULA10000145000P                                                                          30630291727
D00000000000                      FG100192              10032018CUOTA                    MMMMMMATRICULA10000145000P                                                                          30630291727
D00000000000                      FG100193              10032018CUOTA                    MMMMMMATRICULA10000145000P                                                                          30630291727
D00000000000                      FG100194              10032018CUOTA                    MMMMMMATRICULA10000145000P                                                                          30630291727
D00000000000                      FG100195              10032018CUOTA                    MMMMMMATRICULA10000145000P                                                                          30630291727
D00000000000                      FG100196              10032018CUOTA                    MMMMMMATRICULA10000145000P                                                                          30630291727
D00000000000                      FG100197              10032018CUOTA                    MMMMMMATRICULA10000058000P                                                                          30630291727
D00000000000                      FG100197              10032018CUOTA                    MMMMMMATRICULA20000084000P                                                                          30630291727
D00000000000                      FG100197              10032018CUOTA                    MMMMMMATRICULA30000120000P                                                                          30630291727
D00000000000                      FG100198              10032018CUOTA                    MMMMMMATRICULA10000084000P                                                                          30630291727
D00000000000                      FG100198              10032018CUOTA                    MMMMMMATRICULA20000048000P                                                                          30630291727
D00000000000                      FG100198              10032018CUOTA                    MMMMMMATRICULA30000120000P                                                                          30630291727
D00000000000                      FG100199              10032018CUOTA                    MMMMMMATRICULA10000120000P                                                                          30630291727
D00000000000                      FG100200              10032018CUOTA                    MMMMMMATRICULA10000120000P                                                                          30630291727
D00000000000                      FG100201              10032018CUOTA                    MMMMMMATRICULA10000120000P                                                                          30630291727
D00000000000                      FG100201              10032018CUOTA                    MMMMMMATRICULA20000084000P                                                                          30630291727
D00000000000                      FG100202              10032018CUOTA                    MMMMMMATRICULA10000120000P                                                                          30630291727
D00000000000                      FG100203              10032018CUOTA                    MMMMMMATRICULA10000120000P                                                                          30630291727
D00000000000                      FG100204              10032018CUOTA                    MMMMMMATRICULA10000084000P                                                                          30630291727
D00000000000                      FG100204              10032018CUOTA                    MMMMMMATRICULA20000120000P                                                                          30630291727
D00000000000                      FG100205              10032018CUOTA                    MMMMMMATRICULA10000120000P                                                                          30630291727
D00000000000                      FG100206              10032018CUOTA                    MMMMMMATRICULA10000120000P                                                                          30630291727
D00000000000                      FG100207              10032018CUOTA                    MMMMMMATRICULA10000084000P                                                                          30630291727
D00000000000                      FG100207              10032018CUOTA                    MMMMMMATRICULA20000120000P                                                                          30630291727
D00000000000                      FG100208              10032018CUOTA                    MMMMMMATRICULA10000120000P                                                                          30630291727
D00000000000                      FG100208              10032018CUOTA                    MMMMMMATRICULA20000084000P                                                                          30630291727
D00000000000                      FG100209              10032018CUOTA                    MMMMMMATRICULA10000120000P                                                                          30630291727
D00000000000                      FG100209              10032018CUOTA                    MMMMMMATRICULA20000084000P                                                                          30630291727
D00000000000                      FG100210              10032018CUOTA                    MMMMMMATRICULA10000084000P                                                                          30630291727
D00000000000                      FG100210              10032018CUOTA                    MMMMMMATRICULA20000120000P                                                                          30630291727
D00000000000                      FG100211              10032018CUOTA                    MMMMMMATRICULA10000084000P                                                                          30630291727
D00000000000                      FG100211              10032018CUOTA                    MMMMMMATRICULA20000120000P                                                                          30630291727
D00000000000                      FG100212              10032018CUOTA                    MMMMMMATRICULA10000120000P                                                                          30630291727
D00000000000                      FG100214              10032018CUOTA                    MMMMMMATRICULA10000120000P                                                                          30630291727
D00000000000                      FG100215              10032018CUOTA                    MMMMMMATRICULA10000084000P                                                                          30630291727
D00000000000                      FG100215              10032018CUOTA                    MMMMMMATRICULA20000120000P                                                                          30630291727
D00000000000                      FG100216              10032018CUOTA                    MMMMMMATRICULA10000120000P                                                                          30630291727
D00000000000                      FG100217              10032018CUOTA                    MMMMMMATRICULA10000084000P                                                                          30630291727
D00000000000                      FG100217              10032018CUOTA                    MMMMMMATRICULA20000120000P                                                                          30630291727
D00000000000                      FG100218              10032018CUOTA                    MMMMMMATRICULA10000120000P                                                                          30630291727
D00000000000                      FG100219              10032018CUOTA                    MMMMMMATRICULA10000084000P                                                                          30630291727
D00000000000                      FG100219              10032018CUOTA                    MMMMMMATRICULA20000120000P                                                                          30630291727
D00000000000                      FG100220              10032018CUOTA                    MMMMMMATRICULA10000120000P                                                                          30630291727
D00000000000                      FG100221              10032018CUOTA                    MMMMMMATRICULA10000101500P                                                                          30630291727
D00000000000                      FG100221              10032018CUOTA                    MMMMMMATRICULA20000120000P                                                                          30630291727
D00000000000                      FG100222              10032018CUOTA                    MMMMMMATRICULA10000120000P                                                                          30630291727
D00000000000                      FG100223              10032018CUOTA                    MMMMMMATRICULA10000120000P                                                                          30630291727
D00000000000                      FG100224              10032018CUOTA                    MMMMMMATRICULA10000120000P                                                                          30630291727
D00000000000                      FG100225              10032018CUOTA                    MMMMMMATRICULA10000120000P                                                                          30630291727
D00000000000                      FG100225              10032018CUOTA                    MMMMMMATRICULA20000084000P                                                                          30630291727
D00000000000                      FG100226              10032018CUOTA                    MMMMMMATRICULA10000120000P                                                                          30630291727
D00000000000                      FG100228              10032018CUOTA                    MMMMMMATRICULA10000101500P                                                                          30630291727
D00000000000                      FG100228              10032018CUOTA                    MMMMMMATRICULA20000145000P                                                                          30630291727
D00000000000                      FG100230              10032018CUOTA                    MMMMMMATRICULA10000120000P                                                                          30630291727
D00000000000                      FG100231              10032018CUOTA                    MMMMMMATRICULA10000084000P                                                                          30630291727
D00000000000                      FG100231              10032018CUOTA                    MMMMMMATRICULA20000120000P                                                                          30630291727
D00000000000                      FG100232              10032018CUOTA                    MMMMMMATRICULA10000120000P                                                                          30630291727
D00000000000                      FG100232              10032018CUOTA                    MMMMMMATRICULA20000084000P                                                                          30630291727
D00000000000                      FG100233              10032018CUOTA                    MMMMMMATRICULA10000120000P                                                                          30630291727
D00000000000                      FG100234              10032018CUOTA                    MMMMMMATRICULA10000120000P                                                                          30630291727
D00000000000                      FG100235              10032018CUOTA                    MMMMMMATRICULA10000063700P                                                                          30630291727
D00000000000                      FG100235              10032018CUOTA                    MMMMMMATRICULA20000091000P                                                                          30630291727
D00000000000                      FG100236              10032018CUOTA                    MMMMMMATRICULA10000120000P                                                                          30630291727
D00000000000                      FG100237              10032018CUOTA                    MMMMMMATRICULA10000120000P                                                                          30630291727
D00000000000                      FG100239              10032018CUOTA                    MMMMMMATRICULA10000120000P                                                                          30630291727
D00000000000                      FG100239              10032018CUOTA                    MMMMMMATRICULA20000084000P                                                                          30630291727
D00000000000                      FG100239              10032018CUOTA                    MMMMMMATRICULA30000058000P                                                                          30630291727
D00000000000                      FG100240              10032018CUOTA                    MMMMMMATRICULA10000145000P                                                                          30630291727
D00000000000                      FG100241              10032018CUOTA                    MMMMMMATRICULA10000145000P                                                                          30630291727
D00000000000                      FG100243              10032018CUOTA                    MMMMMMATRICULA10000101500P                                                                          30630291727
D00000000000                      FG100243              10032018CUOTA                    MMMMMMATRICULA20000145000P                                                                          30630291727
D00000000000                      FG100244              10032018CUOTA                    MMMMMMATRICULA10000145000P                                                                          30630291727
D00000000000                      FG100245              10032018CUOTA                    MMMMMMATRICULA10000145000P                                                                          30630291727
D00000000000                      FG100246              10032018CUOTA                    MMMMMMATRICULA10000145000P                                                                          30630291727
D00000000000                      FG100247              10032018CUOTA                    MMMMMMATRICULA10000145000P                                                                          30630291727
D00000000000                      FG100247              10032018CUOTA                    MMMMMMATRICULA20000101500P                                                                          30630291727
D00000000000                      FG100248              10032018CUOTA                    MMMMMMATRICULA10000145000P                                                                          30630291727
D00000000000                      FG100248              10032018CUOTA                    MMMMMMATRICULA20000101500P                                                                          30630291727
D00000000000                      FG100249              10032018CUOTA                    MMMMMMATRICULA10000145000P                                                                          30630291727
D00000000000                      FG100250              10032018CUOTA                    MMMMMMATRICULA10000145000P                                                                          30630291727
D00000000000                      FG100251              10032018CUOTA                    MMMMMMATRICULA10000145000P                                                                          30630291727
D00000000000                      FG100252              10032018CUOTA                    MMMMMMATRICULA10000145000P                                                                          30630291727
D00000000000                      FG100253              10032018CUOTA                    MMMMMMATRICULA10000145000P                                                                          30630291727
D00000000000                      FG100253              10032018CUOTA                    MMMMMMATRICULA20000101500P                                                                          30630291727
D00000000000                      FG100254              10032018CUOTA                    MMMMMMATRICULA10000145000P                                                                          30630291727
D00000000000                      FG100255              10032018CUOTA                    MMMMMMATRICULA10000145000P                                                                          30630291727
D00000000000                      FG100255              10032018CUOTA                    MMMMMMATRICULA20000101500P                                                                          30630291727
D00000000000                      FG100256              10032018CUOTA                    MMMMMMATRICULA10000101500P                                                                          30630291727
D00000000000                      FG100256              10032018CUOTA                    MMMMMMATRICULA20000145000P                                                                          30630291727
D00000000000                      FG100257              10032018CUOTA                    MMMMMMATRICULA10000145000P                                                                          30630291727
D00000000000                      FG100258              10032018CUOTA                    MMMMMMATRICULA10000145000P                                                                          30630291727
D00000000000                      FG100258              10032018CUOTA                    MMMMMMATRICULA20000101500P                                                                          30630291727
D00000000000                      FG100259              10032018CUOTA                    MMMMMMATRICULA10000145000P                                                                          30630291727
D00000000000                      FG100261              10032018CUOTA                    MMMMMMATRICULA10000145000P                                                                          30630291727
D00000000000                      FG100263              10032018CUOTA                    MMMMMMATRICULA10000145000P                                                                          30630291727
D00000000000                      FG100264              10032018CUOTA                    MMMMMMATRICULA10000145000P                                                                          30630291727
D00000000000                      FG100265              10032018CUOTA                    MMMMMMATRICULA10000145000P                                                                          30630291727
D00000000000                      FG100266              10032018CUOTA                    MMMMMMATRICULA10000145000P                                                                          30630291727
D00000000000                      FG100267              10032018CUOTA                    MMMMMMATRICULA10000145000P                                                                          30630291727
D00000000000                      FG100268              10032018CUOTA                    MMMMMMATRICULA10000145000P                                                                          30630291727
D00000000000                      FG100269              10032018CUOTA                    MMMMMMATRICULA10000101500P                                                                          30630291727
D00000000000                      FG100269              10032018CUOTA                    MMMMMMATRICULA20000145000P                                                                          30630291727
D00000000000                      FG100270              10032018CUOTA                    MMMMMMATRICULA10000145000P                                                                          30630291727
D00000000000                      FG100271              10032018CUOTA                    MMMMMMATRICULA10000145000P                                                                          30630291727
D00000000000                      FG100272              10032018CUOTA                    MMMMMMATRICULA10000105000P                                                                          30630291727
D00000000000                      FG100273              10032018CUOTA                    MMMMMMATRICULA10000101500P                                                                          30630291727
D00000000000                      FG100273              10032018CUOTA                    MMMMMMATRICULA20000145000P                                                                          30630291727
D00000000000                      FG100274              10032018CUOTA                    MMMMMMATRICULA10000145000P                                                                          30630291727
D00000000000                      FG100275              10032018CUOTA                    MMMMMMATRICULA10000101500P                                                                          30630291727
D00000000000                      FG100275              10032018CUOTA                    MMMMMMATRICULA20000120000P                                                                          30630291727
D00000000000                      FG100276              10032018CUOTA                    MMMMMMATRICULA10000120000P                                                                          30630291727
D00000000000                      FG100277              10032018CUOTA                    MMMMMMATRICULA10000091000P                                                                          30630291727
D00000000000                      FG100278              10032018CUOTA                    MMMMMMATRICULA10000120000P                                                                          30630291727
D00000000000                      FG100278              10032018CUOTA                    MMMMMMATRICULA20000101500P                                                                          30630291727
D00000000000                      FG100282              10032018CUOTA                    MMMMMMATRICULA10000084000P                                                                          30630291727
D00000000000                      FG100282              10032018CUOTA                    MMMMMMATRICULA20000120000P                                                                          30630291727
D00000000000                      FG100283              10032018CUOTA                    MMMMMMATRICULA10000145000P                                                                          30630291727
D00000000000                      FG100284              10032018CUOTA                    MMMMMMATRICULA10000084000P                                                                          30630291727
D00000000000                      FG100284              10032018CUOTA                    MMMMMMATRICULA20000120000P                                                                          30630291727
D00000000000                      FG100285              10032018CUOTA                    MMMMMMATRICULA10000120000P                                                                          30630291727
D00000000000                      FG100287              10032018CUOTA                    MMMMMMATRICULA10000101500P                                                                          30630291727
D00000000000                      FG100287              10032018CUOTA                    MMMMMMATRICULA20000120000P                                                                          30630291727
D00000000000                      FG100288              10032018CUOTA                    MMMMMMATRICULA10000101500P                                                                          30630291727
D00000000000                      FG100288              10032018CUOTA                    MMMMMMATRICULA20000120000P                                                                          30630291727
D00000000000                      FG100289              10032018CUOTA                    MMMMMMATRICULA10000105000P                                                                          30630291727
D00000000000                      FG100290              10032018CUOTA                    MMMMMMATRICULA10000084000P                                                                          30630291727
D00000000000                      FG100290              10032018CUOTA                    MMMMMMATRICULA20000120000P                                                                          30630291727
D00000000000                      FG100291              10032018CUOTA                    MMMMMMATRICULA10000120000P                                                                          30630291727
D00000000000                      FG100292              10032018CUOTA                    MMMMMMATRICULA10000120000P                                                                          30630291727
D00000000000                      FG100293              10032018CUOTA                    MMMMMMATRICULA10000145000P                                                                          30630291727
D00000000000                      FG100295              10032018CUOTA                    MMMMMMATRICULA10000145000P                                                                          30630291727
D00000000000                      FG100296              10032018CUOTA                    MMMMMMATRICULA10000145000P                                                                          30630291727
D00000000000                      FG100297              10032018CUOTA                    MMMMMMATRICULA10000073500P                                                                          30630291727
D00000000000                      FG100297              10032018CUOTA                    MMMMMMATRICULA20000105000P                                                                          30630291727
D00000000000                      FG100298              10032018CUOTA                    MMMMMMATRICULA10000120000P                                                                          30630291727
D00000000000                      FG100298              10032018CUOTA                    MMMMMMATRICULA20000101500P                                                                          30630291727
D00000000000                      FG100300              10032018CUOTA                    MMMMMMATRICULA10000145000P                                                                          30630291727
D00000000000                      FG100301              10032018CUOTA                    MMMMMMATRICULA10000091000P                                                                          30630291727
D00000000000                      FG100301              10032018CUOTA                    MMMMMMATRICULA20000063700P                                                                          30630291727
D00000000000                      FG100302              10032018CUOTA                    MMMMMMATRICULA10000120000P                                                                          30630291727
D00000000000                      FG100302              10032018CUOTA                    MMMMMMATRICULA20000101500P                                                                          30630291727
D00000000000                      FG100305              10032018CUOTA                    MMMMMMATRICULA10000120000P                                                                          30630291727
D00000000000                      FG100306              10032018CUOTA                    MMMMMMATRICULA10000120000P                                                                          30630291727
D00000000000                      FG100308              10032018CUOTA                    MMMMMMATRICULA10000145000P                                                                          30630291727
D00000000000                      FG100309              10032018CUOTA                    MMMMMMATRICULA10000145000P                                                                          30630291727
D00000000000                      FG100311              10032018CUOTA                    MMMMMMATRICULA10000145000P                                                                          30630291727
D00000000000                      FG100312              10032018CUOTA                    MMMMMMATRICULA10000120000P                                                                          30630291727
D00000000000                      FG100313              10032018CUOTA                    MMMMMMATRICULA10000120000P                                                                          30630291727
D00000000000                      FG100315              10032018CUOTA                    MMMMMMATRICULA10000120000P                                                                          30630291727
D00000000000                      FG100316              10032018CUOTA                    MMMMMMATRICULA10000101500P                                                                          30630291727
D00000000000                      FG100316              10032018CUOTA                    MMMMMMATRICULA20000120000P                                                                          30630291727
D00000000000                      FG100317              10032018CUOTA                    MMMMMMATRICULA10000084000P                                                                          30630291727
D00000000000                      FG100317              10032018CUOTA                    MMMMMMATRICULA20000120000P                                                                          30630291727
D00000000000                      FG100318              10032018CUOTA                    MMMMMMATRICULA10000120000P                                                                          30630291727
D00000000000                      FG100320              10032018CUOTA                    MMMMMMATRICULA10000084000P                                                                          30630291727
D00000000000                      FG100320              10032018CUOTA                    MMMMMMATRICULA20000120000P                                                                          30630291727
D00000000000                      FG100324              10032018CUOTA                    MMMMMMATRICULA10000145000P                                                                          30630291727
D00000000000                      FG100326              10032018CUOTA                    MMMMMMATRICULA10000120000P                                                                          30630291727
D00000000000                      FG100330              10032018CUOTA                    MMMMMMATRICULA10000145000P                                                                          30630291727
D00000000000                      FG100331              10032018CUOTA                    MMMMMMATRICULA10000145000P                                                                          30630291727
D00000000000                      FG100332              10032018CUOTA                    MMMMMMATRICULA10000105000P                                                                          30630291727
D00000000000                      FG100333              10032018CUOTA                    MMMMMMATRICULA10000145000P                                                                          30630291727
D00000000000                      FG100334              10032018CUOTA                    MMMMMMATRICULA10000145000P                                                                          30630291727
D00000000000                      FG100335              10032018CUOTA                    MMMMMMATRICULA10000120000P                                                                          30630291727
D00000000000                      FG100336              10032018CUOTA                    MMMMMMATRICULA10000120000P                                                                          30630291727
D00000000000                      FG100337              10032018CUOTA                    MMMMMMATRICULA10000120000P                                                                          30630291727
D00000000000                      FG100338              10032018CUOTA                    MMMMMMATRICULA10000120000P                                                                          30630291727
D00000000000                      FG100339              10032018CUOTA                    MMMMMMATRICULA10000145000P                                                                          30630291727
D00000000000                      FG100340              10032018CUOTA                    MMMMMMATRICULA10000145000P                                                                          30630291727
D00000000000                      FG100341              10032018CUOTA                    MMMMMMATRICULA10000145000P                                                                          30630291727
D00000000000                      FG100343              10032018CUOTA                    MMMMMMATRICULA10000145000P                                                                          30630291727
D00000000000                      FG100344              10032018CUOTA                    MMMMMMATRICULA10000145000P                                                                          30630291727
D00000000000                      FG100345              10032018CUOTA                    MMMMMMATRICULA10000145000P                                                                          30630291727
D00000000000                      FG100346              10032018CUOTA                    MMMMMMATRICULA10000120000P                                                                          30630291727
D00000000000                      FG100346              10032018CUOTA                    MMMMMMATRICULA20000101500P                                                                          30630291727
D00000000000                      FG100347              10032018CUOTA                    MMMMMMATRICULA10000145000P                                                                          30630291727
D00000000000                      FG100348              10032018CUOTA                    MMMMMMATRICULA10000145000P                                                                          30630291727
D00000000000                      FG100349              10032018CUOTA                    MMMMMMATRICULA10000145000P                                                                          30630291727
D00000000000                      FG100350              10032018CUOTA                    MMMMMMATRICULA10000145000P                                                                          30630291727
D00000000000                      FG100351              10032018CUOTA                    MMMMMMATRICULA10000120000P                                                                          30630291727
D00000000000                      FG100351              10032018CUOTA                    MMMMMMATRICULA20000101500P                                                                          30630291727
D00000000000                      FG100352              10032018CUOTA                    MMMMMMATRICULA10000120000P                                                                          30630291727
D00000000000                      FG100352              10032018CUOTA                    MMMMMMATRICULA20000101500P                                                                          30630291727
D00000000000                      FG100353              10032018CUOTA                    MMMMMMATRICULA10000145000P                                                                          30630291727
D00000000000                      FG100355              10032018CUOTA                    MMMMMMATRICULA10000145000P                                                                          30630291727
D00000000000                      FG100356              10032018CUOTA                    MMMMMMATRICULA10000105000P                                                                          30630291727
D00000000000                      FG100359              10032018CUOTA                    MMMMMMATRICULA10000145000P                                                                          30630291727
D00000000000                      FG100360              10032018CUOTA                    MMMMMMATRICULA10000145000P                                                                          30630291727
D00000000000                      FG100369              10032018CUOTA                    MMMMMMATRICULA10000145000P                                                                          30630291727
D00000000000                      FG100370              10032018CUOTA                    MMMMMMATRICULA10000145000P                                                                          30630291727
D00000000000                      FG100372              10032018CUOTA                    MMMMMMATRICULA10000145000P                                                                          30630291727
D00000000000                      FG100373              10032018CUOTA                    MMMMMMATRICULA10000145000P                                                                          30630291727
D00000000000                      FG100374              10032018CUOTA                    MMMMMMATRICULA10000101500P                                                                          30630291727
D00000000000                      FG100374              10032018CUOTA                    MMMMMMATRICULA20000145000P                                                                          30630291727
D00000000000                      FG100375              10032018CUOTA                    MMMMMMATRICULA10000101500P                                                                          30630291727
D00000000000                      FG100375              10032018CUOTA                    MMMMMMATRICULA20000145000P                                                                          30630291727
D00000000000                      FG100376              10032018CUOTA                    MMMMMMATRICULA10000145000P                                                                          30630291727
D00000000000                      FG100378              10032018CUOTA                    MMMMMMATRICULA10000145000P                                                                          30630291727
D00000000000                      FG100379              10032018CUOTA                    MMMMMMATRICULA10000101500P                                                                          30630291727
D00000000000                      FG100379              10032018CUOTA                    MMMMMMATRICULA20000145000P                                                                          30630291727
D00000000000                      FG100381              10032018CUOTA                    MMMMMMATRICULA10000145000P                                                                          30630291727
D00000000000                      FG100382              10032018CUOTA                    MMMMMMATRICULA10000101500P                                                                          30630291727
D00000000000                      FG100382              10032018CUOTA                    MMMMMMATRICULA20000120000P                                                                          30630291727
D00000000000                      FG100384              10032018CUOTA                    MMMMMMATRICULA10000084000P                                                                          30630291727
D00000000000                      FG100384              10032018CUOTA                    MMMMMMATRICULA20000058000P                                                                          30630291727
D00000000000                      FG100384              10032018CUOTA                    MMMMMMATRICULA30000120000P                                                                          30630291727
D00000000000                      FG100385              10032018CUOTA                    MMMMMMATRICULA10000101500P                                                                          30630291727
D00000000000                      FG100385              10032018CUOTA                    MMMMMMATRICULA20000145000P                                                                          30630291727
D00000000000                      FG100386              10032018CUOTA                    MMMMMMATRICULA10000145000P                                                                          30630291727
D00000000000                      FG100387              10032018CUOTA                    MMMMMMATRICULA10000145000P                                                                          30630291727
D00000000000                      FG100388              10032018CUOTA                    MMMMMMATRICULA10000145000P                                                                          30630291727
D00000000000                      FG100391              10032018CUOTA                    MMMMMMATRICULA10000145000P                                                                          30630291727
D00000000000                      FG100392              10032018CUOTA                    MMMMMMATRICULA10000145000P                                                                          30630291727
D00000000000                      FG100393              10032018CUOTA                    MMMMMMATRICULA10000145000P                                                                          30630291727
D00000000000                      FG100394              10032018CUOTA                    MMMMMMATRICULA10000105000P                                                                          30630291727
D00000000000                      FG100395              10032018CUOTA                    MMMMMMATRICULA10000145000P                                                                          30630291727
D00000000000                      FG100397              10032018CUOTA                    MMMMMMATRICULA10000145000P                                                                          30630291727
D00000000000                      FG100400              10032018CUOTA                    MMMMMMATRICULA10000145000P                                                                          30630291727
D00000000000                      FG100402              10032018CUOTA                    MMMMMMATRICULA10000120000P                                                                          30630291727
D00000000000                      FG100402              10032018CUOTA                    MMMMMMATRICULA20000048000P                                                                          30630291727
D00000000000                      FG100402              10032018CUOTA                    MMMMMMATRICULA30000101500P                                                                          30630291727
D00000000000                      FG100402              10032018CUOTA                    MMMMMMATRICULA40000058000P                                                                          30630291727
D00000000000                      FG100403              10032018CUOTA                    MMMMMMATRICULA10000145000P                                                                          30630291727
D00000000000                      FG100403              10032018CUOTA                    MMMMMMATRICULA20000101500P                                                                          30630291727
D00000000000                      FG100405              10032018CUOTA                    MMMMMMATRICULA10000145000P                                                                          30630291727
D00000000000                      FG100406              10032018CUOTA                    MMMMMMATRICULA10000058000P                                                                          30630291727
D00000000000                      FG100406              10032018CUOTA                    MMMMMMATRICULA20000101500P                                                                          30630291727
D00000000000                      FG100406              10032018CUOTA                    MMMMMMATRICULA30000145000P                                                                          30630291727
D00000000000                      FG100407              10032018CUOTA                    MMMMMMATRICULA10000101500P                                                                          30630291727
D00000000000                      FG100407              10032018CUOTA                    MMMMMMATRICULA20000145000P                                                                          30630291727
D00000000000                      FG100408              10032018CUOTA                    MMMMMMATRICULA10000145000P                                                                          30630291727
D00000000000                      FG100409              10032018CUOTA                    MMMMMMATRICULA10000145000P                                                                          30630291727
D00000000000                      FG100410              10032018CUOTA                    MMMMMMATRICULA10000145000P                                                                          30630291727
D00000000000                      FG100411              10032018CUOTA                    MMMMMMATRICULA10000084000P                                                                          30630291727
D00000000000                      FG100411              10032018CUOTA                    MMMMMMATRICULA20000120000P                                                                          30630291727
D00000000000                      FG100412              10032018CUOTA                    MMMMMMATRICULA10000101500P                                                                          30630291727
D00000000000                      FG100412              10032018CUOTA                    MMMMMMATRICULA20000120000P                                                                          30630291727
D00000000000                      FG100413              10032018CUOTA                    MMMMMMATRICULA10000120000P                                                                          30630291727
D00000000000                      FG100415              10032018CUOTA                    MMMMMMATRICULA10000120000P                                                                          30630291727
D00000000000                      FG100416              10032018CUOTA                    MMMMMMATRICULA10000120000P                                                                          30630291727
D00000000000                      FG100417              10032018CUOTA                    MMMMMMATRICULA10000120000P                                                                          30630291727
D00000000000                      FG100418              10032018CUOTA                    MMMMMMATRICULA10000120000P                                                                          30630291727
D00000000000                      FG100419              10032018CUOTA                    MMMMMMATRICULA10000120000P                                                                          30630291727
D00000000000                      FG100420              10032018CUOTA                    MMMMMMATRICULA10000120000P                                                                          30630291727
D00000000000                      FG100421              10032018CUOTA                    MMMMMMATRICULA10000120000P                                                                          30630291727
D00000000000                      FG100423              10032018CUOTA                    MMMMMMATRICULA10000120000P                                                                          30630291727
D00000000000                      FG100424              10032018CUOTA                    MMMMMMATRICULA10000120000P                                                                          30630291727
D00000000000                      FG100426              10032018CUOTA                    MMMMMMATRICULA10000084000P                                                                          30630291727
D00000000000                      FG100426              10032018CUOTA                    MMMMMMATRICULA20000120000P                                                                          30630291727
D00000000000                      FG100428              10032018CUOTA                    MMMMMMATRICULA10000120000P                                                                          30630291727
D00000000000                      FG100428              10032018CUOTA                    MMMMMMATRICULA20000084000P                                                                          30630291727
D00000000000                      FG100429              10032018CUOTA                    MMMMMMATRICULA10000145000P                                                                          30630291727
D00000000000                      FG100430              10032018CUOTA                    MMMMMMATRICULA10000120000P                                                                          30630291727
D00000000000                      FG100430              10032018CUOTA                    MMMMMMATRICULA20000101500P                                                                          30630291727
D00000000000                      FG100432              10032018CUOTA                    MMMMMMATRICULA10000145000P                                                                          30630291727
D00000000000                      FG100434              10032018CUOTA                    MMMMMMATRICULA10000145000P                                                                          30630291727
D00000000000                      FG100436              10032018CUOTA                    MMMMMMATRICULA10000120000P                                                                          30630291727
D00000000000                      FG100437              10032018CUOTA                    MMMMMMATRICULA10000120000P                                                                          30630291727
D00000000000                      FG100437              10032018CUOTA                    MMMMMMATRICULA20000084000P                                                                          30630291727
D00000000000                      FG100438              10032018CUOTA                    MMMMMMATRICULA10000120000P                                                                          30630291727
D00000000000                      FG100439              10032018CUOTA                    MMMMMMATRICULA10000120000P                                                                          30630291727
D00000000000                      FG100440              10032018CUOTA                    MMMMMMATRICULA10000120000P                                                                          30630291727
D00000000000                      FG100441              10032018CUOTA                    MMMMMMATRICULA10000048000P                                                                          30630291727
D00000000000                      FG100441              10032018CUOTA                    MMMMMMATRICULA20000120000P                                                                          30630291727
D00000000000                      FG100441              10032018CUOTA                    MMMMMMATRICULA30000084000P                                                                          30630291727
D00000000000                      FG100442              10032018CUOTA                    MMMMMMATRICULA10000120000P                                                                          30630291727
D00000000000                      FG100442              10032018CUOTA                    MMMMMMATRICULA20000048000P                                                                          30630291727
D00000000000                      FG100442              10032018CUOTA                    MMMMMMATRICULA30000084000P                                                                          30630291727
D00000000000                      FG100443              10032018CUOTA                    MMMMMMATRICULA10000084000P                                                                          30630291727
D00000000000                      FG100443              10032018CUOTA                    MMMMMMATRICULA20000120000P                                                                          30630291727
