H30630291727CUOTA     61807022018            COLEGIO VECCHI                                                                                                                                             
D000000000001111555522221111FG100003              20180215CUOTA                    MATRICULA1     0000095000P                                                                          30630291727
D000000000001111555522221111FG100004              20180215CUOTA                    MATRICULA1     0000066500P                                                                          30630291727
D000000000001111555522221111FG100004              20180215CUOTA                    MATRICULA2     0000066500P                                                                          30630291727
D000000000001111555522221111FG100006              20180215CUOTA                    MATRICULA1     0000095000P                                                                          30630291727
D000000000001111555522221111FG100008              20180215CUOTA                    MATRICULA1     0000095000P                                                                          30630291727
D000000000001111555522221111FG100009              20180215CUOTA                    MATRICULA1     0000095000P                                                                          30630291727
D000000000001111555522221111FG100010              20180215CUOTA                    MATRICULA1     0000066500P                                                                          30630291727
D000000000001111555522221111FG100011              20180215CUOTA                    MATRICULA1     0000095000P                                                                          30630291727
D000000000001111555522221111FG100014              20180215CUOTA                    MATRICULA1     0000095000P                                                                          30630291727
D000000000001111555522221111FG100015              20180215CUOTA                    MATRICULA1     0000100000P                                                                          30630291727
D000000000001111555522221111FG100015              20180215CUOTA                    MATRICULA2     0000066500P                                                                          30630291727
D000000000001111555522221111FG100016              20180215CUOTA                    MATRICULA1     0000038000P                                                                          30630291727
D000000000001111555522221111FG100017              20180215CUOTA                    MATRICULA1     0000095000P                                                                          30630291727
D000000000001111555522221111FG100019              20180215CUOTA                    MATRICULA1     0000095000P                                                                          30630291727
D000000000001111555522221111FG100020              20180215CUOTA                    MATRICULA1     0000095000P                                                                          30630291727
D000000000001111555522221111FG100023              20180215CUOTA                    MATRICULA1     0000095000P                                                                          30630291727
D000000000001111555522221111FG100028              20180215CUOTA                    MATRICULA1     0000095000P                                                                          30630291727
D000000000001111555522221111FG100029              20180215CUOTA                    MATRICULA1     0000095000P                                                                          30630291727
D000000000001111555522221111FG100031              20180215CUOTA                    MATRICULA1     0000095000P                                                                          30630291727
D000000000001111555522221111FG100033              20180215CUOTA                    MATRICULA1     0000095000P                                                                          30630291727
D000000000001111555522221111FG100033              20180215CUOTA                    MATRICULA2     0000070000P                                                                          30630291727
D000000000001111555522221111FG100033              20180215CUOTA                    MATRICULA3     0000066500P                                                                          30630291727
D000000000001111555522221111FG100034              20180215CUOTA                    MATRICULA1     0000100000P                                                                          30630291727
D000000000001111555522221111FG100034              20180215CUOTA                    MATRICULA2     0000070000P                                                                          30630291727
D000000000001111555522221111FG100034              20180215CUOTA                    MATRICULA3     0000066500P                                                                          30630291727
D000000000001111555522221111FG100035              20180215CUOTA                    MATRICULA1     0000095000P                                                                          30630291727
D000000000001111555522221111FG100037              20180215CUOTA                    MATRICULA1     0000095000P                                                                          30630291727
D000000000001111555522221111FG100038              20180215CUOTA                    MATRICULA1     0000095000P                                                                          30630291727
D000000000001111555522221111FG100039              20180215CUOTA                    MATRICULA1     0000095000P                                                                          30630291727
D000000000001111555522221111FG100041              20180215CUOTA                    MATRICULA1     0000095000P                                                                          30630291727
D000000000001111555522221111FG100042              20180215CUOTA                    MATRICULA1     0000095000P                                                                          30630291727
D000000000001111555522221111FG100045              20180215CUOTA                    MATRICULA1     0000066500P                                                                          30630291727
D000000000001111555522221111FG100045              20180215CUOTA                    MATRICULA2     0000066500P                                                                          30630291727
D000000000001111555522221111FG100049              20180215CUOTA                    MATRICULA1     0000100000P                                                                          30630291727
D000000000001111555522221111FG100049              20180215CUOTA                    MATRICULA2     0000095000P                                                                          30630291727
D000000000001111555522221111FG100050              20180215CUOTA                    MATRICULA1     0000066500P                                                                          30630291727
D000000000001111555522221111FG100051              20180215CUOTA                    MATRICULA1     0000070000P                                                                          30630291727
D000000000001111555522221111FG100051              20180215CUOTA                    MATRICULA2     0000066500P                                                                          30630291727
D000000000001111555522221111FG100053              20180215CUOTA                    MATRICULA1     0000095000P                                                                          30630291727
D000000000001111555522221111FG100054              20180215CUOTA                    MATRICULA1     0000095000P                                                                          30630291727
D000000000001111555522221111FG100055              20180215CUOTA                    MATRICULA1     0000095000P                                                                          30630291727
D000000000001111555522221111FG100056              20180215CUOTA                    MATRICULA1     0000095000P                                                                          30630291727
D000000000001111555522221111FG100068              20180215CUOTA                    MATRICULA1     0000066500P                                                                          30630291727
D000000000001111555522221111FG100068              20180215CUOTA                    MATRICULA2     0000070000P                                                                          30630291727
D000000000001111555522221111FG100069              20180215CUOTA                    MATRICULA1     0000100000P                                                                          30630291727
D000000000001111555522221111FG100070              20180215CUOTA                    MATRICULA1     0000095000P                                                                          30630291727
D000000000001111555522221111FG100081              20180215CUOTA                    MATRICULA1     0000100000P                                                                          30630291727
D000000000001111555522221111FG100082              20180215CUOTA                    MATRICULA1     0000100000P                                                                          30630291727
D000000000001111555522221111FG100092              20180215CUOTA                    MATRICULA1     0000100000P                                                                          30630291727
D000000000001111555522221111FG100105              20180215CUOTA                    MATRICULA1     0000070000P                                                                          30630291727
D000000000001111555522221111FG100105              20180215CUOTA                    MATRICULA2     0000066500P                                                                          30630291727
D000000000001111555522221111FG100107              20180215CUOTA                    MATRICULA1     0000100000P                                                                          30630291727
D000000000001111555522221111FG100107              20180215CUOTA                    MATRICULA2     0000070000P                                                                          30630291727
D000000000001111555522221111FG100109              20180215CUOTA                    MATRICULA1     0000100000P                                                                          30630291727
D000000000001111555522221111FG100112              20180215CUOTA                    MATRICULA1     0000100000P                                                                          30630291727
D000000000001111555522221111FG100114              20180215CUOTA                    MATRICULA1     0000100000P                                                                          30630291727
D000000000001111555522221111FG100115              20180215CUOTA                    MATRICULA1     0000100000P                                                                          30630291727
D000000000001111555522221111FG100116              20180215CUOTA                    MATRICULA1     0000100000P                                                                          30630291727
D000000000001111555522221111FG100117              20180215CUOTA                    MATRICULA1     0000100000P                                                                          30630291727
D000000000001111555522221111FG100117              20180215CUOTA                    MATRICULA2     0000070000P                                                                          30630291727
D000000000001111555522221111FG100117              20180215CUOTA                    MATRICULA3     0000070000P                                                                          30630291727
D000000000001111555522221111FG100117              20180215CUOTA                    MATRICULA4     0000070000P                                                                          30630291727
D000000000001111555522221111FG100117              20180215CUOTA                    MATRICULA5     0000070000P                                                                          30630291727
D000000000001111555522221111FG100117              20180215CUOTA                    MATRICULA6     0000070000P                                                                          30630291727
D000000000001111555522221111FG100117              20180215CUOTA                    MATRICULA7     0000100000P                                                                          30630291727
D000000000001111555522221111FG100117              20180215CUOTA                    MATRICULA8     0000070000P                                                                          30630291727
D000000000001111555522221111FG100118              20180215CUOTA                    MATRICULA1     0000100000P                                                                          30630291727
D000000000001111555522221111FG100119              20180215CUOTA                    MATRICULA1     0000100000P                                                                          30630291727
D000000000001111555522221111FG100120              20180215CUOTA                    MATRICULA1     0000100000P                                                                          30630291727
D000000000001111555522221111FG100121              20180215CUOTA                    MATRICULA1     0000100000P                                                                          30630291727
D000000000001111555522221111FG100121              20180215CUOTA                    MATRICULA2     0000070000P                                                                          30630291727
D000000000001111555522221111FG100123              20180215CUOTA                    MATRICULA1     0000100000P                                                                          30630291727
D000000000001111555522221111FG100124              20180215CUOTA                    MATRICULA1     0000100000P                                                                          30630291727
D000000000001111555522221111FG100125              20180215CUOTA                    MATRICULA1     0000070000P                                                                          30630291727
D000000000001111555522221111FG100125              20180215CUOTA                    MATRICULA2     0000066500P                                                                          30630291727
D000000000001111555522221111FG100125              20180215CUOTA                    MATRICULA3     0000100000P                                                                          30630291727
D000000000001111555522221111FG100126              20180215CUOTA                    MATRICULA1     0000066500P                                                                          30630291727
D000000000001111555522221111FG100126              20180215CUOTA                    MATRICULA2     0000100000P                                                                          30630291727
D000000000001111555522221111FG100126              20180215CUOTA                    MATRICULA3     0000070000P                                                                          30630291727
D000000000001111555522221111FG100128              20180215CUOTA                    MATRICULA1     0000100000P                                                                          30630291727
D000000000001111555522221111FG100129              20180215CUOTA                    MATRICULA1     0000070000P                                                                          30630291727
D000000000001111555522221111FG100129              20180215CUOTA                    MATRICULA2     0000100000P                                                                          30630291727
D000000000001111555522221111FG100130              20180215CUOTA                    MATRICULA1     0000100000P                                                                          30630291727
D000000000001111555522221111FG100132              20180215CUOTA                    MATRICULA1     0000100000P                                                                          30630291727
D000000000001111555522221111FG100132              20180215CUOTA                    MATRICULA2     0000070000P                                                                          30630291727
D000000000001111555522221111FG100132              20180215CUOTA                    MATRICULA3     0000066500P                                                                          30630291727
D000000000001111555522221111FG100136              20180215CUOTA                    MATRICULA1     0000100000P                                                                          30630291727
D000000000001111555522221111FG100137              20180215CUOTA                    MATRICULA1     0000100000P                                                                          30630291727
D000000000001111555522221111FG100138              20180215CUOTA                    MATRICULA1     0000100000P                                                                          30630291727
D000000000001111555522221111FG100139              20180215CUOTA                    MATRICULA1     0000100000P                                                                          30630291727
D000000000001111555522221111FG100141              20180215CUOTA                    MATRICULA1     0000070000P                                                                          30630291727
D000000000001111555522221111FG100142              20180215CUOTA                    MATRICULA1     0000066500P                                                                          30630291727
D000000000001111555522221111FG100142              20180215CUOTA                    MATRICULA2     0000100000P                                                                          30630291727
D000000000001111555522221111FG100143              20180215CUOTA                    MATRICULA1     0000100000P                                                                          30630291727
D000000000001111555522221111FG100144              20180215CUOTA                    MATRICULA1     0000100000P                                                                          30630291727
D000000000001111555522221111FG100145              20180215CUOTA                    MATRICULA1     0000100000P                                                                          30630291727
D000000000001111555522221111FG100146              20180215CUOTA                    MATRICULA1     0000070000P                                                                          30630291727
D000000000001111555522221111FG100147              20180215CUOTA                    MATRICULA1     0000070000P                                                                          30630291727
D000000000001111555522221111FG100147              20180215CUOTA                    MATRICULA2     0000100000P                                                                          30630291727
D000000000001111555522221111FG100148              20180215CUOTA                    MATRICULA1     0000070000P                                                                          30630291727
D000000000001111555522221111FG100148              20180215CUOTA                    MATRICULA2     0000070000P                                                                          30630291727
D000000000001111555522221111FG100149              20180215CUOTA                    MATRICULA1     0000100000P                                                                          30630291727
D000000000001111555522221111FG100150              20180215CUOTA                    MATRICULA1     0000100000P                                                                          30630291727
D000000000001111555522221111FG100151              20180215CUOTA                    MATRICULA1     0000100000P                                                                          30630291727
D000000000001111555522221111FG100153              20180215CUOTA                    MATRICULA1     0000100000P                                                                          30630291727
D000000000001111555522221111FG100157              20180215CUOTA                    MATRICULA1     0000066500P                                                                          30630291727
D000000000001111555522221111FG100158              20180215CUOTA                    MATRICULA1     0000070000P                                                                          30630291727
D000000000001111555522221111FG100167              20180215CUOTA                    MATRICULA1     0000070000P                                                                          30630291727
D000000000001111555522221111FG100168              20180215CUOTA                    MATRICULA1     0000070000P                                                                          30630291727
D000000000001111555522221111FG100168              20180215CUOTA                    MATRICULA2     0000100000P                                                                          30630291727
D000000000001111555522221111FG100169              20180215CUOTA                    MATRICULA1     0000040000P                                                                          30630291727
D000000000001111555522221111FG100169              20180215CUOTA                    MATRICULA2     0000038000P                                                                          30630291727
D000000000001111555522221111FG100171              20180215CUOTA                    MATRICULA1     0000070000P                                                                          30630291727
D000000000001111555522221111FG100175              20180215CUOTA                    MATRICULA1     0000040000P                                                                          30630291727
D000000000001111555522221111FG100175              20180215CUOTA                    MATRICULA2     0000100000P                                                                          30630291727
D000000000001111555522221111FG100175              20180215CUOTA                    MATRICULA3     0000038000P                                                                          30630291727
D000000000001111555522221111FG100175              20180215CUOTA                    MATRICULA4     0000040000P                                                                          30630291727
D000000000001111555522221111FG100175              20180215CUOTA                    MATRICULA5     0000038000P                                                                          30630291727
D000000000001111555522221111FG100175              20180215CUOTA                    MATRICULA6     0000070000P                                                                          30630291727
D000000000001111555522221111FG100177              20180215CUOTA                    MATRICULA1     0000100000P                                                                          30630291727
D000000000001111555522221111FG100177              20180215CUOTA                    MATRICULA2     0000066500P                                                                          30630291727
D000000000001111555522221111FG100178              20180215CUOTA                    MATRICULA1     0000095000P                                                                          30630291727
D000000000001111555522221111FG100180              20180215CUOTA                    MATRICULA1     0000095000P                                                                          30630291727
D000000000001111555522221111FG100183              20180215CUOTA                    MATRICULA1     0000095000P                                                                          30630291727
D000000000001111555522221111FG100184              20180215CUOTA                    MATRICULA1     0000066500P                                                                          30630291727
D000000000001111555522221111FG100198              20180215CUOTA                    MATRICULA1     0000100000P                                                                          30630291727
D000000000001111555522221111FG100201              20180215CUOTA                    MATRICULA1     0000070000P                                                                          30630291727
D000000000001111555522221111FG100202              20180215CUOTA                    MATRICULA1     0000100000P                                                                          30630291727
D000000000001111555522221111FG100207              20180215CUOTA                    MATRICULA1     0000070000P                                                                          30630291727
D000000000001111555522221111FG100208              20180215CUOTA                    MATRICULA1     0000070000P                                                                          30630291727
D000000000001111555522221111FG100210              20180215CUOTA                    MATRICULA1     0000100000P                                                                          30630291727
D000000000001111555522221111FG100211              20180215CUOTA                    MATRICULA1     0000070000P                                                                          30630291727
D000000000001111555522221111FG100215              20180215CUOTA                    MATRICULA1     0000070000P                                                                          30630291727
D000000000001111555522221111FG100217              20180215CUOTA                    MATRICULA1     0000070000P                                                                          30630291727
D000000000001111555522221111FG100218              20180215CUOTA                    MATRICULA1     0000100000P                                                                          30630291727
D000000000001111555522221111FG100230              20180215CUOTA                    MATRICULA1     0000100000P                                                                          30630291727
D000000000001111555522221111FG100231              20180215CUOTA                    MATRICULA1     0000070000P                                                                          30630291727
D000000000001111555522221111FG100232              20180215CUOTA                    MATRICULA1     0000070000P                                                                          30630291727
D000000000001111555522221111FG100235              20180215CUOTA                    MATRICULA1     0000059500P                                                                          30630291727
D000000000001111555522221111FG100237              20180215CUOTA                    MATRICULA1     0000100000P                                                                          30630291727
D000000000001111555522221111FG100239              20180215CUOTA                    MATRICULA1     0000100000P                                                                          30630291727
D000000000001111555522221111FG100239              20180215CUOTA                    MATRICULA2     0000070000P                                                                          30630291727
D000000000001111555522221111FG100243              20180215CUOTA                    MATRICULA1     0000095000P                                                                          30630291727
D000000000001111555522221111FG100248              20180215CUOTA                    MATRICULA1     0000095000P                                                                          30630291727
D000000000001111555522221111FG100253              20180215CUOTA                    MATRICULA1     0000095000P                                                                          30630291727
D000000000001111555522221111FG100275              20180215CUOTA                    MATRICULA1     0000100000P                                                                          30630291727
D000000000001111555522221111FG100276              20180215CUOTA                    MATRICULA1     0000100000P                                                                          30630291727
D000000000001111555522221111FG100277              20180215CUOTA                    MATRICULA1     0000085000P                                                                          30630291727
D000000000001111555522221111FG100278              20180215CUOTA                    MATRICULA1     0000100000P                                                                          30630291727
D000000000001111555522221111FG100282              20180215CUOTA                    MATRICULA1     0000070000P                                                                          30630291727
D000000000001111555522221111FG100282              20180215CUOTA                    MATRICULA2     0000100000P                                                                          30630291727
D000000000001111555522221111FG100284              20180215CUOTA                    MATRICULA1     0000100000P                                                                          30630291727
D000000000001111555522221111FG100284              20180215CUOTA                    MATRICULA2     0000070000P                                                                          30630291727
D000000000001111555522221111FG100285              20180215CUOTA                    MATRICULA1     0000100000P                                                                          30630291727
D000000000001111555522221111FG100287              20180215CUOTA                    MATRICULA1     0000100000P                                                                          30630291727
D000000000001111555522221111FG100288              20180215CUOTA                    MATRICULA1     0000100000P                                                                          30630291727
D000000000001111555522221111FG100289              20180215CUOTA                    MATRICULA1     0000085000P                                                                          30630291727
D000000000001111555522221111FG100289              20180215CUOTA                    MATRICULA2     0000090000P                                                                          30630291727
D000000000001111555522221111FG100290              20180215CUOTA                    MATRICULA1     0000070000P                                                                          30630291727
D000000000001111555522221111FG100290              20180215CUOTA                    MATRICULA2     0000100000P                                                                          30630291727
D000000000001111555522221111FG100291              20180215CUOTA                    MATRICULA1     0000100000P                                                                          30630291727
D000000000001111555522221111FG100292              20180215CUOTA                    MATRICULA1     0000100000P                                                                          30630291727
D000000000001111555522221111FG100293              20180215CUOTA                    MATRICULA1     0000095000P                                                                          30630291727
D000000000001111555522221111FG100298              20180215CUOTA                    MATRICULA1     0000100000P                                                                          30630291727
D000000000001111555522221111FG100301              20180215CUOTA                    MATRICULA1     0000085000P                                                                          30630291727
D000000000001111555522221111FG100301              20180215CUOTA                    MATRICULA2     0000059500P                                                                          30630291727
D000000000001111555522221111FG100302              20180215CUOTA                    MATRICULA1     0000070000P                                                                          30630291727
D000000000001111555522221111FG100302              20180215CUOTA                    MATRICULA2     0000066500P                                                                          30630291727
D000000000001111555522221111FG100302              20180215CUOTA                    MATRICULA3     0000100000P                                                                          30630291727
D000000000001111555522221111FG100305              20180215CUOTA                    MATRICULA1     0000100000P                                                                          30630291727
D000000000001111555522221111FG100308              20180215CUOTA                    MATRICULA1     0000100000P                                                                          30630291727
D000000000001111555522221111FG100308              20180215CUOTA                    MATRICULA2     0000095000P                                                                          30630291727
D000000000001111555522221111FG100309              20180215CUOTA                    MATRICULA1     0000100000P                                                                          30630291727
D000000000001111555522221111FG100309              20180215CUOTA                    MATRICULA2     0000095000P                                                                          30630291727
D000000000001111555522221111FG100312              20180215CUOTA                    MATRICULA1     0000100000P                                                                          30630291727
D000000000001111555522221111FG100316              20180215CUOTA                    MATRICULA1     0000100000P                                                                          30630291727
D000000000001111555522221111FG100316              20180215CUOTA                    MATRICULA2     0000066500P                                                                          30630291727
D000000000001111555522221111FG100317              20180215CUOTA                    MATRICULA1     0000070000P                                                                          30630291727
D000000000001111555522221111FG100318              20180215CUOTA                    MATRICULA1     0000100000P                                                                          30630291727
D000000000001111555522221111FG100320              20180215CUOTA                    MATRICULA1     0000070000P                                                                          30630291727
D000000000001111555522221111FG100320              20180215CUOTA                    MATRICULA2     0000100000P                                                                          30630291727
D000000000001111555522221111FG100330              20180215CUOTA                    MATRICULA1     0000095000P                                                                          30630291727
D000000000001111555522221111FG100333              20180215CUOTA                    MATRICULA1     0000095000P                                                                          30630291727
D000000000001111555522221111FG100335              20180215CUOTA                    MATRICULA1     0000100000P                                                                          30630291727
D000000000001111555522221111FG100336              20180215CUOTA                    MATRICULA1     0000100000P                                                                          30630291727
D000000000001111555522221111FG100337              20180215CUOTA                    MATRICULA1     0000100000P                                                                          30630291727
D000000000001111555522221111FG100338              20180215CUOTA                    MATRICULA1     0000100000P                                                                          30630291727
D000000000001111555522221111FG100340              20180215CUOTA                    MATRICULA1     0000095000P                                                                          30630291727
D000000000001111555522221111FG100344              20180215CUOTA                    MATRICULA1     0000095000P                                                                          30630291727
D000000000001111555522221111FG100346              20180215CUOTA                    MATRICULA1     0000066500P                                                                          30630291727
D000000000001111555522221111FG100346              20180215CUOTA                    MATRICULA2     0000100000P                                                                          30630291727
D000000000001111555522221111FG100347              20180215CUOTA                    MATRICULA1     0000095000P                                                                          30630291727
D000000000001111555522221111FG100349              20180215CUOTA                    MATRICULA1     0000095000P                                                                          30630291727
D000000000001111555522221111FG100350              20180215CUOTA                    MATRICULA1     0000095000P                                                                          30630291727
D000000000001111555522221111FG100352              20180215CUOTA                    MATRICULA1     0000066500P                                                                          30630291727
D000000000001111555522221111FG100353              20180215CUOTA                    MATRICULA1     0000095000P                                                                          30630291727
D000000000001111555522221111FG100355              20180215CUOTA                    MATRICULA1     0000095000P                                                                          30630291727
D000000000001111555522221111FG100356              20180215CUOTA                    MATRICULA1     0000090000P                                                                          30630291727
D000000000001111555522221111FG100360              20180215CUOTA                    MATRICULA1     0000095000P                                                                          30630291727
D000000000001111555522221111FG100372              20180215CUOTA                    MATRICULA1     0000095000P                                                                          30630291727
D000000000001111555522221111FG100373              20180215CUOTA                    MATRICULA1     0000100000P                                                                          30630291727
D000000000001111555522221111FG100373              20180215CUOTA                    MATRICULA2     0000095000P                                                                          30630291727
D000000000001111555522221111FG100374              20180215CUOTA                    MATRICULA1     0000070000P                                                                          30630291727
D000000000001111555522221111FG100374              20180215CUOTA                    MATRICULA2     0000066500P                                                                          30630291727
D000000000001111555522221111FG100375              20180215CUOTA                    MATRICULA1     0000095000P                                                                          30630291727
D000000000001111555522221111FG100379              20180215CUOTA                    MATRICULA1     0000070000P                                                                          30630291727
D000000000001111555522221111FG100379              20180215CUOTA                    MATRICULA2     0000066500P                                                                          30630291727
D000000000001111555522221111FG100381              20180215CUOTA                    MATRICULA1     0000095000P                                                                          30630291727
D000000000001111555522221111FG100382              20180215CUOTA                    MATRICULA1     0000066500P                                                                          30630291727
D000000000001111555522221111FG100382              20180215CUOTA                    MATRICULA2     0000100000P                                                                          30630291727
D000000000001111555522221111FG100384              20180215CUOTA                    MATRICULA1     0000070000P                                                                          30630291727
D000000000001111555522221111FG100384              20180215CUOTA                    MATRICULA2     0000100000P                                                                          30630291727
D000000000001111555522221111FG100385              20180215CUOTA                    MATRICULA1     0000066500P                                                                          30630291727
D000000000001111555522221111FG100386              20180215CUOTA                    MATRICULA1     0000095000P                                                                          30630291727
D000000000001111555522221111FG100387              20180215CUOTA                    MATRICULA1     0000095000P                                                                          30630291727
D000000000001111555522221111FG100392              20180215CUOTA                    MATRICULA1     0000095000P                                                                          30630291727
D000000000001111555522221111FG100393              20180215CUOTA                    MATRICULA1     0000100000P                                                                          30630291727
D000000000001111555522221111FG100393              20180215CUOTA                    MATRICULA2     0000095000P                                                                          30630291727
D000000000001111555522221111FG100402              20180215CUOTA                    MATRICULA1     0000100000P                                                                          30630291727
D000000000001111555522221111FG100402              20180215CUOTA                    MATRICULA2     0000040000P                                                                          30630291727
D000000000001111555522221111FG100411              20180215CUOTA                    MATRICULA1     0000070000P                                                                          30630291727
D000000000001111555522221111FG100412              20180215CUOTA                    MATRICULA1     0000070000P                                                                          30630291727
D000000000001111555522221111FG100412              20180215CUOTA                    MATRICULA2     0000066500P                                                                          30630291727
D000000000001111555522221111FG100415              20180215CUOTA                    MATRICULA1     0000100000P                                                                          30630291727
D000000000001111555522221111FG100426              20180215CUOTA                    MATRICULA1     0000100000P                                                                          30630291727
D000000000001111555522221111FG100426              20180215CUOTA                    MATRICULA2     0000070000P                                                                          30630291727
D000000000001111555522221111FG100428              20180215CUOTA                    MATRICULA1     0000100000P                                                                          30630291727
D000000000001111555522221111FG100428              20180215CUOTA                    MATRICULA2     0000070000P                                                                          30630291727
D000000000001111555522221111FG100430              20180215CUOTA                    MATRICULA1     0000066500P                                                                          30630291727
D000000000001111555522221111FG100436              20180215CUOTA                    MATRICULA1     0000100000P                                                                          30630291727
D000000000001111555522221111FG100439              20180215CUOTA                    MATRICULA1     0000100000P                                                                          30630291727
D000000000001111555522221111FG100440              20180215CUOTA                    MATRICULA1     0000100000P                                                                          30630291727
D000000000001111555522221111FG100445              20180215CUOTA                    MATRICULA1     0000095000P                                                                          30630291727
D000000000001111555522221111FG100445              20180215CUOTA                    MATRICULA2     0000100000P                                                                          30630291727
D000000000001111555522221111FG100448              20180215CUOTA                    MATRICULA1     0000100000P                                                                          30630291727
D000000000001111555522221111FG100449              20180215CUOTA                    MATRICULA1     0000100000P                                                                          30630291727
D000000000001111555522221111FG100450              20180215CUOTA                    MATRICULA1     0000100000P                                                                          30630291727
D000000000001111555522221111FG100451              20180215CUOTA                    MATRICULA1     0000100000P                                                                          30630291727
D000000000001111555522221111FG100455              20180215CUOTA                    MATRICULA1     0000100000P                                                                          30630291727
D000000000001111555522221111FG100456              20180215CUOTA                    MATRICULA1     0000100000P                                                                          30630291727
D000000000001111555522221111FG100458              20180215CUOTA                    MATRICULA1     0000100000P                                                                          30630291727
D000000000001111555522221111FG100459              20180215CUOTA                    MATRICULA1     0000100000P                                                                          30630291727
D000000000001111555522221111FG100460              20180215CUOTA                    MATRICULA1     0000100000P                                                                          30630291727
D000000000001111555522221111FG100461              20180215CUOTA                    MATRICULA1     0000070000P                                                                          30630291727
D000000000001111555522221111FG100461              20180215CUOTA                    MATRICULA2     0000100000P                                                                          30630291727
D000000000001111555522221111FG100462              20180215CUOTA                    MATRICULA1     0000100000P                                                                          30630291727
D000000000001111555522221111FG100463              20180215CUOTA                    MATRICULA1     0000100000P                                                                          30630291727
D000000000001111555522221111FG100464              20180215CUOTA                    MATRICULA1     0000100000P                                                                          30630291727
D000000000001111555522221111FG100464              20180215CUOTA                    MATRICULA2     0000066500P                                                                          30630291727
D000000000001111555522221111FG100467              20180215CUOTA                    MATRICULA1     0000070000P                                                                          30630291727
D000000000001111555522221111FG100468              20180215CUOTA                    MATRICULA1     0000100000P                                                                          30630291727
D000000000001111555522221111FG100470              20180215CUOTA                    MATRICULA1     0000100000P                                                                          30630291727
D000000000001111555522221111FG100471              20180215CUOTA                    MATRICULA1     0000100000P                                                                          30630291727
D000000000001111555522221111FG100473              20180215CUOTA                    MATRICULA1     0000070000P                                                                          30630291727
D000000000001111555522221111FG100484              20180215CUOTA                    MATRICULA1     0000066500P                                                                          30630291727
D000000000001111555522221111FG100485              20180215CUOTA                    MATRICULA1     0000095000P                                                                          30630291727
D000000000001111555522221111FG100486              20180215CUOTA                    MATRICULA1     0000100000P                                                                          30630291727
D000000000001111555522221111FG100486              20180215CUOTA                    MATRICULA2     0000070000P                                                                          30630291727
D000000000001111555522221111FG100487              20180215CUOTA                    MATRICULA1     0000100000P                                                                          30630291727
D000000000001111555522221111FG100487              20180215CUOTA                    MATRICULA2     0000070000P                                                                          30630291727
D000000000001111555522221111FG100488              20180215CUOTA                    MATRICULA1     0000100000P                                                                          30630291727
D000000000001111555522221111FG100489              20180215CUOTA                    MATRICULA1     0000100000P                                                                          30630291727
D000000000001111555522221111FG100489              20180215CUOTA                    MATRICULA2     0000070000P                                                                          30630291727
D000000000001111555522221111FG100490              20180215CUOTA                    MATRICULA1     0000070000P                                                                          30630291727
D000000000001111555522221111FG100490              20180215CUOTA                    MATRICULA2     0000066500P                                                                          30630291727
D000000000001111555522221111FG100492              20180215CUOTA                    MATRICULA1     0000070000P                                                                          30630291727
D000000000001111555522221111FG100492              20180215CUOTA                    MATRICULA2     0000100000P                                                                          30630291727
D000000000001111555522221111FG100494              20180215CUOTA                    MATRICULA1     0000100000P                                                                          30630291727
D000000000001111555522221111FG100494              20180215CUOTA                    MATRICULA2     0000070000P                                                                          30630291727
D000000000001111555522221111FG100495              20180215CUOTA                    MATRICULA1     0000070000P                                                                          30630291727
D000000000001111555522221111FG100495              20180215CUOTA                    MATRICULA2     0000100000P                                                                          30630291727
D000000000001111555522221111FG100497              20180215CUOTA                    MATRICULA1     0000100000P                                                                          30630291727
D000000000001111555522221111FG100531              20180215CUOTA                    MATRICULA1     0000100000P                                                                          30630291727
D000000000001111555522221111FG100535              20180215CUOTA                    MATRICULA1     0000095000P                                                                          30630291727
D000000000001111555522221111FG100537              20180215CUOTA                    MATRICULA1     0000070000P                                                                          30630291727
D000000000001111555522221111FG100538              20180215CUOTA                    MATRICULA1     0000070000P                                                                          30630291727
D000000000001111555522221111FG100538              20180215CUOTA                    MATRICULA2     0000100000P                                                                          30630291727
D000000000001111555522221111FG100539              20180215CUOTA                    MATRICULA1     0000100000P                                                                          30630291727
D000000000001111555522221111FG100539              20180215CUOTA                    MATRICULA2     0000095000P                                                                          30630291727
D000000000001111555522221111FG100540              20180215CUOTA                    MATRICULA1     0000070000P                                                                          30630291727
D000000000001111555522221111FG100540              20180215CUOTA                    MATRICULA2     0000066500P                                                                          30630291727
D000000000001111555522221111FG100540              20180215CUOTA                    MATRICULA3     0000095000P                                                                          30630291727
D000000000001111555522221111FG100542              20180215CUOTA                    MATRICULA1     0000100000P                                                                          30630291727
D000000000001111555522221111FG100542              20180215CUOTA                    MATRICULA2     0000070000P                                                                          30630291727
D000000000001111555522221111FG100543              20180215CUOTA                    MATRICULA1     0000100000P                                                                          30630291727
D000000000001111555522221111FG100544              20180215CUOTA                    MATRICULA1     0000095000P                                                                          30630291727
D000000000001111555522221111FG100547              20180215CUOTA                    MATRICULA1     0000100000P                                                                          30630291727
D000000000001111555522221111FG100547              20180215CUOTA                    MATRICULA2     0000070000P                                                                          30630291727
D000000000001111555522221111FG100551              20180215CUOTA                    MATRICULA1     0000100000P                                                                          30630291727
D000000000001111555522221111FG100555              20180215CUOTA                    MATRICULA1     0000095000P                                                                          30630291727
D000000000001111555522221111FG100556              20180215CUOTA                    MATRICULA1     0000100000P                                                                          30630291727
D000000000001111555522221111FG100557              20180215CUOTA                    MATRICULA1     0000085000P                                                                          30630291727
D000000000001111555522221111FG100559              20180215CUOTA                    MATRICULA1     0000070000P                                                                          30630291727
D000000000001111555522221111FG100560              20180215CUOTA                    MATRICULA1     0000095000P                                                                          30630291727
D000000000001111555522221111FG100564              20180215CUOTA                    MATRICULA1     0000100000P                                                                          30630291727
D000000000001111555522221111FG100566              20180215CUOTA                    MATRICULA1     0000100000P                                                                          30630291727
D000000000001111555522221111FG100569              20180215CUOTA                    MATRICULA1     0000100000P                                                                          30630291727
D000000000001111555522221111FG100574              20180215CUOTA                    MATRICULA1     0000070000P                                                                          30630291727
D000000000001111555522221111FG100574              20180215CUOTA                    MATRICULA2     0000100000P                                                                          30630291727
D000000000001111555522221111FG100576              20180215CUOTA                    MATRICULA1     0000085000P                                                                          30630291727
D000000000001111555522221111FG100578              20180215CUOTA                    MATRICULA1     0000100000P                                                                          30630291727
D000000000001111555522221111FG100579              20180215CUOTA                    MATRICULA1     0000085000P                                                                          30630291727
D000000000001111555522221111FG100579              20180215CUOTA                    MATRICULA2     0000034000P                                                                          30630291727
D000000000001111555522221111FG100579              20180215CUOTA                    MATRICULA3     0000036000P                                                                          30630291727
D000000000001111555522221111FG100579              20180215CUOTA                    MATRICULA4     0000059500P                                                                          30630291727
D000000000001111555522221111FG100581              20180215CUOTA                    MATRICULA1     0000100000P                                                                          30630291727
D000000000001111555522221111FG100603              20180215CUOTA                    MATRICULA1     0000100000P                                                                          30630291727
D000000000001111555522221111FG100604              20180215CUOTA                    MATRICULA1     0000100000P                                                                          30630291727
D000000000001111555522221111FG100606              20180215CUOTA                    MATRICULA1     0000100000P                                                                          30630291727
D000000000001111555522221111FG100608              20180215CUOTA                    MATRICULA1     0000095000P                                                                          30630291727
D000000000001111555522221111FG100611              20180215CUOTA                    MATRICULA1     0000100000P                                                                          30630291727
D000000000001111555522221111FG100613              20180215CUOTA                    MATRICULA1     0000095000P                                                                          30630291727
D000000000001111555522221111FG100614              20180215CUOTA                    MATRICULA1     0000100000P                                                                          30630291727
D000000000001111555522221111FG100615              20180215CUOTA                    MATRICULA1     0000095000P                                                                          30630291727
D000000000001111555522221111FG100616              20180215CUOTA                    MATRICULA1     0000095000P                                                                          30630291727
D000000000001111555522221111FG100620              20180215CUOTA                    MATRICULA1     0000100000P                                                                          30630291727
D000000000001111555522221111FG100623              20180215CUOTA                    MATRICULA1     0000095000P                                                                          30630291727
D000000000001111555522221111FG100623              20180215CUOTA                    MATRICULA2     0000070000P                                                                          30630291727
D000000000001111555522221111FG100623              20180215CUOTA                    MATRICULA3     0000066500P                                                                          30630291727
D000000000001111555522221111FG100625              20180215CUOTA                    MATRICULA1     0000100000P                                                                          30630291727
D000000000001111555522221111FG100631              20180215CUOTA                    MATRICULA1     0000100000P                                                                          30630291727
D000000000001111555522221111FG100631              20180215CUOTA                    MATRICULA2     0000070000P                                                                          30630291727
D000000000001111555522221111FG100632              20180215CUOTA                    MATRICULA1     0000100000P                                                                          30630291727
D000000000001111555522221111FG100635              20180215CUOTA                    MATRICULA1     0000095000P                                                                          30630291727
D000000000001111555522221111FG100636              20180215CUOTA                    MATRICULA1     0000100000P                                                                          30630291727
D000000000001111555522221111FG100636              20180215CUOTA                    MATRICULA2     0000070000P                                                                          30630291727
D000000000001111555522221111FG100637              20180215CUOTA                    MATRICULA1     0000100000P                                                                          30630291727
D000000000001111555522221111FG100642              20180215CUOTA                    MATRICULA1     0000070000P                                                                          30630291727
D000000000001111555522221111FG100642              20180215CUOTA                    MATRICULA2     0000066500P                                                                          30630291727
D000000000001111555522221111FG100645              20180215CUOTA                    MATRICULA1     0000100000P                                                                          30630291727
D000000000001111555522221111FG100660              20180215CUOTA                    MATRICULA1     0000100000P                                                                          30630291727
D000000000001111555522221111FG100660              20180215CUOTA                    MATRICULA2     0000095000P                                                                          30630291727
D000000000001111555522221111FG100669              20180215CUOTA                    MATRICULA1     0000100000P                                                                          30630291727
D000000000001111555522221111FG100669              20180215CUOTA                    MATRICULA2     0000095000P                                                                          30630291727
D000000000001111555522221111FG100702              20180215CUOTA                    MATRICULA1     0000100000P                                                                          30630291727
D000000000001111555522221111FG100703              20180215CUOTA                    MATRICULA1     0000100000P                                                                          30630291727
D000000000001111555522221111FG100704              20180215CUOTA                    MATRICULA1     0000070000P                                                                          30630291727
D000000000001111555522221111FG100704              20180215CUOTA                    MATRICULA2     0000100000P                                                                          30630291727
D000000000001111555522221111FG100705              20180215CUOTA                    MATRICULA1     0000070000P                                                                          30630291727
D000000000001111555522221111FG100705              20180215CUOTA                    MATRICULA2     0000100000P                                                                          30630291727
D000000000001111555522221111FG100706              20180215CUOTA                    MATRICULA1     0000100000P                                                                          30630291727
D000000000001111555522221111FG100707              20180215CUOTA                    MATRICULA1     0000100000P                                                                          30630291727
D000000000001111555522221111FG100708              20180215CUOTA                    MATRICULA1     0000100000P                                                                          30630291727
D000000000001111555522221111FG100709              20180215CUOTA                    MATRICULA1     0000100000P                                                                          30630291727
D000000000001111555522221111FG100710              20180215CUOTA                    MATRICULA1     0000100000P                                                                          30630291727
D000000000001111555522221111FG100711              20180215CUOTA                    MATRICULA1     0000070000P                                                                          30630291727
D000000000001111555522221111FG100711              20180215CUOTA                    MATRICULA2     0000100000P                                                                          30630291727
D000000000001111555522221111FG100712              20180215CUOTA                    MATRICULA1     0000100000P                                                                          30630291727
D000000000001111555522221111FG100713              20180215CUOTA                    MATRICULA1     0000100000P                                                                          30630291727
D000000000001111555522221111FG100714              20180215CUOTA                    MATRICULA1     0000070000P                                                                          30630291727
D000000000001111555522221111FG100714              20180215CUOTA                    MATRICULA2     0000040000P                                                                          30630291727
D000000000001111555522221111FG100714              20180215CUOTA                    MATRICULA3     0000100000P                                                                          30630291727
D000000000001111555522221111FG100715              20180215CUOTA                    MATRICULA1     0000070000P                                                                          30630291727
D000000000001111555522221111FG100715              20180215CUOTA                    MATRICULA2     0000100000P                                                                          30630291727
D000000000001111555522221111FG100716              20180215CUOTA                    MATRICULA1     0000100000P                                                                          30630291727
D000000000001111555522221111FG100717              20180215CUOTA                    MATRICULA1     0000070000P                                                                          30630291727
D000000000001111555522221111FG100717              20180215CUOTA                    MATRICULA2     0000100000P                                                                          30630291727
D000000000001111555522221111FG100718              20180215CUOTA                    MATRICULA1     0000100000P                                                                          30630291727
D000000000001111555522221111FG100719              20180215CUOTA                    MATRICULA1     0000070000P                                                                          30630291727
D000000000001111555522221111FG100719              20180215CUOTA                    MATRICULA2     0000100000P                                                                          30630291727
D000000000001111555522221111FG100720              20180215CUOTA                    MATRICULA1     0000100000P                                                                          30630291727
D000000000001111555522221111FG100721              20180215CUOTA                    MATRICULA1     0000070000P                                                                          30630291727
D000000000001111555522221111FG100721              20180215CUOTA                    MATRICULA2     0000100000P                                                                          30630291727
D000000000001111555522221111FG100722              20180215CUOTA                    MATRICULA1     0000100000P                                                                          30630291727
D000000000001111555522221111FG100722              20180215CUOTA                    MATRICULA2     0000070000P                                                                          30630291727
D000000000001111555522221111FG100723              20180215CUOTA                    MATRICULA1     0000100000P                                                                          30630291727
D000000000001111555522221111FG100724              20180215CUOTA                    MATRICULA1     0000100000P                                                                          30630291727
D000000000001111555522221111FG100725              20180215CUOTA                    MATRICULA1     0000100000P                                                                          30630291727
D000000000001111555522221111FG100725              20180215CUOTA                    MATRICULA2     0000070000P                                                                          30630291727
D000000000001111555522221111FG100726              20180215CUOTA                    MATRICULA1     0000100000P                                                                          30630291727
D000000000001111555522221111FG100727              20180215CUOTA                    MATRICULA1     0000070000P                                                                          30630291727
D000000000001111555522221111FG100727              20180215CUOTA                    MATRICULA2     0000100000P                                                                          30630291727
D000000000001111555522221111FG100728              20180215CUOTA                    MATRICULA1     0000100000P                                                                          30630291727
D000000000001111555522221111FG100729              20180215CUOTA                    MATRICULA1     0000100000P                                                                          30630291727
D000000000001111555522221111FG100731              20180215CUOTA                    MATRICULA1     0000100000P                                                                          30630291727
D000000000001111555522221111FG100732              20180215CUOTA                    MATRICULA1     0000095000P                                                                          30630291727
D000000000001111555522221111FG100734              20180215CUOTA                    MATRICULA1     0000095000P                                                                          30630291727
D000000000001111555522221111FG100735              20180215CUOTA                    MATRICULA1     0000066500P                                                                          30630291727
D000000000001111555522221111FG100735              20180215CUOTA                    MATRICULA2     0000070000P                                                                          30630291727
D000000000001111555522221111FG100737              20180215CUOTA                    MATRICULA1     0000095000P                                                                          30630291727
D000000000001111555522221111FG100739              20180215CUOTA                    MATRICULA1     0000095000P                                                                          30630291727
D000000000001111555522221111FG100743              20180215CUOTA                    MATRICULA1     0000095000P                                                                          30630291727
D000000000001111555522221111FG100745              20180215CUOTA                    MATRICULA1     0000095000P                                                                          30630291727
D000000000001111555522221111FG100747              20180215CUOTA                    MATRICULA1     0000100000P                                                                          30630291727
D000000000001111555522221111FG100747              20180215CUOTA                    MATRICULA2     0000095000P                                                                          30630291727
D000000000001111555522221111FG100748              20180215CUOTA                    MATRICULA1     0000100000P                                                                          30630291727
D000000000001111555522221111FG100748              20180215CUOTA                    MATRICULA2     0000095000P                                                                          30630291727
D000000000001111555522221111FG100749              20180215CUOTA                    MATRICULA1     0000100000P                                                                          30630291727
D000000000001111555522221111FG100749              20180215CUOTA                    MATRICULA2     0000095000P                                                                          30630291727
D000000000001111555522221111FG100750              20180215CUOTA                    MATRICULA1     0000100000P                                                                          30630291727
D000000000001111555522221111FG100750              20180215CUOTA                    MATRICULA2     0000095000P                                                                          30630291727
D000000000001111555522221111FG100751              20180215CUOTA                    MATRICULA1     0000085000P                                                                          30630291727
D000000000001111555522221111FG100751              20180215CUOTA                    MATRICULA2     0000059500P                                                                          30630291727
D000000000001111555522221111FG100751              20180215CUOTA                    MATRICULA3     0000063000P                                                                          30630291727
D000000000001111555522221111FG100752              20180215CUOTA                    MATRICULA1     0000095000P                                                                          30630291727
D000000000001111555522221111FG100752              20180215CUOTA                    MATRICULA2     0000100000P                                                                          30630291727
D000000000001111555522221111FG100753              20180215CUOTA                    MATRICULA1     0000100000P                                                                          30630291727
D000000000001111555522221111FG100753              20180215CUOTA                    MATRICULA2     0000095000P                                                                          30630291727
D000000000001111555522221111FG100754              20180215CUOTA                    MATRICULA1     0000100000P                                                                          30630291727
D000000000001111555522221111FG100754              20180215CUOTA                    MATRICULA2     0000095000P                                                                          30630291727
D000000000001111555522221111FG100755              20180215CUOTA                    MATRICULA1     0000095000P                                                                          30630291727
D000000000001111555522221111FG100755              20180215CUOTA                    MATRICULA2     0000100000P                                                                          30630291727
D000000000001111555522221111FG100756              20180215CUOTA                    MATRICULA1     0000100000P                                                                          30630291727
D000000000001111555522221111FG100756              20180215CUOTA                    MATRICULA2     0000095000P                                                                          30630291727
D000000000001111555522221111FG100757              20180215CUOTA                    MATRICULA1     0000100000P                                                                          30630291727
D000000000001111555522221111FG100757              20180215CUOTA                    MATRICULA2     0000095000P                                                                          30630291727
D000000000001111555522221111FG100758              20180215CUOTA                    MATRICULA1     0000100000P                                                                          30630291727
D000000000001111555522221111FG100758              20180215CUOTA                    MATRICULA2     0000095000P                                                                          30630291727
D000000000001111555522221111FG100759              20180215CUOTA                    MATRICULA1     0000100000P                                                                          30630291727
D000000000001111555522221111FG100759              20180215CUOTA                    MATRICULA2     0000095000P                                                                          30630291727
D000000000001111555522221111FG100760              20180215CUOTA                    MATRICULA1     0000070000P                                                                          30630291727
D000000000001111555522221111FG100760              20180215CUOTA                    MATRICULA2     0000066500P                                                                          30630291727
D000000000001111555522221111FG100760              20180215CUOTA                    MATRICULA3     0000100000P                                                                          30630291727
D000000000001111555522221111FG100761              20180215CUOTA                    MATRICULA1     0000100000P                                                                          30630291727
D000000000001111555522221111FG100761              20180215CUOTA                    MATRICULA2     0000095000P                                                                          30630291727
D000000000001111555522221111FG100762              20180215CUOTA                    MATRICULA1     0000100000P                                                                          30630291727
D000000000001111555522221111FG100762              20180215CUOTA                    MATRICULA2     0000095000P                                                                          30630291727
D000000000001111555522221111FG100763              20180215CUOTA                    MATRICULA1     0000100000P                                                                          30630291727
D000000000001111555522221111FG100763              20180215CUOTA                    MATRICULA2     0000095000P                                                                          30630291727
D000000000001111555522221111FG100764              20180215CUOTA                    MATRICULA1     0000100000P                                                                          30630291727
D000000000001111555522221111FG100764              20180215CUOTA                    MATRICULA2     0000095000P                                                                          30630291727
D000000000001111555522221111FG100765              20180215CUOTA                    MATRICULA1     0000100000P                                                                          30630291727
D000000000001111555522221111FG100765              20180215CUOTA                    MATRICULA2     0000095000P                                                                          30630291727
D000000000001111555522221111FG100766              20180215CUOTA                    MATRICULA1     0000100000P                                                                          30630291727
D000000000001111555522221111FG100766              20180215CUOTA                    MATRICULA2     0000095000P                                                                          30630291727
D000000000001111555522221111FG100767              20180215CUOTA                    MATRICULA1     0000100000P                                                                          30630291727
D000000000001111555522221111FG100767              20180215CUOTA                    MATRICULA2     0000095000P                                                                          30630291727
D000000000001111555522221111FG100768              20180215CUOTA                    MATRICULA1     0000100000P                                                                          30630291727
D000000000001111555522221111FG100768              20180215CUOTA                    MATRICULA2     0000095000P                                                                          30630291727
D000000000001111555522221111FG100769              20180215CUOTA                    MATRICULA1     0000100000P                                                                          30630291727
D000000000001111555522221111FG100769              20180215CUOTA                    MATRICULA2     0000095000P                                                                          30630291727
D000000000001111555522221111FG100770              20180215CUOTA                    MATRICULA1     0000100000P                                                                          30630291727
D000000000001111555522221111FG100770              20180215CUOTA                    MATRICULA2     0000095000P                                                                          30630291727
D000000000001111555522221111FG100771              20180215CUOTA                    MATRICULA1     0000100000P                                                                          30630291727
D000000000001111555522221111FG100771              20180215CUOTA                    MATRICULA2     0000095000P                                                                          30630291727
D000000000001111555522221111FG100772              20180215CUOTA                    MATRICULA1     0000095000P                                                                          30630291727
D000000000001111555522221111FG100772              20180215CUOTA                    MATRICULA2     0000100000P                                                                          30630291727
D000000000001111555522221111FG100773              20180215CUOTA                    MATRICULA1     0000095000P                                                                          30630291727
D000000000001111555522221111FG100773              20180215CUOTA                    MATRICULA2     0000100000P                                                                          30630291727
D000000000001111555522221111FG100774              20180215CUOTA                    MATRICULA1     0000100000P                                                                          30630291727
D000000000001111555522221111FG100774              20180215CUOTA                    MATRICULA2     0000095000P                                                                          30630291727
D000000000001111555522221111FG100775              20180215CUOTA                    MATRICULA1     0000100000P                                                                          30630291727
D000000000001111555522221111FG100776              20180215CUOTA                    MATRICULA1     0000070000P                                                                          30630291727
D000000000001111555522221111FG100776              20180215CUOTA                    MATRICULA2     0000100000P                                                                          30630291727
D000000000001111555522221111FG100777              20180215CUOTA                    MATRICULA1     0000100000P                                                                          30630291727
D000000000001111555522221111FG100778              20180215CUOTA                    MATRICULA1     0000100000P                                                                          30630291727
D000000000001111555522221111FG100779              20180215CUOTA                    MATRICULA1     0000100000P                                                                          30630291727
D000000000001111555522221111FG100780              20180215CUOTA                    MATRICULA1     0000100000P                                                                          30630291727
D000000000001111555522221111FG100782              20180215CUOTA                    MATRICULA1     0000070000P                                                                          30630291727
D000000000001111555522221111FG100783              20180215CUOTA                    MATRICULA1     0000070000P                                                                          30630291727
D000000000001111555522221111FG100784              20180215CUOTA                    MATRICULA1     0000100000P                                                                          30630291727
D000000000001111555522221111FG100787              20180215CUOTA                    MATRICULA1     0000100000P                                                                          30630291727
D000000000001111555522221111FG100789              20180215CUOTA                    MATRICULA1     0000100000P                                                                          30630291727
D000000000001111555522221111FG100790              20180215CUOTA                    MATRICULA1     0000085000P                                                                          30630291727
D000000000001111555522221111FG100791              20180215CUOTA                    MATRICULA1     0000100000P                                                                          30630291727
D000000000001111555522221111FG100792              20180215CUOTA                    MATRICULA1     0000100000P                                                                          30630291727
D000000000001111555522221111FG100792              20180215CUOTA                    MATRICULA2     0000095000P                                                                          30630291727
D000000000001111555522221111FG100794              20180215CUOTA                    MATRICULA1     0000100000P                                                                          30630291727
D000000000001111555522221111FG100798              20180215CUOTA                    MATRICULA1     0000100000P                                                                          30630291727
D000000000001111555522221111FG100799              20180215CUOTA                    MATRICULA1     0000100000P                                                                          30630291727
D000000000001111555522221111FG100802              20180215CUOTA                    MATRICULA1     0000100000P                                                                          30630291727
D000000000001111555522221111FG100805              20180215CUOTA                    MATRICULA1     0000100000P                                                                          30630291727
D000000000001111555522221111FG100805              20180215CUOTA                    MATRICULA2     0000095000P                                                                          30630291727
D000000000001111555522221111FG100807              20180215CUOTA                    MATRICULA1     0000100000P                                                                          30630291727
D000000000001111555522221111FG100808              20180215CUOTA                    MATRICULA1     0000100000P                                                                          30630291727
D000000000001111555522221111FG100813              20180215CUOTA                    MATRICULA1     0000100000P                                                                          30630291727
D000000000001111555522221111FG100813              20180215CUOTA                    MATRICULA2     0000095000P                                                                          30630291727
D000000000001111555522221111FG100817              20180215CUOTA                    MATRICULA1     0000095000P                                                                          30630291727
D000000000001111555522221111FG100821              20180215CUOTA                    MATRICULA1     0000100000P                                                                          30630291727
D000000000001111555522221111FG100823              20180215CUOTA                    MATRICULA1     0000100000P                                                                          30630291727
D000000000001111555522221111FG100826              20180215CUOTA                    MATRICULA1     0000100000P                                                                          30630291727
D000000000001111555522221111FG100827              20180215CUOTA                    MATRICULA1     0000100000P                                                                          30630291727
D000000000001111555522221111FG100828              20180215CUOTA                    MATRICULA1     0000100000P                                                                          30630291727
D000000000001111555522221111FG100828              20180215CUOTA                    MATRICULA2     0000070000P                                                                          30630291727
D000000000001111555522221111FG100829              20180215CUOTA                    MATRICULA1     0000100000P                                                                          30630291727
D000000000001111555522221111FG100838              20180215CUOTA                    MATRICULA1     0000085000P                                                                          30630291727
T0000476000000042193500                                                                                                                                                                                 
