H30630291727CUOTA     61827062017            COLEGIO VECCHI                                                                                                                                             
D000000000000340250608730004206004FG100002              20170616CUOTA                    MATRICULA1     0000105000P                                                                          30630291727
D000000000000340250608730004206004FG100002              20170616CUOTA                    MATRICULA2     0000105000P                                                                          30630291727
D000000000000340250608730004206004FG100002              20170616CUOTA                    MATRICULA3     0000105000P                                                                          30630291727
D000000000000340250608730004206004FG100002              20170616CUOTA                    MATRICULA4     0000105000P                                                                          30630291727
D000000000000340250608730004206004FG100002              20170616CUOTA                    MATRICULA5     0000105000P                                                                          30630291727
D000000000000340250608730004206004FG100002              20170616CUOTA                    MATRICULA6     0000105000P                                                                          30630291727
D000000000000340250608730012103010FG100009              20170616CUOTA                    MATRICULA1     0000105000P                                                                          30630291727
D000000000000340250608730012103010FG100009              20170616CUOTA                    MATRICULA2     0000105000P                                                                          30630291727
D000000000000340250608730012103010FG100009              20170616CUOTA                    MATRICULA3     0000105000P                                                                          30630291727
D000000000000340250608730012103010FG100009              20170616CUOTA                    MATRICULA4     0000105000P                                                                          30630291727
D000000000000340250608730012103010FG100009              20170616CUOTA                    MATRICULA5     0000105000P                                                                          30630291727
D000000000000340250608730012103010FG100009              20170616CUOTA                    MATRICULA6     0000105000P                                                                          30630291727
D000000000000110546930054614501847FG100015              20170616CUOTA                    MATRICULA1     0000073500P                                                                          30630291727
D000000000000110546930054614501847FG100015              20170616CUOTA                    MATRICULA2     0000073500P                                                                          30630291727
D000000000000110546930054614501847FG100015              20170616CUOTA                    MATRICULA3     0000091000P                                                                          30630291727
D000000000000110546930054614501847FG100015              20170616CUOTA                    MATRICULA4     0000073500P                                                                          30630291727
D000000000000110546930054614501847FG100015              20170616CUOTA                    MATRICULA5     0000091000P                                                                          30630291727
D000000000000110546930054614501847FG100015              20170616CUOTA                    MATRICULA6     0000091000P                                                                          30630291727
D000000000000110546930054614501847FG100015              20170616CUOTA                    MATRICULA7     0000073500P                                                                          30630291727
D000000000000110546930054614501847FG100015              20170616CUOTA                    MATRICULA8     0000091000P                                                                          30630291727
D000000000000110546930054614501847FG100015              20170616CUOTA                    MATRICULA9     0000073500P                                                                          30630291727
D000000000000110546930054614501847FG100015              20170616CUOTA                    MATRICULA10    0000091000P                                                                          30630291727
D000000000000110546930054614501847FG100015              20170616CUOTA                    MATRICULA11    0000073500P                                                                          30630291727
D000000000000110546930054614501847FG100015              20170616CUOTA                    MATRICULA12    0000091000P                                                                          30630291727
D000000000000340250608730001002001FG100017              20170616CUOTA                    MATRICULA1     0000105000P                                                                          30630291727
D000000000000340250608730001002001FG100017              20170616CUOTA                    MATRICULA2     0000105000P                                                                          30630291727
D000000000000340250608730001002001FG100017              20170616CUOTA                    MATRICULA3     0000105000P                                                                          30630291727
D000000000000340250608730001002001FG100017              20170616CUOTA                    MATRICULA4     0000105000P                                                                          30630291727
D000000000000340250608730001002001FG100017              20170616CUOTA                    MATRICULA5     0000105000P                                                                          30630291727
D000000000000340250608730001002001FG100017              20170616CUOTA                    MATRICULA6     0000105000P                                                                          30630291727
D000000000001910092655009259833832FG100019              20170616CUOTA                    MATRICULA1     0000105000P                                                                          30630291727
D000000000001910092655009259833832FG100019              20170616CUOTA                    MATRICULA2     0000105000P                                                                          30630291727
D000000000001910092655009259833832FG100019              20170616CUOTA                    MATRICULA3     0000105000P                                                                          30630291727
D000000000001910092655009259833832FG100019              20170616CUOTA                    MATRICULA4     0000105000P                                                                          30630291727
D000000000001910092655009259833832FG100019              20170616CUOTA                    MATRICULA5     0000105000P                                                                          30630291727
D000000000001910092655009259833832FG100019              20170616CUOTA                    MATRICULA6     0000105000P                                                                          30630291727
D000000000000110546930054613511429FG100027              20170616CUOTA                    MATRICULA1     0000091000P                                                                          30630291727
D000000000000110546930054613511429FG100027              20170616CUOTA                    MATRICULA2     0000073500P                                                                          30630291727
D000000000000110546930054613511429FG100027              20170616CUOTA                    MATRICULA3     0000091000P                                                                          30630291727
D000000000000110546930054613511429FG100027              20170616CUOTA                    MATRICULA4     0000073500P                                                                          30630291727
D000000000000110546930054613511429FG100027              20170616CUOTA                    MATRICULA5     0000091000P                                                                          30630291727
D000000000000110546930054613511429FG100027              20170616CUOTA                    MATRICULA6     0000073500P                                                                          30630291727
D000000000000110546930054613511429FG100027              20170616CUOTA                    MATRICULA7     0000091000P                                                                          30630291727
D000000000000110546930054613511429FG100027              20170616CUOTA                    MATRICULA8     0000073500P                                                                          30630291727
D000000000000110546930054613511429FG100027              20170616CUOTA                    MATRICULA9     0000073500P                                                                          30630291727
D000000000000110546930054613511429FG100027              20170616CUOTA                    MATRICULA10    0000091000P                                                                          30630291727
D000000000000110546930054613511429FG100027              20170616CUOTA                    MATRICULA11    0000073500P                                                                          30630291727
D000000000000110546930054613511429FG100027              20170616CUOTA                    MATRICULA12    0000091000P                                                                          30630291727
D000000000000340250608299002979003FG100029              20170616CUOTA                    MATRICULA1     0000105000P                                                                          30630291727
D000000000000340250608299002979003FG100029              20170616CUOTA                    MATRICULA2     0000105000P                                                                          30630291727
D000000000000340250608299002979003FG100029              20170616CUOTA                    MATRICULA3     0000105000P                                                                          30630291727
D000000000000340250608299002979003FG100029              20170616CUOTA                    MATRICULA4     0000105000P                                                                          30630291727
D000000000000340250608299002979003FG100029              20170616CUOTA                    MATRICULA5     0000105000P                                                                          30630291727
D000000000000340250608299002979003FG100029              20170616CUOTA                    MATRICULA6     0000105000P                                                                          30630291727
D000000000000340299508730003090002FG100033              20170616CUOTA                    MATRICULA1     0000073500P                                                                          30630291727
D000000000000340299508730003090002FG100033              20170616CUOTA                    MATRICULA2     0000073500P                                                                          30630291727
D000000000000340299508730003090002FG100033              20170616CUOTA                    MATRICULA3     0000105000P                                                                          30630291727
D000000000000340299508730003090002FG100033              20170616CUOTA                    MATRICULA4     0000073500P                                                                          30630291727
D000000000000340299508730003090002FG100033              20170616CUOTA                    MATRICULA5     0000105000P                                                                          30630291727
D000000000000340299508730003090002FG100033              20170616CUOTA                    MATRICULA6     0000073500P                                                                          30630291727
D000000000000340299508730003090002FG100033              20170616CUOTA                    MATRICULA7     0000105000P                                                                          30630291727
D000000000000340299508730003090002FG100033              20170616CUOTA                    MATRICULA8     0000073500P                                                                          30630291727
D000000000000340299508730003090002FG100033              20170616CUOTA                    MATRICULA9     0000105000P                                                                          30630291727
D000000000000340299508730003090002FG100033              20170616CUOTA                    MATRICULA10    0000105000P                                                                          30630291727
D000000000000340299508730003090002FG100033              20170616CUOTA                    MATRICULA11    0000073500P                                                                          30630291727
D000000000000340299508730003090002FG100033              20170616CUOTA                    MATRICULA12    0000105000P                                                                          30630291727
D000000000000340250608730003177015FG100034              20170616CUOTA                    MATRICULA1     0000073500P                                                                          30630291727
D000000000000340250608730003177015FG100034              20170616CUOTA                    MATRICULA2     0000091000P                                                                          30630291727
D000000000000340250608730003177015FG100034              20170616CUOTA                    MATRICULA3     0000042000P                                                                          30630291727
D000000000000340250608730003177015FG100034              20170616CUOTA                    MATRICULA4     0000073500P                                                                          30630291727
D000000000000340250608730003177015FG100034              20170616CUOTA                    MATRICULA5     0000091000P                                                                          30630291727
D000000000000340250608730003177015FG100034              20170616CUOTA                    MATRICULA6     0000073500P                                                                          30630291727
D000000000000340250608730003177015FG100034              20170616CUOTA                    MATRICULA7     0000091000P                                                                          30630291727
D000000000000340250608730003177015FG100034              20170616CUOTA                    MATRICULA8     0000042000P                                                                          30630291727
D000000000000340250608730003177015FG100034              20170616CUOTA                    MATRICULA9     0000073500P                                                                          30630291727
D000000000000340250608730003177015FG100034              20170616CUOTA                    MATRICULA10    0000042000P                                                                          30630291727
D000000000000340250608730003177015FG100034              20170616CUOTA                    MATRICULA11    0000073500P                                                                          30630291727
D000000000000340250608730003177015FG100034              20170616CUOTA                    MATRICULA12    0000091000P                                                                          30630291727
D000000000000340250608730003177015FG100034              20170616CUOTA                    MATRICULA13    0000042000P                                                                          30630291727
D000000000000340250608730003177015FG100034              20170616CUOTA                    MATRICULA14    0000073500P                                                                          30630291727
D000000000000340250608730003177015FG100034              20170616CUOTA                    MATRICULA15    0000091000P                                                                          30630291727
D000000000000340250608730003177015FG100034              20170616CUOTA                    MATRICULA16    0000042000P                                                                          30630291727
D000000000000340250608730003177015FG100034              20170616CUOTA                    MATRICULA17    0000091000P                                                                          30630291727
D000000000000340250608730003177015FG100034              20170616CUOTA                    MATRICULA18    0000042000P                                                                          30630291727
D000000000000340250608730005810008FG100035              20170616CUOTA                    MATRICULA1     0000105000P                                                                          30630291727
D000000000000340250608730005810008FG100035              20170616CUOTA                    MATRICULA2     0000105000P                                                                          30630291727
D000000000000340250608730005810008FG100035              20170616CUOTA                    MATRICULA3     0000105000P                                                                          30630291727
D000000000000340250608730005810008FG100035              20170616CUOTA                    MATRICULA4     0000105000P                                                                          30630291727
D000000000000340250608730005810008FG100035              20170616CUOTA                    MATRICULA5     0000105000P                                                                          30630291727
D000000000000340250608730005810008FG100035              20170616CUOTA                    MATRICULA6     0000105000P                                                                          30630291727
D000000000000110546930054600046415FG100036              20170616CUOTA                    MATRICULA1     0000105000P                                                                          30630291727
D000000000000110546930054600046415FG100036              20170616CUOTA                    MATRICULA2     0000105000P                                                                          30630291727
D000000000000110546930054600046415FG100036              20170616CUOTA                    MATRICULA3     0000105000P                                                                          30630291727
D000000000000110546930054600046415FG100036              20170616CUOTA                    MATRICULA4     0000105000P                                                                          30630291727
D000000000000110546930054600046415FG100036              20170616CUOTA                    MATRICULA5     0000105000P                                                                          30630291727
D000000000000110546930054600046415FG100036              20170616CUOTA                    MATRICULA6     0000105000P                                                                          30630291727
D000000000000340250608122023952000FG100038              20170616CUOTA                    MATRICULA1     0000105000P                                                                          30630291727
D000000000000340250608122023952000FG100038              20170616CUOTA                    MATRICULA2     0000105000P                                                                          30630291727
D000000000000340250608122023952000FG100038              20170616CUOTA                    MATRICULA3     0000105000P                                                                          30630291727
D000000000000340250608122023952000FG100038              20170616CUOTA                    MATRICULA4     0000105000P                                                                          30630291727
D000000000000340250608122023952000FG100038              20170616CUOTA                    MATRICULA5     0000105000P                                                                          30630291727
D000000000000340250608122023952000FG100038              20170616CUOTA                    MATRICULA6     0000105000P                                                                          30630291727
D000000000000340250608730010569014FG100039              20170616CUOTA                    MATRICULA1     0000105000P                                                                          30630291727
D000000000000340250608730010569014FG100039              20170616CUOTA                    MATRICULA2     0000105000P                                                                          30630291727
D000000000000340250608730010569014FG100039              20170616CUOTA                    MATRICULA3     0000105000P                                                                          30630291727
D000000000000340250608730010569014FG100039              20170616CUOTA                    MATRICULA4     0000105000P                                                                          30630291727
D000000000000340250608730010569014FG100039              20170616CUOTA                    MATRICULA5     0000105000P                                                                          30630291727
D000000000000340250608730010569014FG100039              20170616CUOTA                    MATRICULA6     0000105000P                                                                          30630291727
D000000000000340250608730003239014FG100042              20170616CUOTA                    MATRICULA1     0000105000P                                                                          30630291727
D000000000000340250608730003239014FG100042              20170616CUOTA                    MATRICULA2     0000105000P                                                                          30630291727
D000000000000340250608730003239014FG100042              20170616CUOTA                    MATRICULA3     0000105000P                                                                          30630291727
D000000000000340250608730003239014FG100042              20170616CUOTA                    MATRICULA4     0000105000P                                                                          30630291727
D000000000000340250608730003239014FG100042              20170616CUOTA                    MATRICULA5     0000105000P                                                                          30630291727
D000000000000340250608730003239014FG100042              20170616CUOTA                    MATRICULA6     0000105000P                                                                          30630291727
D000000000000340250608730006172000FG100047              20170616CUOTA                    MATRICULA1     0000105000P                                                                          30630291727
D000000000000340250608730006172000FG100047              20170616CUOTA                    MATRICULA2     0000105000P                                                                          30630291727
D000000000000340250608730006172000FG100047              20170616CUOTA                    MATRICULA3     0000105000P                                                                          30630291727
D000000000000340250608730006172000FG100047              20170616CUOTA                    MATRICULA4     0000105000P                                                                          30630291727
D000000000000340250608730006172000FG100047              20170616CUOTA                    MATRICULA5     0000105000P                                                                          30630291727
D000000000000340250608730006172000FG100047              20170616CUOTA                    MATRICULA6     0000105000P                                                                          30630291727
D000000000000340250608710193083000FG100049              20170616CUOTA                    MATRICULA1     0000105000P                                                                          30630291727
D000000000000340250608710193083000FG100049              20170616CUOTA                    MATRICULA2     0000105000P                                                                          30630291727
D000000000000340250608710193083000FG100049              20170616CUOTA                    MATRICULA3     0000105000P                                                                          30630291727
D000000000000340250608710193083000FG100049              20170616CUOTA                    MATRICULA4     0000105000P                                                                          30630291727
D000000000000340250608710193083000FG100049              20170616CUOTA                    MATRICULA5     0000105000P                                                                          30630291727
D000000000000340250608710193083000FG100049              20170616CUOTA                    MATRICULA6     0000105000P                                                                          30630291727
D000000000000340250608730150044008FG100052              20170616CUOTA                    MATRICULA1     0000105000P                                                                          30630291727
D000000000000340250608730150044008FG100052              20170616CUOTA                    MATRICULA2     0000105000P                                                                          30630291727
D000000000000340250608730150044008FG100052              20170616CUOTA                    MATRICULA3     0000105000P                                                                          30630291727
D000000000000340250608730150044008FG100052              20170616CUOTA                    MATRICULA4     0000105000P                                                                          30630291727
D000000000000340250608730150044008FG100052              20170616CUOTA                    MATRICULA5     0000105000P                                                                          30630291727
D000000000000340250608730150044008FG100052              20170616CUOTA                    MATRICULA6     0000105000P                                                                          30630291727
D000000000000110546930054614175947FG100054              20170616CUOTA                    MATRICULA1     0000105000P                                                                          30630291727
D000000000000110546930054614175947FG100054              20170616CUOTA                    MATRICULA2     0000105000P                                                                          30630291727
D000000000000110546930054614175947FG100054              20170616CUOTA                    MATRICULA3     0000105000P                                                                          30630291727
D000000000000110546930054614175947FG100054              20170616CUOTA                    MATRICULA4     0000105000P                                                                          30630291727
D000000000000110546930054614175947FG100054              20170616CUOTA                    MATRICULA5     0000105000P                                                                          30630291727
D000000000000110546930054614175947FG100054              20170616CUOTA                    MATRICULA6     0000105000P                                                                          30630291727
D000000000000440040040000147870540FG100068              20170616CUOTA                    MATRICULA1     0000105000P                                                                          30630291727
D000000000000440040040000147870540FG100068              20170616CUOTA                    MATRICULA2     0000073500P                                                                          30630291727
D000000000000440040040000147870540FG100068              20170616CUOTA                    MATRICULA3     0000105000P                                                                          30630291727
D000000000000440040040000147870540FG100068              20170616CUOTA                    MATRICULA4     0000073500P                                                                          30630291727
D000000000000440040040000147870540FG100068              20170616CUOTA                    MATRICULA5     0000073500P                                                                          30630291727
D000000000000440040040000147870540FG100068              20170616CUOTA                    MATRICULA6     0000105000P                                                                          30630291727
D000000000000440040040000147870540FG100068              20170616CUOTA                    MATRICULA7     0000073500P                                                                          30630291727
D000000000000440040040000147870540FG100068              20170616CUOTA                    MATRICULA8     0000105000P                                                                          30630291727
D000000000000440040040000147870540FG100068              20170616CUOTA                    MATRICULA9     0000073500P                                                                          30630291727
D000000000000440040040000147870540FG100068              20170616CUOTA                    MATRICULA10    0000105000P                                                                          30630291727
D000000000000440040040000147870540FG100068              20170616CUOTA                    MATRICULA11    0000073500P                                                                          30630291727
D000000000000440040040000147870540FG100068              20170616CUOTA                    MATRICULA12    0000105000P                                                                          30630291727
D000000000000340250608730004778002FG100072              20170616CUOTA                    MATRICULA1     0000105000P                                                                          30630291727
D000000000000340250608730004778002FG100072              20170616CUOTA                    MATRICULA2     0000105000P                                                                          30630291727
D000000000000340250608730004778002FG100072              20170616CUOTA                    MATRICULA3     0000105000P                                                                          30630291727
D000000000000340250608730004778002FG100072              20170616CUOTA                    MATRICULA4     0000105000P                                                                          30630291727
D000000000000340250608730004778002FG100072              20170616CUOTA                    MATRICULA5     0000105000P                                                                          30630291727
D000000000000340250608730004778002FG100072              20170616CUOTA                    MATRICULA6     0000105000P                                                                          30630291727
D000000000000340250608730005272008FG100073              20170616CUOTA                    MATRICULA1     0000105000P                                                                          30630291727
D000000000000340250608730005272008FG100073              20170616CUOTA                    MATRICULA2     0000105000P                                                                          30630291727
D000000000000340250608730005272008FG100073              20170616CUOTA                    MATRICULA3     0000105000P                                                                          30630291727
D000000000000340250608730005272008FG100073              20170616CUOTA                    MATRICULA4     0000105000P                                                                          30630291727
D000000000000340250608730005272008FG100073              20170616CUOTA                    MATRICULA5     0000105000P                                                                          30630291727
D000000000000340250608730005272008FG100073              20170616CUOTA                    MATRICULA6     0000105000P                                                                          30630291727
D000000000000340250608730011325006FG100074              20170616CUOTA                    MATRICULA1     0000105000P                                                                          30630291727
D000000000000340250608730011325006FG100074              20170616CUOTA                    MATRICULA2     0000073500P                                                                          30630291727
D000000000000340250608730011325006FG100074              20170616CUOTA                    MATRICULA3     0000105000P                                                                          30630291727
D000000000000340250608730011325006FG100074              20170616CUOTA                    MATRICULA4     0000073500P                                                                          30630291727
D000000000000340250608730011325006FG100074              20170616CUOTA                    MATRICULA5     0000105000P                                                                          30630291727
D000000000000340250608730011325006FG100074              20170616CUOTA                    MATRICULA6     0000073500P                                                                          30630291727
D000000000000340250608730011325006FG100074              20170616CUOTA                    MATRICULA7     0000105000P                                                                          30630291727
D000000000000340250608730011325006FG100074              20170616CUOTA                    MATRICULA8     0000105000P                                                                          30630291727
D000000000000340250608730011325006FG100074              20170616CUOTA                    MATRICULA9     0000073500P                                                                          30630291727
D000000000000340250608730011325006FG100074              20170616CUOTA                    MATRICULA10    0000105000P                                                                          30630291727
D000000000000340250608730011325006FG100074              20170616CUOTA                    MATRICULA11    0000073500P                                                                          30630291727
D000000000000340250608730011325006FG100074              20170616CUOTA                    MATRICULA12    0000073500P                                                                          30630291727
D000000000000110546930054611495301FG100076              20170616CUOTA                    MATRICULA1     0000105000P                                                                          30630291727
D000000000000110546930054611495301FG100076              20170616CUOTA                    MATRICULA2     0000105000P                                                                          30630291727
D000000000000110546930054611495301FG100076              20170616CUOTA                    MATRICULA3     0000105000P                                                                          30630291727
D000000000000110546930054611495301FG100076              20170616CUOTA                    MATRICULA4     0000105000P                                                                          30630291727
D000000000000110546930054611495301FG100076              20170616CUOTA                    MATRICULA5     0000105000P                                                                          30630291727
D000000000000110546930054611495301FG100076              20170616CUOTA                    MATRICULA6     0000105000P                                                                          30630291727
D000000000000340250608730011142005FG100081              20170616CUOTA                    MATRICULA1     0000091000P                                                                          30630291727
D000000000000340250608730011142005FG100081              20170616CUOTA                    MATRICULA2     0000073500P                                                                          30630291727
D000000000000340250608730011142005FG100081              20170616CUOTA                    MATRICULA3     0000091000P                                                                          30630291727
D000000000000340250608730011142005FG100081              20170616CUOTA                    MATRICULA4     0000073500P                                                                          30630291727
D000000000000340250608730011142005FG100081              20170616CUOTA                    MATRICULA5     0000091000P                                                                          30630291727
D000000000000340250608730011142005FG100081              20170616CUOTA                    MATRICULA6     0000073500P                                                                          30630291727
D000000000000340250608730011142005FG100081              20170616CUOTA                    MATRICULA7     0000091000P                                                                          30630291727
D000000000000340250608730011142005FG100081              20170616CUOTA                    MATRICULA8     0000073500P                                                                          30630291727
D000000000000340250608730011142005FG100081              20170616CUOTA                    MATRICULA9     0000073500P                                                                          30630291727
D000000000000340250608730011142005FG100081              20170616CUOTA                    MATRICULA10    0000091000P                                                                          30630291727
D000000000000340250608730011142005FG100081              20170616CUOTA                    MATRICULA11    0000073500P                                                                          30630291727
D000000000000340250608730011142005FG100081              20170616CUOTA                    MATRICULA12    0000091000P                                                                          30630291727
D000000000000340255108730042286006FG100083              20170616CUOTA                    MATRICULA1     0000105000P                                                                          30630291727
D000000000000340255108730042286006FG100083              20170616CUOTA                    MATRICULA2     0000105000P                                                                          30630291727
D000000000000340255108730042286006FG100083              20170616CUOTA                    MATRICULA3     0000105000P                                                                          30630291727
D000000000000340255108730042286006FG100083              20170616CUOTA                    MATRICULA4     0000105000P                                                                          30630291727
D000000000000340255108730042286006FG100083              20170616CUOTA                    MATRICULA5     0000105000P                                                                          30630291727
D000000000000340255108730042286006FG100083              20170616CUOTA                    MATRICULA6     0000105000P                                                                          30630291727
D000000000000340220908220007385009FG100084              20170616CUOTA                    MATRICULA1     0000105000P                                                                          30630291727
D000000000000340220908220007385009FG100084              20170616CUOTA                    MATRICULA2     0000105000P                                                                          30630291727
D000000000000340220908220007385009FG100084              20170616CUOTA                    MATRICULA3     0000105000P                                                                          30630291727
D000000000000340220908220007385009FG100084              20170616CUOTA                    MATRICULA4     0000105000P                                                                          30630291727
D000000000000340220908220007385009FG100084              20170616CUOTA                    MATRICULA5     0000105000P                                                                          30630291727
D000000000000340220908220007385009FG100084              20170616CUOTA                    MATRICULA6     0000105000P                                                                          30630291727
D000000000000340250608122007831015FG100087              20170616CUOTA                    MATRICULA1     0000105000P                                                                          30630291727
D000000000000340250608122007831015FG100087              20170616CUOTA                    MATRICULA2     0000105000P                                                                          30630291727
D000000000000340250608122007831015FG100087              20170616CUOTA                    MATRICULA3     0000105000P                                                                          30630291727
D000000000000340250608122007831015FG100087              20170616CUOTA                    MATRICULA4     0000105000P                                                                          30630291727
D000000000000340250608122007831015FG100087              20170616CUOTA                    MATRICULA5     0000105000P                                                                          30630291727
D000000000000340250608122007831015FG100087              20170616CUOTA                    MATRICULA6     0000105000P                                                                          30630291727
D000000000000340250608725004927004FG100089              20170616CUOTA                    MATRICULA1     0000105000P                                                                          30630291727
D000000000000340250608725004927004FG100089              20170616CUOTA                    MATRICULA2     0000105000P                                                                          30630291727
D000000000000340250608725004927004FG100089              20170616CUOTA                    MATRICULA3     0000105000P                                                                          30630291727
D000000000000340250608725004927004FG100089              20170616CUOTA                    MATRICULA4     0000105000P                                                                          30630291727
D000000000000340250608725004927004FG100089              20170616CUOTA                    MATRICULA5     0000105000P                                                                          30630291727
D000000000000340250608725004927004FG100089              20170616CUOTA                    MATRICULA6     0000105000P                                                                          30630291727
D000000000000340250608122016254001FG100092              20170616CUOTA                    MATRICULA1     0000091000P                                                                          30630291727
D000000000000340250608122016254001FG100092              20170616CUOTA                    MATRICULA2     0000073500P                                                                          30630291727
D000000000000340250608122016254001FG100092              20170616CUOTA                    MATRICULA3     0000091000P                                                                          30630291727
D000000000000340250608122016254001FG100092              20170616CUOTA                    MATRICULA4     0000091000P                                                                          30630291727
D000000000000340250608122016254001FG100092              20170616CUOTA                    MATRICULA5     0000073500P                                                                          30630291727
D000000000000340250608122016254001FG100092              20170616CUOTA                    MATRICULA6     0000091000P                                                                          30630291727
D000000000000340250608122016254001FG100092              20170616CUOTA                    MATRICULA7     0000073500P                                                                          30630291727
D000000000000340250608122016254001FG100092              20170616CUOTA                    MATRICULA8     0000091000P                                                                          30630291727
D000000000000340250608122016254001FG100092              20170616CUOTA                    MATRICULA9     0000073500P                                                                          30630291727
D000000000000340250608122016254001FG100092              20170616CUOTA                    MATRICULA10    0000091000P                                                                          30630291727
D000000000000340250608122016254001FG100092              20170616CUOTA                    MATRICULA11    0000073500P                                                                          30630291727
D000000000000340250608122016254001FG100092              20170616CUOTA                    MATRICULA12    0000073500P                                                                          30630291727
D000000000000340250608122009287007FG100095              20170616CUOTA                    MATRICULA1     0000105000P                                                                          30630291727
D000000000000340250608122009287007FG100095              20170616CUOTA                    MATRICULA2     0000105000P                                                                          30630291727
D000000000000340250608122009287007FG100095              20170616CUOTA                    MATRICULA3     0000105000P                                                                          30630291727
D000000000000340250608122009287007FG100095              20170616CUOTA                    MATRICULA4     0000105000P                                                                          30630291727
D000000000000340250608122009287007FG100095              20170616CUOTA                    MATRICULA5     0000105000P                                                                          30630291727
D000000000000340250608122009287007FG100095              20170616CUOTA                    MATRICULA6     0000105000P                                                                          30630291727
D000000000000340250600122036635008FG100096              20170616CUOTA                    MATRICULA1     0000073500P                                                                          30630291727
D000000000000340250600122036635008FG100096              20170616CUOTA                    MATRICULA2     0000091000P                                                                          30630291727
D000000000000340250600122036635008FG100096              20170616CUOTA                    MATRICULA3     0000073500P                                                                          30630291727
D000000000000340250600122036635008FG100096              20170616CUOTA                    MATRICULA4     0000091000P                                                                          30630291727
D000000000000340250600122036635008FG100096              20170616CUOTA                    MATRICULA5     0000091000P                                                                          30630291727
D000000000000340250600122036635008FG100096              20170616CUOTA                    MATRICULA6     0000073500P                                                                          30630291727
D000000000000340250600122036635008FG100096              20170616CUOTA                    MATRICULA7     0000091000P                                                                          30630291727
D000000000000340250600122036635008FG100096              20170616CUOTA                    MATRICULA8     0000073500P                                                                          30630291727
D000000000000340250600122036635008FG100096              20170616CUOTA                    MATRICULA9     0000091000P                                                                          30630291727
D000000000000340250600122036635008FG100096              20170616CUOTA                    MATRICULA10    0000073500P                                                                          30630291727
D000000000000340250600122036635008FG100096              20170616CUOTA                    MATRICULA11    0000091000P                                                                          30630291727
D000000000000340250600122036635008FG100096              20170616CUOTA                    MATRICULA12    0000073500P                                                                          30630291727
D000000000000340250608730010892000FG100097              20170616CUOTA                    MATRICULA1     0000075000P                                                                          30630291727
D000000000000340250608730010892000FG100097              20170616CUOTA                    MATRICULA2     0000075000P                                                                          30630291727
D000000000000340250608730010892000FG100097              20170616CUOTA                    MATRICULA3     0000075000P                                                                          30630291727
D000000000000340250608730010892000FG100097              20170616CUOTA                    MATRICULA4     0000075000P                                                                          30630291727
D000000000000340250608730010892000FG100097              20170616CUOTA                    MATRICULA5     0000075000P                                                                          30630291727
D000000000000340250608730010892000FG100097              20170616CUOTA                    MATRICULA6     0000075000P                                                                          30630291727
D000000000000340250608730006440002FG100098              20170616CUOTA                    MATRICULA1     0000105000P                                                                          30630291727
D000000000000340250608730006440002FG100098              20170616CUOTA                    MATRICULA2     0000105000P                                                                          30630291727
D000000000000340250608730006440002FG100098              20170616CUOTA                    MATRICULA3     0000105000P                                                                          30630291727
D000000000000340250608730006440002FG100098              20170616CUOTA                    MATRICULA4     0000105000P                                                                          30630291727
D000000000000340250608730006440002FG100098              20170616CUOTA                    MATRICULA5     0000105000P                                                                          30630291727
D000000000000340250608730006440002FG100098              20170616CUOTA                    MATRICULA6     0000105000P                                                                          30630291727
D000000000000340250608122019802009FG100099              20170616CUOTA                    MATRICULA1     0000105000P                                                                          30630291727
D000000000000340250608122019802009FG100099              20170616CUOTA                    MATRICULA2     0000073500P                                                                          30630291727
D000000000000340250608122019802009FG100099              20170616CUOTA                    MATRICULA3     0000105000P                                                                          30630291727
D000000000000340250608122019802009FG100099              20170616CUOTA                    MATRICULA4     0000073500P                                                                          30630291727
D000000000000340250608122019802009FG100099              20170616CUOTA                    MATRICULA5     0000105000P                                                                          30630291727
D000000000000340250608122019802009FG100099              20170616CUOTA                    MATRICULA6     0000073500P                                                                          30630291727
D000000000000340250608122019802009FG100099              20170616CUOTA                    MATRICULA7     0000105000P                                                                          30630291727
D000000000000340250608122019802009FG100099              20170616CUOTA                    MATRICULA8     0000105000P                                                                          30630291727
D000000000000340250608122019802009FG100099              20170616CUOTA                    MATRICULA9     0000073500P                                                                          30630291727
D000000000000340250608122019802009FG100099              20170616CUOTA                    MATRICULA10    0000105000P                                                                          30630291727
D000000000000340250608122019802009FG100099              20170616CUOTA                    MATRICULA11    0000073500P                                                                          30630291727
D000000000000340250608122019802009FG100099              20170616CUOTA                    MATRICULA12    0000073500P                                                                          30630291727
D000000000000340250609122037641005FG100103              20170616CUOTA                    MATRICULA1     0000105000P                                                                          30630291727
D000000000000340250609122037641005FG100103              20170616CUOTA                    MATRICULA2     0000105000P                                                                          30630291727
D000000000000340250609122037641005FG100103              20170616CUOTA                    MATRICULA3     0000105000P                                                                          30630291727
D000000000000340250609122037641005FG100103              20170616CUOTA                    MATRICULA4     0000105000P                                                                          30630291727
D000000000000340250609122037641005FG100103              20170616CUOTA                    MATRICULA5     0000105000P                                                                          30630291727
D000000000000340250609122037641005FG100103              20170616CUOTA                    MATRICULA6     0000105000P                                                                          30630291727
D000000000000340250608122001757007FG100108              20170616CUOTA                    MATRICULA1     0000105000P                                                                          30630291727
D000000000000340250608122001757007FG100108              20170616CUOTA                    MATRICULA2     0000105000P                                                                          30630291727
D000000000000340250608122001757007FG100108              20170616CUOTA                    MATRICULA3     0000105000P                                                                          30630291727
D000000000000340250608122001757007FG100108              20170616CUOTA                    MATRICULA4     0000105000P                                                                          30630291727
D000000000000340250608122001757007FG100108              20170616CUOTA                    MATRICULA5     0000105000P                                                                          30630291727
D000000000000340250608122001757007FG100108              20170616CUOTA                    MATRICULA6     0000105000P                                                                          30630291727
D000000000000340299508299009465008FG100113              20170616CUOTA                    MATRICULA1     0000105000P                                                                          30630291727
D000000000000340299508299009465008FG100113              20170616CUOTA                    MATRICULA2     0000105000P                                                                          30630291727
D000000000000340299508299009465008FG100113              20170616CUOTA                    MATRICULA3     0000105000P                                                                          30630291727
D000000000000340299508299009465008FG100113              20170616CUOTA                    MATRICULA4     0000105000P                                                                          30630291727
D000000000000340299508299009465008FG100113              20170616CUOTA                    MATRICULA5     0000105000P                                                                          30630291727
D000000000000340299508299009465008FG100113              20170616CUOTA                    MATRICULA6     0000105000P                                                                          30630291727
D000000000000110546930054612304165FG100114              20170616CUOTA                    MATRICULA1     0000091000P                                                                          30630291727
D000000000000110546930054612304165FG100114              20170616CUOTA                    MATRICULA2     0000091000P                                                                          30630291727
D000000000000110546930054612304165FG100114              20170616CUOTA                    MATRICULA3     0000091000P                                                                          30630291727
D000000000000110546930054612304165FG100114              20170616CUOTA                    MATRICULA4     0000091000P                                                                          30630291727
D000000000000110546930054612304165FG100114              20170616CUOTA                    MATRICULA5     0000091000P                                                                          30630291727
D000000000000110546930054612304165FG100114              20170616CUOTA                    MATRICULA6     0000091000P                                                                          30630291727
D000000000000110546930054613511665FG100115              20170616CUOTA                    MATRICULA1     0000091000P                                                                          30630291727
D000000000000110546930054613511665FG100115              20170616CUOTA                    MATRICULA2     0000091000P                                                                          30630291727
D000000000000110546930054613511665FG100115              20170616CUOTA                    MATRICULA3     0000091000P                                                                          30630291727
D000000000000110546930054613511665FG100115              20170616CUOTA                    MATRICULA4     0000091000P                                                                          30630291727
D000000000000110546930054613511665FG100115              20170616CUOTA                    MATRICULA5     0000091000P                                                                          30630291727
D000000000000110546930054613511665FG100115              20170616CUOTA                    MATRICULA6     0000091000P                                                                          30630291727
D000000000001234567891234567896985FG100117              20170616CUOTA                    MATRICULA1     0000091000P                                                                          30630291727
D000000000001234567891234567896985FG100117              20170616CUOTA                    MATRICULA2     0000091000P                                                                          30630291727
D000000000001234567891234567896985FG100117              20170616CUOTA                    MATRICULA3     0000063700P                                                                          30630291727
D000000000001234567891234567896985FG100117              20170616CUOTA                    MATRICULA4     0000063700P                                                                          30630291727
D000000000001234567891234567896985FG100117              20170616CUOTA                    MATRICULA5     0000030000P                                                                          30630291727
D000000000001234567891234567896985FG100117              20170616CUOTA                    MATRICULA6     0000091000P                                                                          30630291727
D000000000001234567891234567896985FG100117              20170616CUOTA                    MATRICULA7     0000091000P                                                                          30630291727
D000000000001234567891234567896985FG100117              20170616CUOTA                    MATRICULA8     0000063700P                                                                          30630291727
D000000000001234567891234567896985FG100117              20170616CUOTA                    MATRICULA9     0000091000P                                                                          30630291727
D000000000001234567891234567896985FG100117              20170616CUOTA                    MATRICULA10    0000063700P                                                                          30630291727
D000000000001234567891234567896985FG100117              20170616CUOTA                    MATRICULA11    0000063700P                                                                          30630291727
D000000000000340220908730034526006FG100125              20170616CUOTA                    MATRICULA1     0000091000P                                                                          30630291727
D000000000000340220908730034526006FG100125              20170616CUOTA                    MATRICULA2     0000091000P                                                                          30630291727
D000000000000340220908730034526006FG100125              20170616CUOTA                    MATRICULA3     0000073500P                                                                          30630291727
D000000000000340220908730034526006FG100125              20170616CUOTA                    MATRICULA4     0000091000P                                                                          30630291727
D000000000000340220908730034526006FG100125              20170616CUOTA                    MATRICULA5     0000073500P                                                                          30630291727
D000000000000340220908730034526006FG100125              20170616CUOTA                    MATRICULA6     0000091000P                                                                          30630291727
D000000000000340220908730034526006FG100125              20170616CUOTA                    MATRICULA7     0000073500P                                                                          30630291727
D000000000000340220908730034526006FG100125              20170616CUOTA                    MATRICULA8     0000091000P                                                                          30630291727
D000000000000340220908730034526006FG100125              20170616CUOTA                    MATRICULA9     0000073500P                                                                          30630291727
D000000000000340220908730034526006FG100125              20170616CUOTA                    MATRICULA10    0000073500P                                                                          30630291727
D000000000000340220908730034526006FG100125              20170616CUOTA                    MATRICULA11    0000091000P                                                                          30630291727
D000000000000340220908730034526006FG100125              20170616CUOTA                    MATRICULA12    0000073500P                                                                          30630291727
D000000000000340250608730010966006FG100126              20170616CUOTA                    MATRICULA1     0000073500P                                                                          30630291727
D000000000000340250608730010966006FG100126              20170616CUOTA                    MATRICULA2     0000091000P                                                                          30630291727
D000000000000340250608730010966006FG100126              20170616CUOTA                    MATRICULA3     0000073500P                                                                          30630291727
D000000000000340250608730010966006FG100126              20170616CUOTA                    MATRICULA4     0000091000P                                                                          30630291727
D000000000000340250608730010966006FG100126              20170616CUOTA                    MATRICULA5     0000073500P                                                                          30630291727
D000000000000340250608730010966006FG100126              20170616CUOTA                    MATRICULA6     0000091000P                                                                          30630291727
D000000000000340250608730010966006FG100126              20170616CUOTA                    MATRICULA7     0000073500P                                                                          30630291727
D000000000000340250608730010966006FG100126              20170616CUOTA                    MATRICULA8     0000073500P                                                                          30630291727
D000000000000340250608730010966006FG100126              20170616CUOTA                    MATRICULA9     0000091000P                                                                          30630291727
D000000000000340250608730010966006FG100126              20170616CUOTA                    MATRICULA10    0000073500P                                                                          30630291727
D000000000000340250608730010966006FG100126              20170616CUOTA                    MATRICULA11    0000091000P                                                                          30630291727
D000000000000340250608730010966006FG100126              20170616CUOTA                    MATRICULA12    0000091000P                                                                          30630291727
D000000000000340250608730003042010FG100128              20170616CUOTA                    MATRICULA1     0000073500P                                                                          30630291727
D000000000000340250608730003042010FG100128              20170616CUOTA                    MATRICULA2     0000091000P                                                                          30630291727
D000000000000340250608730003042010FG100128              20170616CUOTA                    MATRICULA3     0000073500P                                                                          30630291727
D000000000000340250608730003042010FG100128              20170616CUOTA                    MATRICULA4     0000073500P                                                                          30630291727
D000000000000340250608730003042010FG100128              20170616CUOTA                    MATRICULA5     0000091000P                                                                          30630291727
D000000000000340250608730003042010FG100128              20170616CUOTA                    MATRICULA6     0000073500P                                                                          30630291727
D000000000000340250608730003042010FG100128              20170616CUOTA                    MATRICULA7     0000091000P                                                                          30630291727
D000000000000340250608730003042010FG100128              20170616CUOTA                    MATRICULA8     0000091000P                                                                          30630291727
D000000000000340250608730003042010FG100128              20170616CUOTA                    MATRICULA9     0000073500P                                                                          30630291727
D000000000000340250608730003042010FG100128              20170616CUOTA                    MATRICULA10    0000091000P                                                                          30630291727
D000000000000340250608730003042010FG100128              20170616CUOTA                    MATRICULA11    0000073500P                                                                          30630291727
D000000000000340250608730003042010FG100128              20170616CUOTA                    MATRICULA12    0000091000P                                                                          30630291727
D000000000000340250608122020618006FG100139              20170616CUOTA                    MATRICULA1     0000091000P                                                                          30630291727
D000000000000340250608122020618006FG100139              20170616CUOTA                    MATRICULA2     0000063700P                                                                          30630291727
D000000000000340250608122020618006FG100139              20170616CUOTA                    MATRICULA3     0000091000P                                                                          30630291727
D000000000000340250608122020618006FG100139              20170616CUOTA                    MATRICULA4     0000063700P                                                                          30630291727
D000000000000340250608122020618006FG100139              20170616CUOTA                    MATRICULA5     0000063700P                                                                          30630291727
D000000000000340250608122020618006FG100139              20170616CUOTA                    MATRICULA6     0000091000P                                                                          30630291727
D000000000000340250608122020618006FG100139              20170616CUOTA                    MATRICULA7     0000063700P                                                                          30630291727
D000000000000340250608122020618006FG100139              20170616CUOTA                    MATRICULA8     0000091000P                                                                          30630291727
D000000000000340250608122020618006FG100139              20170616CUOTA                    MATRICULA9     0000063700P                                                                          30630291727
D000000000000340250608122020618006FG100139              20170616CUOTA                    MATRICULA10    0000091000P                                                                          30630291727
D000000000000340250608122020618006FG100139              20170616CUOTA                    MATRICULA11    0000063700P                                                                          30630291727
D000000000000340250608122020618006FG100139              20170616CUOTA                    MATRICULA12    0000091000P                                                                          30630291727
D000000000000340250608730010587003FG100141              20170616CUOTA                    MATRICULA1     0000063700P                                                                          30630291727
D000000000000340250608730010587003FG100141              20170616CUOTA                    MATRICULA2     0000063700P                                                                          30630291727
D000000000000340250608730010587003FG100141              20170616CUOTA                    MATRICULA3     0000091000P                                                                          30630291727
D000000000000340250608730010587003FG100141              20170616CUOTA                    MATRICULA4     0000063700P                                                                          30630291727
D000000000000340250608730010587003FG100141              20170616CUOTA                    MATRICULA5     0000091000P                                                                          30630291727
D000000000000340250608730010587003FG100141              20170616CUOTA                    MATRICULA6     0000063700P                                                                          30630291727
D000000000000340250608730010587003FG100141              20170616CUOTA                    MATRICULA7     0000091000P                                                                          30630291727
D000000000000340250608730010587003FG100141              20170616CUOTA                    MATRICULA8     0000063700P                                                                          30630291727
D000000000000340250608730010587003FG100141              20170616CUOTA                    MATRICULA9     0000091000P                                                                          30630291727
D000000000000340250608730010587003FG100141              20170616CUOTA                    MATRICULA10    0000091000P                                                                          30630291727
D000000000000340250608730010587003FG100141              20170616CUOTA                    MATRICULA11    0000063700P                                                                          30630291727
D000000000000340250608730010587003FG100141              20170616CUOTA                    MATRICULA12    0000091000P                                                                          30630291727
D000000000000340250608122015172001FG100142              20170616CUOTA                    MATRICULA1     0000073500P                                                                          30630291727
D000000000000340250608122015172001FG100142              20170616CUOTA                    MATRICULA2     0000091000P                                                                          30630291727
D000000000000340250608122015172001FG100142              20170616CUOTA                    MATRICULA3     0000073500P                                                                          30630291727
D000000000000340250608122015172001FG100142              20170616CUOTA                    MATRICULA4     0000091000P                                                                          30630291727
D000000000000340250608122015172001FG100142              20170616CUOTA                    MATRICULA5     0000073500P                                                                          30630291727
D000000000000340250608122015172001FG100142              20170616CUOTA                    MATRICULA6     0000091000P                                                                          30630291727
D000000000000340250608122015172001FG100142              20170616CUOTA                    MATRICULA7     0000073500P                                                                          30630291727
D000000000000340250608122015172001FG100142              20170616CUOTA                    MATRICULA8     0000073500P                                                                          30630291727
D000000000000340250608122015172001FG100142              20170616CUOTA                    MATRICULA9     0000091000P                                                                          30630291727
D000000000000340250608122015172001FG100142              20170616CUOTA                    MATRICULA10    0000073500P                                                                          30630291727
D000000000000340250608122015172001FG100142              20170616CUOTA                    MATRICULA11    0000091000P                                                                          30630291727
D000000000000340250608122015172001FG100142              20170616CUOTA                    MATRICULA12    0000091000P                                                                          30630291727
D000000000000720314388000036270404FG100144              20170616CUOTA                    MATRICULA1     0000091000P                                                                          30630291727
D000000000000720314388000036270404FG100144              20170616CUOTA                    MATRICULA2     0000091000P                                                                          30630291727
D000000000000720314388000036270404FG100144              20170616CUOTA                    MATRICULA3     0000091000P                                                                          30630291727
D000000000000720314388000036270404FG100144              20170616CUOTA                    MATRICULA4     0000091000P                                                                          30630291727
D000000000000720314388000036270404FG100144              20170616CUOTA                    MATRICULA5     0000091000P                                                                          30630291727
D000000000000720314388000036270404FG100144              20170616CUOTA                    MATRICULA6     0000091000P                                                                          30630291727
D000000000000340250608122011937002FG100156              20170616CUOTA                    MATRICULA1     0000091000P                                                                          30630291727
D000000000000340250608122011937002FG100156              20170616CUOTA                    MATRICULA2     0000091000P                                                                          30630291727
D000000000000340250608122011937002FG100156              20170616CUOTA                    MATRICULA3     0000091000P                                                                          30630291727
D000000000000340250608122011937002FG100156              20170616CUOTA                    MATRICULA4     0000091000P                                                                          30630291727
D000000000000340250608122011937002FG100156              20170616CUOTA                    MATRICULA5     0000091000P                                                                          30630291727
D000000000000340250608122011937002FG100156              20170616CUOTA                    MATRICULA6     0000091000P                                                                          30630291727
D000000000000340100808710300523014FG100157              20170616CUOTA                    MATRICULA1     0000073500P                                                                          30630291727
D000000000000340100808710300523014FG100157              20170616CUOTA                    MATRICULA2     0000091000P                                                                          30630291727
D000000000000340100808710300523014FG100157              20170616CUOTA                    MATRICULA3     0000073500P                                                                          30630291727
D000000000000340100808710300523014FG100157              20170616CUOTA                    MATRICULA4     0000091000P                                                                          30630291727
D000000000000340100808710300523014FG100157              20170616CUOTA                    MATRICULA5     0000091000P                                                                          30630291727
D000000000000340100808710300523014FG100157              20170616CUOTA                    MATRICULA6     0000073500P                                                                          30630291727
D000000000000340100808710300523014FG100157              20170616CUOTA                    MATRICULA7     0000091000P                                                                          30630291727
D000000000000340100808710300523014FG100157              20170616CUOTA                    MATRICULA8     0000073500P                                                                          30630291727
D000000000000340100808710300523014FG100157              20170616CUOTA                    MATRICULA9     0000091000P                                                                          30630291727
D000000000000340100808710300523014FG100157              20170616CUOTA                    MATRICULA10    0000073500P                                                                          30630291727
D000000000000340100808710300523014FG100157              20170616CUOTA                    MATRICULA11    0000091000P                                                                          30630291727
D000000000000340100808710300523014FG100157              20170616CUOTA                    MATRICULA12    0000073500P                                                                          30630291727
D000000000000340299508299001716005FG100158              20170616CUOTA                    MATRICULA1     0000091000P                                                                          30630291727
D000000000000340299508299001716005FG100158              20170616CUOTA                    MATRICULA2     0000091000P                                                                          30630291727
D000000000000340299508299001716005FG100158              20170616CUOTA                    MATRICULA3     0000063700P                                                                          30630291727
D000000000000340299508299001716005FG100158              20170616CUOTA                    MATRICULA4     0000091000P                                                                          30630291727
D000000000000340299508299001716005FG100158              20170616CUOTA                    MATRICULA5     0000063700P                                                                          30630291727
D000000000000340299508299001716005FG100158              20170616CUOTA                    MATRICULA6     0000091000P                                                                          30630291727
D000000000000340299508299001716005FG100158              20170616CUOTA                    MATRICULA7     0000063700P                                                                          30630291727
D000000000000340299508299001716005FG100158              20170616CUOTA                    MATRICULA8     0000091000P                                                                          30630291727
D000000000000340299508299001716005FG100158              20170616CUOTA                    MATRICULA9     0000063700P                                                                          30630291727
D000000000000340299508299001716005FG100158              20170616CUOTA                    MATRICULA10    0000063700P                                                                          30630291727
D000000000000340299508299001716005FG100158              20170616CUOTA                    MATRICULA11    0000091000P                                                                          30630291727
D000000000000340299508299001716005FG100158              20170616CUOTA                    MATRICULA12    0000063700P                                                                          30630291727
D000000000000340299508299003039005FG100159              20170616CUOTA                    MATRICULA1     0000091000P                                                                          30630291727
D000000000000340299508299003039005FG100159              20170616CUOTA                    MATRICULA2     0000063700P                                                                          30630291727
D000000000000340299508299003039005FG100159              20170616CUOTA                    MATRICULA3     0000091000P                                                                          30630291727
D000000000000340299508299003039005FG100159              20170616CUOTA                    MATRICULA4     0000063700P                                                                          30630291727
D000000000000340299508299003039005FG100159              20170616CUOTA                    MATRICULA5     0000091000P                                                                          30630291727
D000000000000340299508299003039005FG100159              20170616CUOTA                    MATRICULA6     0000063700P                                                                          30630291727
D000000000000340299508299003039005FG100159              20170616CUOTA                    MATRICULA7     0000091000P                                                                          30630291727
D000000000000340299508299003039005FG100159              20170616CUOTA                    MATRICULA8     0000091000P                                                                          30630291727
D000000000000340299508299003039005FG100159              20170616CUOTA                    MATRICULA9     0000063700P                                                                          30630291727
D000000000000340299508299003039005FG100159              20170616CUOTA                    MATRICULA10    0000091000P                                                                          30630291727
D000000000000340299508299003039005FG100159              20170616CUOTA                    MATRICULA11    0000063700P                                                                          30630291727
D000000000000340299508299003039005FG100159              20170616CUOTA                    MATRICULA12    0000063700P                                                                          30630291727
D000000000000340250608122002985007FG100165              20170616CUOTA                    MATRICULA1     0000091000P                                                                          30630291727
D000000000000340250608122002985007FG100165              20170616CUOTA                    MATRICULA2     0000063700P                                                                          30630291727
D000000000000340250608122002985007FG100165              20170616CUOTA                    MATRICULA3     0000091000P                                                                          30630291727
D000000000000340250608122002985007FG100165              20170616CUOTA                    MATRICULA4     0000091000P                                                                          30630291727
D000000000000340250608122002985007FG100165              20170616CUOTA                    MATRICULA5     0000063700P                                                                          30630291727
D000000000000340250608122002985007FG100165              20170616CUOTA                    MATRICULA6     0000091000P                                                                          30630291727
D000000000000340250608122002985007FG100165              20170616CUOTA                    MATRICULA7     0000063700P                                                                          30630291727
D000000000000340250608122002985007FG100165              20170616CUOTA                    MATRICULA8     0000063700P                                                                          30630291727
D000000000000340250608122002985007FG100165              20170616CUOTA                    MATRICULA9     0000091000P                                                                          30630291727
D000000000000340250608122002985007FG100165              20170616CUOTA                    MATRICULA10    0000063700P                                                                          30630291727
D000000000000340250608122002985007FG100165              20170616CUOTA                    MATRICULA11    0000091000P                                                                          30630291727
D000000000000340250608122002985007FG100165              20170616CUOTA                    MATRICULA12    0000063700P                                                                          30630291727
D000000000000340250608730041378009FG100185              20170616CUOTA                    MATRICULA1     0000105000P                                                                          30630291727
D000000000000340250608730041378009FG100185              20170616CUOTA                    MATRICULA2     0000105000P                                                                          30630291727
D000000000000340250608730041378009FG100185              20170616CUOTA                    MATRICULA3     0000105000P                                                                          30630291727
D000000000000340250608730041378009FG100185              20170616CUOTA                    MATRICULA4     0000105000P                                                                          30630291727
D000000000000340250608730041378009FG100185              20170616CUOTA                    MATRICULA5     0000105000P                                                                          30630291727
D000000000000340250608730041378009FG100185              20170616CUOTA                    MATRICULA6     0000105000P                                                                          30630291727
D000000000000340250608122010010007FG100188              20170616CUOTA                    MATRICULA1     0000105000P                                                                          30630291727
D000000000000340250608122010010007FG100188              20170616CUOTA                    MATRICULA2     0000105000P                                                                          30630291727
D000000000000340250608122010010007FG100188              20170616CUOTA                    MATRICULA3     0000105000P                                                                          30630291727
D000000000000340250608122010010007FG100188              20170616CUOTA                    MATRICULA4     0000105000P                                                                          30630291727
D000000000000340250608122010010007FG100188              20170616CUOTA                    MATRICULA5     0000105000P                                                                          30630291727
D000000000000340250608122010010007FG100188              20170616CUOTA                    MATRICULA6     0000105000P                                                                          30630291727
D000000000000110393730039308750697FG100189              20170616CUOTA                    MATRICULA1     0000105000P                                                                          30630291727
D000000000000110393730039308750697FG100189              20170616CUOTA                    MATRICULA2     0000105000P                                                                          30630291727
D000000000000110393730039308750697FG100189              20170616CUOTA                    MATRICULA3     0000105000P                                                                          30630291727
D000000000000110393730039308750697FG100189              20170616CUOTA                    MATRICULA4     0000105000P                                                                          30630291727
D000000000000110393730039308750697FG100189              20170616CUOTA                    MATRICULA5     0000105000P                                                                          30630291727
D000000000000110393730039308750697FG100189              20170616CUOTA                    MATRICULA6     0000105000P                                                                          30630291727
D000000000000340250608122007236018FG100192              20170616CUOTA                    MATRICULA1     0000105000P                                                                          30630291727
D000000000000340250608122007236018FG100192              20170616CUOTA                    MATRICULA2     0000105000P                                                                          30630291727
D000000000000340250608122007236018FG100192              20170616CUOTA                    MATRICULA3     0000105000P                                                                          30630291727
D000000000000340250608122007236018FG100192              20170616CUOTA                    MATRICULA4     0000105000P                                                                          30630291727
D000000000000340250608122007236018FG100192              20170616CUOTA                    MATRICULA5     0000105000P                                                                          30630291727
D000000000000340250608122007236018FG100192              20170616CUOTA                    MATRICULA6     0000105000P                                                                          30630291727
D000000000000340250608730006492003FG100194              20170616CUOTA                    MATRICULA1     0000105000P                                                                          30630291727
D000000000000340250608730006492003FG100194              20170616CUOTA                    MATRICULA2     0000105000P                                                                          30630291727
D000000000000340250608730006492003FG100194              20170616CUOTA                    MATRICULA3     0000105000P                                                                          30630291727
D000000000000340250608730006492003FG100194              20170616CUOTA                    MATRICULA4     0000105000P                                                                          30630291727
D000000000000340250608730006492003FG100194              20170616CUOTA                    MATRICULA5     0000105000P                                                                          30630291727
D000000000000340250608730006492003FG100194              20170616CUOTA                    MATRICULA6     0000105000P                                                                          30630291727
D000000000000340299500299002406004FG100195              20170616CUOTA                    MATRICULA1     0000105000P                                                                          30630291727
D000000000000340299500299002406004FG100195              20170616CUOTA                    MATRICULA2     0000105000P                                                                          30630291727
D000000000000340299500299002406004FG100195              20170616CUOTA                    MATRICULA3     0000105000P                                                                          30630291727
D000000000000340299500299002406004FG100195              20170616CUOTA                    MATRICULA4     0000105000P                                                                          30630291727
D000000000000340299500299002406004FG100195              20170616CUOTA                    MATRICULA5     0000105000P                                                                          30630291727
D000000000000340299500299002406004FG100195              20170616CUOTA                    MATRICULA6     0000105000P                                                                          30630291727
D000000000000110546930054612265679FG100196              20170616CUOTA                    MATRICULA1     0000105000P                                                                          30630291727
D000000000000110546930054612265679FG100196              20170616CUOTA                    MATRICULA2     0000105000P                                                                          30630291727
D000000000000110546930054612265679FG100196              20170616CUOTA                    MATRICULA3     0000105000P                                                                          30630291727
D000000000000110546930054612265679FG100196              20170616CUOTA                    MATRICULA4     0000105000P                                                                          30630291727
D000000000000110546930054612265679FG100196              20170616CUOTA                    MATRICULA5     0000105000P                                                                          30630291727
D000000000000110546930054612265679FG100196              20170616CUOTA                    MATRICULA6     0000105000P                                                                          30630291727
D000000000000340250608122011934003FG100197              20170616CUOTA                    MATRICULA1     0000091000P                                                                          30630291727
D000000000000340250608122011934003FG100197              20170616CUOTA                    MATRICULA2     0000042000P                                                                          30630291727
D000000000000340250608122011934003FG100197              20170616CUOTA                    MATRICULA3     0000063700P                                                                          30630291727
D000000000000340250608122011934003FG100197              20170616CUOTA                    MATRICULA4     0000091000P                                                                          30630291727
D000000000000340250608122011934003FG100197              20170616CUOTA                    MATRICULA5     0000042000P                                                                          30630291727
D000000000000340250608122011934003FG100197              20170616CUOTA                    MATRICULA6     0000063700P                                                                          30630291727
D000000000000340250608122011934003FG100197              20170616CUOTA                    MATRICULA7     0000091000P                                                                          30630291727
D000000000000340250608122011934003FG100197              20170616CUOTA                    MATRICULA8     0000063700P                                                                          30630291727
D000000000000340250608122011934003FG100197              20170616CUOTA                    MATRICULA9     0000091000P                                                                          30630291727
